:100000002DC1000048C1000046C1000044C10000ED
:1000100042C1000040C100003EC100003CC10000E0
:100020003AC10000A8C2000036C1000034C100007F
:1000300032C1000030C100002EC100005FC10000CD
:100040002AC1000028C1000026C1000024C1000010
:1000500022C1000020C100001EC100001CC1000020
:100060001AC1000018C1000016C1000014C1000030
:1000700012C1000010C100000EC100000CC1000040
:100080000AC1000008C1000006C100000A053F04C3
:100090001B0530041B051B051B0521041B051B0547
:1000A0001B051B051B051B051B051B051B056C0400
:1000B0001B055D041B051B051B054E041B051B05CD
:1000C0001B051B051B051B051B051B051B051B0530
:1000D0001B051B051B051B051B051B051B051B0520
:1000E0001B051B051B051B051B051B05B5049904FA
:1000F0001B058A041B051B051B057B041B051B0533
:100100001B051B051B051B051B051B051B051B05EF
:100110001B051B051B051B051B051B051B051B05DF
:100120001B051B051B051B051B051B051B051B05CF
:100130001B051B051B051B051B051B051B051B05BF
:100140001B051B051B051B051B051B051B051B05AF
:100150001B051B051B051B051B051B051B051B059F
:100160001B051B051B051B051B051B051B051B058F
:100170001B05A8044A07A406BC078F06BC07BC07DA
:10018000BC077A06BC07BC07BC07BC07BC07BC079A
:10019000BC07BC075D07E306BC07CE06BC07BC076F
:1001A000BC07B906BC07BC07BC07BC07BC07BC073B
:1001B000BC07BC07BC07BC07BC07BC07BC07BC0727
:1001C000BC07BC07BC07BC07BC07BC07BC07BC0717
:1001D000BC07BC0773072207BC070D07BC07BC0799
:1001E000BC07F806BC07BC07BC07BC07BC07BC07BC
:1001F000BC07BC07BC07BC07BC07BC07BC07BC07E7
:10020000BC07BC07BC07BC07BC07BC07BC07BC07D6
:10021000BC07BC07BC07BC07BC07BC07BC07BC07C6
:10022000BC07BC07BC07BC07BC07BC07BC07BC07B6
:10023000BC07BC07BC07BC07BC07BC07BC07BC07A6
:10024000BC07BC07BC07BC07BC07BC07BC07BC0796
:10025000BC07BC07BC07BC07BC07370711241FBE7F
:10026000CFEFD0E1DEBFCDBF11E0A0E0B1E0EAE228
:10027000F0E100E00BBF02C007900D92AA3BB1076E
:10028000D9F721E0AAEBB1E001C01D92AE3FB20761
:10029000E1F7BAD1C8C6B4CE82B3806F82BB81B356
:1002A000806F81BB8FEF8ABB88E083BF8EE481BF04
:1002B00087B7826087BF83B7876083BF0895CF9376
:1002C000DF93EB0127B72D7F27BFE0E0F1E010823D
:1002D00020E12183228323832483258325E031E0C9
:1002E000BE0171D68193862F972FE217F307C1F7CE
:1002F00087B7826087BFDF91CF9108951F920F92D9
:100300000FB60F9211240BB60F922F938F939F93DA
:10031000EF93FF9322B380E190E00090BA0102C016
:10032000880F991F0A94E2F78095807F922F9F7023
:10033000892B82BBE091BA01F091BB01E050FF4FE5
:10034000E081F0E0E75AFE4F808180958BBB809181
:10035000BA019091BB0101968430910529F09093E8
:10036000BB018093BA0104C01092BB011092BA0184
:10037000FF91EF919F918F912F910F900BBE0F9056
:100380000FBE0F901F9018958EEF809362000000B3
:1003900080B18095807F69F423E092E0E2E6F0E0AE
:1003A000892F80958083000080B18095807F21F027
:1003B00001C091E0890F0895990F215089F70895A0
:1003C00080EF809362008FE0809361000895CF9367
:1003D000DBDFC82F01C0C82F8FE39CE90197F1F73D
:1003E00000C000008FE39CE90197F1F700C0000016
:1003F0008FE39CE90197F1F700C00000C5DFC81347
:10040000EACF982F907F19F41092BC0109C0909107
:10041000BC01891721F08093BC01982F01C090E0A6
:10042000892FCF910895982F907F946095BB9B7FE3
:1004300095BB20E18202C0011124846085BB8B7FC3
:1004400085BB85E08A95F1F700000895CF93C82F0A
:1004500085E38A95F1F7000095E39A95F1F700009E
:1004600085E38A95F1F7000095E39A95F1F700008E
:1004700085E38A95F1F700008C2FD5DFC150C2309B
:1004800030F48FE39FE10197F1F700C00000CF91B6
:1004900008958FEF84BB8FE59AEE0197F1F700C0C6
:1004A000000080E3C0DF8FE19EE40197F1F700C018
:1004B000000080E3B8DF8FE99FE00197F1F700C00B
:1004C000000082E3B0DF88E2C1DF88E0BFDF81E0C7
:1004D000BDDF86E0BBDF8CE0B9CF089525E32A9528
:1004E000F1F7000095E39A95F1F7000025E32A95CE
:1004F000F1F7000095E39A95F1F7000025E32A95BE
:10050000F1F70000982F907F956095BB9B7F95BB7E
:1005100020E18202C0011124856085BB8B7F85BBF1
:100520000895CF93DF93EC018881882329F02196E9
:10053000D5DF89918111FCCFDF91CF91089590E4AF
:10054000899F600D1124862F806880CF089518162A
:10055000190644F4EFE9FFE03197F1F700C000001D
:100560000197C1F7089585B5886085BD84E683BD90
:1005700080E887BF08951F920F920FB60F92112443
:100580002F935F936F937F938F939F93AF93BF93BB
:100590008091C9019091CA0101969093CA018093FC
:1005A000C90180322EE4920771F41092CA011092B0
:1005B000C9018091C7019091C80101969093C8012B
:1005C0008093C70105C060ED77E011D5892B79F4E0
:1005D00081E090E09093C6018093C5018091C301B2
:1005E0009091C40101969093C4018093C301BF917F
:1005F000AF919F918F917F916F915F912F910F900C
:100600000FBE0F901F90189544DFDADEACDF25D2C5
:10061000789485B5826085BD6091BF017091C001FD
:100620008091C7019091C8015BD0D1DE8093CB014E
:100630008091C1019091C201019749F48091C50157
:100640009091C6019ED49093C2018093C101809184
:10065000BF019091C001019759F46091CB01809145
:10066000C5019091C601FDD29093C0018093BF0156
:100670001092C8011092C7011092C6011092C501D4
:100680008091CB01F7D19093BE018093BD0101977A
:1006900039F49ED09093BE018093BD010197C9F3B8
:1006A0008091BD019091BE01029749F481EC91E0E7
:1006B000FDD29093BE018093BD010297B9F3809162
:1006C000BD019091BE01039709F0A6CF8FEB91E099
:1006D00082D29093BE018093BD010397B9F39CCF62
:1006E000CF93DF932091D0013091D101820F931FDE
:1006F0002CE330E0B9017BD4FC018091CE019091D4
:10070000CF01860F971FB90172D42091CC0130918F
:10071000CD01620F731FF093D101E093D00190934C
:10072000CF018093CE01CB0168E170E060D490935B
:10073000CD018093CC0160E080E001DF8091CC01AD
:100740009091CD01CAE0D0E0BE0151D4CB01BE01F1
:100750004ED4805DC3DE8091CC019091CD01BE016D
:1007600046D4805DBBDE88E6B9DE64E080E0E7DE8B
:100770008091CE019091CF01BE0139D4CB01BE0151
:1007800036D4805DABDE8091CE019091CF01BE0169
:100790002ED4805DA3DE8DE6A1DE68E080E0CFDEB2
:1007A0008091D0019091D101BE0121D4CB01BE0135
:1007B0001ED4805D93DE8091D0019091D101BE0165
:1007C00016D4805D8BDE83E789DEDF91CF910895BB
:1007D0000F931F93CF938C01FADDC82F6091E00136
:1007E00081E0ADDE8091D2019091D301892B79F423
:1007F00060E081E0A4DE8AE691E093DE60E081E0E3
:100800009EDE81E090E09093D3018093D201C111EC
:100810000DC088E01BDE84EF91E099DE8CE016DEEF
:1008200084EF91E094DE81E090E013C18C2F90E0A2
:10083000FC017197E437F10508F0FDC0EA5BFF4F5A
:10084000E9C381E34BDEE091E001F091E101EE0FBD
:10085000FF1FEC52FE4F81E090E091838083EEC059
:1008600082E33CDEE091E001F091E101EE0FFF1F39
:10087000EC52FE4F82E090E091838083DFC083E3FF
:100880002DDEE091E001F091E101EE0FFF1FEC524F
:10089000FE4F83E090E091838083D0C084E31EDE2E
:1008A000E091E001F091E101EE0FFF1FEC52FE4FED
:1008B00084E090E091838083C1C085E30FDEE09106
:1008C000E001F091E101EE0FFF1FEC52FE4F85E0D9
:1008D00090E091838083B2C086E300DEE091E00186
:1008E000F091E101EE0FFF1FEC52FE4F86E090E029
:1008F00091838083A3C087E3F1DDE091E001F09173
:10090000E101EE0FFF1FEC52FE4F87E090E0918374
:10091000808394C088E3E2DDE091E001F091E101A1
:10092000EE0FFF1FEC52FE4F88E090E09183808332
:1009300085C089E3D3DDE091E001F091E101EE0FA4
:10094000FF1FEC52FE4F89E090E09183808376C0D8
:1009500080E3C4DDE091E001F091E101EE0FFF1FC3
:10096000EC52FE4F1182108269C060E081E0E7DD49
:1009700081E791E0D6DD1092E1011092E001F801EB
:1009800011821082E4EDF1E0808191819C01220FBF
:10099000331F880F991F880F991F880F991F820F87
:1009A000931F22813381820F931F9093CD018093F7
:1009B000CC01848195819C01220F331F880F991FE0
:1009C000880F991F880F991F820F931F26813781E7
:1009D000820F931F9093CF018093CE0180859185E4
:1009E0009C01220F331F880F991F880F991F880FB2
:1009F000991F820F931F22853385820F931F909337
:100A0000D1018093D0011092D3011092D20180E0E5
:100A100090E01FC06091E0017091E10161507109A7
:100A20007093E1016093E00181E089DD8FE556DD9F
:100A300081E090E00EC081E090E00BC08091E00189
:100A40009091E10101969093E1018093E00181E0B2
:100A500090E0CF911F910F91089560E080E06FDDED
:100A600088E091E05EDD60E081E069DD89E491E0AD
:100A700058CD0895CF93DF93C82F60E081E05FDD0C
:100A8000C13209F452C0C13409F49AC0C13109F02D
:100A90009CC08091E2019091E3018130910581F445
:100AA0001092E3011092E20189E491E03ADD81E0E5
:100AB00090E09093070180930601C0E0D0E087C0EA
:100AC0008230910591F481E090E09093E30180936E
:100AD000E20187E391E025DD82E090E09093070159
:100AE00080930601C0E0D0E072C0039791F482E0E9
:100AF00090E09093E3018093E20187E291E011DDC1
:100B000083E090E09093070180930601C0E0D0E07D
:100B10005EC089E491E005DD81E090E090930701FB
:100B200080930601C0E0D0E052C0C091E201D091B4
:100B3000E301209781F481E090E09093E3018093BA
:100B4000E20187E391E0EDDC82E090E09093070121
:100B5000809306013CC0C130D10591F482E090E061
:100B60009093E3018093E20187E291E0DADC83E095
:100B700090E09093070180930601C0E0D0E027C089
:100B8000229791F483E090E09093E3018093E20157
:100B900084E191E0C6DC84E090E0909307018093CB
:100BA0000601C0E0D0E013C084E191E0BADC84E04B
:100BB00090E09093070180930601C0E0D0E007C069
:100BC000C0910601D091070102C0C0E0D0E0CE0183
:100BD000DF91CF9108950F931F93CF938C01809154
:100BE000E4019091E501892B71F456DB6AE070E035
:100BF0008091E6019091E70162DB60E080E09FDC9C
:100C000082E891E08EDC81E090E09093E5018093B2
:100C1000E401DDDBC82F6AE070E08091E60190918D
:100C2000E7014DDBC134B9F481E090E0F801918334
:100C3000808360E080E083DC8AEA91E072DC60E03F
:100C400081E07DDC8AEA91E06CDC60E080E077DCCA
:100C500080E090E002C083E090E0CF911F910F917F
:100C600008950F931F93CF938C01C62F15DB8091AE
:100C7000E6019091E701800F911F9093E701809327
:100C8000E6016AE070E01BDBC13119F0C13229F0E6
:100C900007C080E991E045DC03C088E991E041DCD0
:100CA00081E090E0CF911F910F910895CF93DF9352
:100CB000EC018091EA019091EB01892B81F460E0D5
:100CC00080E03DDC82E891E02CDC82E0BFDB8EE05E
:100CD000BDDB81E090E09093EB018093EA0177DB4C
:100CE00090E0FC017197E437F10508F045C1E65446
:100CF000FF4F90C181E3F2DB8091FC019091FD01F7
:100D000001969093FD018093FC01880F991FFC01CF
:100D1000E451FE4F81E090E0918380832DC182E316
:100D2000DDDB8091FC019091FD0101969093FD0126
:100D30008093FC01880F991FFC01E451FE4F82E073
:100D400090E09183808318C183E3C8DB8091FC012C
:100D50009091FD0101969093FD018093FC01880F15
:100D6000991FFC01E451FE4F83E090E09183808362
:100D700003C184E3B3DB8091FC019091FD010196F6
:100D80009093FD018093FC01880F991FFC01E451B1
:100D9000FE4F84E090E091838083EEC085E39EDB8C
:100DA0008091FC019091FD0101969093FD0180934B
:100DB000FC01880F991FFC01E451FE4F85E090E093
:100DC00091838083D9C086E389DB8091FC01909177
:100DD000FD0101969093FD018093FC01880F991FFE
:100DE000FC01E451FE4F86E090E091838083C4C013
:100DF00087E374DB8091FC019091FD010196909353
:100E0000FD018093FC01880F991FFC01E451FE4F06
:100E100087E090E091838083AFC088E35FDB8091BF
:100E2000FC019091FD0101969093FD018093FC01DE
:100E3000880F991FFC01E451FE4F88E090E09183F8
:100E400080839AC089E34ADB8091FC019091FD0187
:100E500001969093FD018093FC01880F991FFC017E
:100E6000E451FE4F89E090E09183808385C080E368
:100E700035DB8091FC019091FD0101969093FD017D
:100E80008093FC01880F991FFC01E451FE4F1182F1
:100E9000108272C080E1DADA8091FC019091FD014C
:100EA00001979093FD018093FC01880F991FFC012D
:100EB000E451FE4F118210825FC08091FC0190913D
:100EC000FD0101969093FD018093FC0184E1BEDA5F
:100ED000E091FC01F091FD01EE0FFF1FE451FE4F88
:100EE0001182108249C01092EB011092EA0160E079
:100EF00080E025DB82EA91E014DB8CE0A7DACCD934
:100F0000ECEEF1E04281538188EE93E0489F90013E
:100F1000499F300D589F300D11244085518564E65E
:100F2000649FC001659F900D1124820F931F22853D
:100F30003385B901660F771FA901440F551F440F70
:100F4000551F440F551F9B01240F351F280F391FB4
:100F500086859785820F931F9093E9018093E8011E
:100F60006AE070E0ACD91092FD011092FC0181E0C2
:100F700090E09983888302C082E090E0DF91CF9176
:100F80000895CF93DF93C091E801D091E901C81B88
:100F9000D90BCE0168EE73E02AD0873E934011F45E
:100FA000C059D140D093E901C093E8016AE070E0F4
:100FB000CE0185D981E090E0CD2B11F480E090E066
:100FC000DF91CF910895AA1BBB1B51E107C0AA1F57
:100FD000BB1FA617B70710F0A61BB70B881F991FDA
:100FE0005A95A9F780959095BC01CD01089597FB7E
:100FF000072E16F4009406D077FD08D0E4DF07FC36
:1010000005D03EF4909581959F4F08957095619518
:101010007F4F0895EE0FFF1F0024001C0BBE0790AA
:0A102000F691E02D0994F894FFCF3B
:10102A0010101010101001003030682030306D2080
:10103A0030307300342E20416C61726D20202020E4
:10104A0020202020202000332E2053746F70205738
:10105A0061746368202000322E2054696D65722005
:10106A00202020202020202000312E2053657420AB
:10107A002020202020202020003F065B4F666D7D27
:10108A00077F6F777C585E7971005F5F5F5F5F5F94
:10109A0000312E20534554202020202020202020BB
:1010AA002000306D2030302E307320202020200088
:1010BA0054455354205550005445535420444F57D7
:1010CA004E00202020202020202020202020202008
:0A10DA00202020202020202000000C
:00000001FF
