:10000000B9C00000D4C00000D2C00000D0C00000C1
:10001000CEC00000CCC00000CAC00000C8C00000B4
:10002000C6C000001AC20000C2C00000C0C000006C
:10003000BEC00000BCC00000BAC00000B9C00000D3
:10004000B6C00000B4C00000B2C00000B0C00000E4
:10005000AEC00000ACC00000AAC00000A8C00000F4
:10006000A6C00000A4C00000A2C00000A0C0000004
:100070009EC000009CC000009AC0000098C0000014
:1000800096C0000094C0000092C00000AF04E403DA
:10009000C004D503C004C004C004C603C004C00427
:1000A000C004C004C004C004C004C004C0041104DF
:1000B000C0040204C004C004C004F303C004C004AC
:1000C000C004C004C004C004C004C004C004C00410
:1000D000C004C004C004C004C004C004C004C00400
:1000E000C004C004C004C004C004C0045A043E04D8
:1000F000C0042F04C004C004C0042004C004C00411
:10010000C004C004C004C004C004C004C004C004CF
:10011000C004C004C004C004C004C004C004C004BF
:10012000C004C004C004C004C004C004C004C004AF
:10013000C004C004C004C004C004C004C004C0049F
:10014000C004C004C004C004C004C004C004C0048F
:10015000C004C004C004C004C004C004C004C0047F
:10016000C004C004C004C004C004C004C004C0046F
:10017000C0044D0411241FBECFEFD0E1DEBFCDBFC0
:1001800011E0A0E0B1E0E6ECFDE000E00BBF02C052
:1001900007900D92AE3AB107D9F721E0AEEAB1E08F
:1001A00001C01D92A53DB207E1F70CD20AC628CFC7
:1001B0001F920F920FB60F9211240BB60F922F932E
:1001C0008F939F93EF93FF9322B380E190E0009091
:1001D000AE0102C0880F991F0A94E2F78095807FD4
:1001E000922F9F70892B82BBE091AE01F091AF01FD
:1001F000EA5FFE4FE081F0E0E958FE4F8081809594
:100200008BBB8091AE019091AF0101968430910536
:1002100029F09093AF018093AE0104C01092AF011A
:100220001092AE01FF91EF919F918F912F910F90BE
:100230000BBE0F900FBE0F901F9018958EEF8093FE
:100240006200000080B18095807F69F423E092E035
:10025000E2E6F0E0892F80958083000080B18095F0
:10026000807F21F001C091E0890F0895990F2150FE
:1002700089F7089580EF809362008FE0809361009A
:100280000895CF93DBDFC82F01C0C82F8FE39CE90F
:100290000197F1F700C000008FE39CE90197F1F7A7
:1002A00000C000008FE39CE90197F1F700C0000057
:1002B000C5DFC813EACF982F907F19F41092B001D0
:1002C00009C09091B001891721F08093B001982F57
:1002D00001C090E0892FCF910895982F907F94606E
:1002E00095BB9B7F95BB20E18202C00111248460F5
:1002F00085BB8B7F85BB85E08A95F1F7000008956B
:10030000CF93C82F85E38A95F1F7000095E39A957E
:10031000F1F7000085E38A95F1F7000095E39A95DF
:10032000F1F7000085E38A95F1F700008C2FD5DF07
:10033000C150C23030F48FE39FE10197F1F700C064
:100340000000CF9108958FEF84BB8FE59AEE01975F
:10035000F1F700C0000080E3C0DF8FE19EE4019769
:10036000F1F700C0000080E3B8DF8FE99FE001975C
:10037000F1F700C0000082E3B0DF88E2C1DF88E06F
:10038000BFDF81E0BDDF86E0BBDF8CE0B9CF089541
:1003900025E32A95F1F7000095E39A95F1F700001F
:1003A00025E32A95F1F7000095E39A95F1F700000F
:1003B00025E32A95F1F70000982F907F956095BB73
:1003C0009B7F95BB20E18202C0011124856085BB23
:1003D0008B7F85BB0895CF93DF93EC0188818823C1
:1003E00029F02196D5DF89918111FCCFDF91CF9142
:1003F000089590E4899F600D1124862F806880CF36
:1004000008950F931F93CF93DF938B0128E082020F
:10041000C0011124806474DFE801085F1F4F8991D7
:10042000B7DFC017D107D9F7DF91CF911F910F9197
:1004300008951816190644F4EFE9FFE03197F1F733
:1004400000C000000197C1F7089585B5886085BD9B
:1004500084E683BD80E887BF08951F920F920FB690
:100460000F9211242F935F936F937F938F939F939A
:10047000AF93BF938091B7019091B801019690938B
:10048000B8018093B70180322EE4920771F4109284
:10049000B8011092B7018091B5019091B601019613
:1004A0009093B6018093B5010EC060ED77E04CD318
:1004B000892B49F08091B3019091B40101969093FA
:1004C000B4018093B301BF91AF919F918F917F91C0
:1004D0006F915F912F910F900FBE0F901F90189505
:1004E0000F931F93CF93DF93CDB7DEB768970FB607
:1004F000F894DEBF0FBECDBF84E190E041D38C0104
:1005000088E0EFE5F1E0DE01119601900D928A9509
:10051000E1F788E0E7E6F1E0DE01199601900D923F
:100520008A95E1F788E0EFE6F1E0DE01519601906F
:100530000D928A95E1F7BE016F5F7F4F81E061DF29
:10054000BE01675F7F4F82E05CDFBE016F5E7F4F61
:1005500083E057DF81E0F801808382E0818383E0DC
:10056000828387E2838383E7848380E2858387E5D0
:10057000868381E6878384E7808783E6818788E6B0
:100580008287138660E080E034DFC80124DF03E067
:1005900010E08CE0B5DE84EF91E04BDF88E0B0DE68
:1005A00084EF91E046DF0150110999F7CCDE68969F
:1005B0000FB6F894DEBF0FBECDBFDF91CF911F9174
:1005C0000F910895C0DE56DE40DF8ADFEBD17894CC
:1005D00085B5826085BD8091B5019091B6012BD023
:1005E0001092B6011092B5014CDEE9D19093B201A0
:1005F0008093B101019749F485EB91E08ED09093FF
:10060000B2018093B1010197B9F38091B10190914A
:10061000B201029701F782E073DE88E891E0DBDE49
:100620008EE06EDE82E06CDE8091B1019091B201CD
:10063000029789F3D0CFCF93DF932091BD01309102
:10064000BE01820F931F2CE330E0B9017DD2FC0183
:100650008091BB019091BC01860F971FB90174D2A4
:100660002091B9013091BA01620F731FF093BE015E
:10067000E093BD019093BC018093BB01CB0168E185
:1006800070E062D29093BA018093B90160E080E09B
:10069000B0DE8091B9019091BA01CAE0D0E0BE010C
:1006A00053D2CB01BE0150D2805D72DE8091B90180
:1006B0009091BA01BE0148D2805D6ADE64E080E0BC
:1006C00098DE8091BB019091BC01BE013DD2CB016F
:1006D000BE013AD2805D5CDE8091BB019091BC018D
:1006E000BE0132D2805D54DE68E080E082DE80911F
:1006F000BD019091BE01BE0127D2CB01BE0124D223
:10070000805D46DE8091BD019091BE01BE011CD28C
:10071000805D3EDEDF91CF9108950F931F93CF93BD
:100720008C01AFDDC82F6091CD0181E062DE809148
:10073000BF019091C001892B79F460E081E059DE1E
:1007400086E991E048DE60E081E053DE81E090E000
:100750009093C0018093BF01C1110DC088E0D0DD2E
:1007600084EF91E066DE8CE0CBDD84EF91E061DE2A
:1007700081E090E013C18C2F90E0FC017197E43789
:10078000F10508F0FDC0EA5BFF4FF1C181E300DE37
:10079000E091CD01F091CE01EE0FFF1FEF53FE4F20
:1007A00081E090E091838083EEC082E3F1DDE0910F
:1007B000CD01F091CE01EE0FFF1FEF53FE4F82E00F
:1007C00090E091838083DFC083E3E2DDE091CD019F
:1007D000F091CE01EE0FFF1FEF53FE4F83E090E04C
:1007E00091838083D0C084E3D3DDE091CD01F0918B
:1007F000CE01EE0FFF1FEF53FE4F84E090E0918398
:100800008083C1C085E3C4DDE091CD01F091CE01CC
:10081000EE0FFF1FEF53FE4F85E090E09183808342
:10082000B2C086E3B5DDE091CD01F091CE01EE0FCF
:10083000FF1FEF53FE4F86E090E091838083A3C0BB
:1008400087E3A6DDE091CD01F091CE01EE0FFF1F11
:10085000EF53FE4F87E090E09183808394C088E35C
:1008600097DDE091CD01F091CE01EE0FFF1FEF5328
:10087000FE4F88E090E09183808385C089E388DD26
:10088000E091CD01F091CE01EE0FFF1FEF53FE4F2F
:1008900089E090E09183808376C080E379DDE09108
:1008A000CD01F091CE01EE0FFF1FEF53FE4F1182ED
:1008B000108269C060E081E09CDD8DE991E08BDD14
:1008C0001092CE011092CD01F80111821082E1EC5C
:1008D000F1E0808191819C01220F331F880F991FC5
:1008E000880F991F880F991F820F931F22813381D0
:1008F000820F931F9093BA018093B90184819581EF
:100900009C01220F331F880F991F880F991F880F92
:10091000991F820F931F26813781820F931F909317
:10092000BC018093BB01808591859C01220F331F00
:10093000880F991F880F991F880F991F820F931F87
:1009400022853385820F931F9093BE018093BD0152
:100950001092C0011092BF0180E090E01FC0609132
:10096000CD017091CE01615071097093CE016093F9
:10097000CD0181E03EDD8FE50BDD81E090E00EC032
:1009800081E090E00BC08091CD019091CE01019665
:100990009093CE018093CD0181E090E0CF911F91A3
:1009A0000F91089560E080E024DD8EE091E013DD9A
:1009B00060E081E01EDD8FE491E00DCD0895CF93DE
:1009C000DF93C82F60E081E014DDC13209F452C02A
:1009D000C13409F49AC0C13109F09CC08091CF01A3
:1009E0009091D0018130910581F41092D001109244
:1009F000CF018FE491E0EFDC81E090E090930D0176
:100A000080930C01C0E0D0E087C08230910591F462
:100A100081E090E09093D0018093CF018DE391E04D
:100A2000DADC82E090E090930D0180930C01C0E04D
:100A3000D0E072C0039791F482E090E09093D001EF
:100A40008093CF018DE291E0C6DC83E090E090934B
:100A50000D0180930C01C0E0D0E05EC08FE491E016
:100A6000BADC81E090E090930D0180930C01C0E02E
:100A7000D0E052C0C091CF01D091D001209781F435
:100A800081E090E09093D0018093CF018DE391E0DD
:100A9000A2DC82E090E090930D0180930C013CC0B9
:100AA000C130D10591F482E090E09093D001809321
:100AB000CF018DE291E08FDC83E090E090930D0117
:100AC00080930C01C0E0D0E027C0229791F483E02E
:100AD00090E09093D0018093CF018AE191E07BDC9C
:100AE00084E090E090930D0180930C01C0E0D0E091
:100AF00013C08AE191E06FDC84E090E090930D01F7
:100B000080930C01C0E0D0E007C0C0910C01D091EF
:100B10000D0102C0C0E0D0E0CE01DF91CF91089579
:100B2000AA1BBB1B51E107C0AA1FBB1FA617B70713
:100B300010F0A61BB70B881F991F5A95A9F780952F
:100B40009095BC01CD01089597FB072E16F40094F3
:100B500006D077FD08D0E4DF07FC05D03EF4909581
:100B600081959F4F0895709561957F4F0895EE0F81
:100B7000FF1F0024001C0BBE0790F691E02D099486
:100B80000F931F93CF93DF938230910510F482E08F
:100B900090E0E091D301F091D40120E030E0A0E0BA
:100BA000B0E0309719F140815181028113814817DB
:100BB0005907C8F08417950769F4109731F0129619
:100BC0000C93129713961C9327C00093D301109394
:100BD000D40122C02115310519F04217530718F42A
:100BE0009A01BD01EF01DF01F801DBCF21153105CD
:100BF000F9F0281B390B2430310580F48A819B8160
:100C00006115710521F0FB019383828304C09093E9
:100C1000D4018093D301FE01329644C0FE01E20F5D
:100C2000F31F8193919322503109398328833AC06D
:100C30002091D1013091D201232B41F42091020166
:100C4000309103013093D2012093D1012091000112
:100C5000309101012115310541F42DB73EB7409186
:100C6000040150910501241B350BE091D101F09155
:100C7000D201E217F307A0F42E1B3F0B2817390708
:100C800078F0AC014E5F5F4F2417350748F04E0FE8
:100C90005F1F5093D2014093D1018193919302C081
:100CA000E0E0F0E0CF01DF91CF911F910F91089527
:100CB000CF93DF93009709F481C0FC013297138230
:100CC0001282A091D301B091D401109781F42081B8
:100CD0003181820F931F2091D1013091D2012817C9
:100CE000390751F5F093D201E093D10167C0ED01CE
:100CF00020E030E0CE17DF0740F44A815B819E019F
:100D000041155105F1F0EA01F5CFD383C28340814B
:100D10005181840F951FC817D90759F4888199818B
:100D2000840F951F0296918380838A819B81938390
:100D300082832115310529F4F093D401E093D30186
:100D40003DC0E901FB83EA8349915991C40FD51F46
:100D5000EC17FD0761F480819181840F951F029645
:100D6000E90199838883828193819B838A83E0E070
:100D7000F0E012968D919C911397009719F0FD0168
:100D8000DC01F7CF8D919C9111979D012E5F3F4F14
:100D9000820F931F2091D1013091D201281739077A
:100DA00069F4309729F41092D4011092D30102C053
:100DB00013821282B093D201A093D101DF91CF911F
:060DC0000895F894FFCF36
:100DC6000000D50120001010101010100100303066
:100DD600682030306D2030307300342E20416C6135
:100DE600726D2020202020202020202000332E205D
:100DF60053746F70205761746368202000322E2070
:100E060054696D657220202020202020202000318A
:100E16002E20536574202020202020202020000230
:100E26001A1F1E021C040402021A0B0A0A020002FE
:100E36001E0A0E080C120C3F065B4F666D7D077F7F
:100E46006F777C585E797100306D2030302E3073AC
:100E56002020202020005F5F5F5F5F5F00312E2033
:0E0E6600534554202020202020202020200052
:00000001FF
