S01300007465726D70726F6A6563742E7372656362
S113000045C0000060C000005EC000005CC000008D
S11300105AC0000058C0000056C0000054C0000080
S113002052C00000A6C100004EC000004CC0000039
S11300304AC0000048C0000046C0000045C000009F
S113004042C0000040C000003EC000003CC00000B0
S11300503AC0000038C0000036C0000034C00000C0
S113006032C0000030C000002EC000002CC00000D0
S11300702AC0000028C0000026C0000024C00000E0
S113008022C0000020C000001EC0000011241FBEBA
S1130090CFEFD0E1DEBFCDBF11E0A0E0B1E0ECEAEC
S11300A0FCE000E00BBF02C007900D92A43AB10738
S11300B0D9F721E0A4EAB1E001C01D92A93CB2073E
S11300C0E1F70CD2F1C59CCF1F920F920FB60F929D
S11300D011240BB60F922F938F939F93EF93FF935B
S11300E022B380E190E00090A40102C0880F991F20
S11300F00A94E2F78095807F922F9F70892B82BBB0
S1130100E091A401F091A501EA5FFE4FE081F0E0E7
S1130110E958FE4F808180958BBB8091A40190911A
S1130120A50101968430910529F09093A50180934F
S1130130A40104C01092A5011092A401FF91EF91B3
S11301409F918F912F910F900BBE0F900FBE0F9028
S11301501F9018958EEF80936200000080B1809507
S1130160807F69F423E092E0E2E6F0E0892F809555
S11301708083000080B18095807F21F001C091E0F0
S1130180890F0895990F215089F7089580EF80937E
S113019062008FE0809361000895CF93DBDFC82F66
S11301A001C0C82F8FE39CE90197F1F700C000005C
S11301B08FE39CE90197F1F700C000008FE39CE90D
S11301C00197F1F700C00000C5DFC813EACF982FEC
S11301D0907F19F41092A60109C09091A601891785
S11301E021F08093A601982F01C090E0892FCF9130
S11301F00895982F907F946095BB9B7F95BB20E1D9
S11302008202C0011124846085BB8B7F85BB85E09D
S11302108A95F1F700000895CF93C82F85E38A9556
S1130220F1F7000095E39A95F1F7000085E38A95CC
S1130230F1F7000095E39A95F1F7000085E38A95BC
S1130240F1F700008C2FD5DFC150C23030F48FE3BA
S11302509FE10197F1F700C00000CF9108958FEF5F
S113026084BB8FE59AEE0197F1F700C0000080E3AC
S1130270C0DF8FE19EE40197F1F700C0000080E346
S1130280B8DF8FE99FE00197F1F700C0000082E337
S1130290B0DF88E2C1DF88E0BFDF81E0BDDF86E058
S11302A0BBDF8CE0B9CF089525E32A95F1F7000070
S11302B095E39A95F1F7000025E32A95F1F70000FC
S11302C095E39A95F1F7000025E32A95F1F70000EC
S11302D0982F907F956095BB9B7F95BB20E1820210
S11302E0C0011124856085BB8B7F85BB0895CF93A6
S11302F0DF93EC018881882329F02196D5DF899149
S11303008111FCCFDF91CF91089590E4899F600D16
S11303101124862F806880CF08950F931F93CF9365
S1130320DF938B0128E08202C0011124806474DF12
S1130330E801085F1F4F8991B7DFC017D107D9F7CC
S1130340DF91CF911F910F9108951816190644F467
S1130350EFE9FFE03197F1F700C000000197C1F722
S1130360089585B5886085BD84E683BD80E887BF30
S113037008951F920F920FB60F9211242F935F933B
S11303806F937F938F939F93AF93BF938091AD01AE
S11303909091AE0101969093AE018093AD018032AD
S11303A02EE4920771F41092AE011092AD01809187
S11303B0AB019091AC0101969093AC018093AB0199
S11303C00EC060ED77E03CD3892B49F08091A90100
S11303D09091AA0101969093AA018093A901BF91DB
S11303E0AF919F918F917F916F915F912F910F901A
S11303F00FBE0F901F9018950F931F93CF93DF9309
S1130400CDB7DEB768970FB6F894DEBF0FBECDBF89
S113041084E190E028D38C0188E0EFE5F1E0DE018F
S1130420119601900D928A95E1F788E0E7E6F1E0F4
S1130430DE01199601900D928A95E1F788E0EFE6C6
S1130440F1E0DE01519601900D928A95E1F7BE012B
S11304506F5F7F4F81E061DFBE01675F7F4F82E0A6
S11304605CDFBE016F5E7F4F83E057DF81E0F80100
S1130470808382E0818383E0828387E2838383E7CE
S1130480848380E2858387E5868381E6878384E7A6
S1130490808783E6818788E68287138660E080E030
S11304A034DFC80124DF03E010E08CE0B5DE84EF24
S11304B091E04BDF88E0B0DE84EF91E046DF01504D
S11304C0110999F7CCDE68960FB6F894DEBF0FBE1B
S11304D0CDBFDF91CF911F910F910895C0DE56DEFD
S11304E040DF8ADFDBD1789485B5826085BD809159
S11304F0AB019091AC012BD01092AC011092AB01E6
S11305004CDED9D19093A8018093A701019749F4B7
S11305108BEA91E08ED09093A8018093A701019774
S1130520B9F38091A7019091A801029701F782E0A5
S113053073DE88E891E0DBDE8EE06EDE82E06CDE66
S11305408091A7019091A801029789F3D0CFCF930E
S1130550DF932091B3013091B401820F931F2CE3F8
S113056030E0B9016DD2FC018091B1019091B201EA
S1130570860F971FB90164D22091AF013091B00169
S1130580620F731FF093B401E093B3019093B2012F
S11305908093B101CB0168E170E052D29093B00135
S11305A08093AF0160E080E0B0DE8091AF01909174
S11305B0B001CAE0D0E0BE0143D2CB01BE0140D2BB
S11305C0805D72DE8091AF019091B001BE0138D29E
S11305D0805D6ADE64E080E098DE8091B1019091F4
S11305E0B201BE012DD2CB01BE012AD2805D5CDEF8
S11305F08091B1019091B201BE0122D2805D54DE9E
S113060068E080E082DE8091B3019091B401BE0184
S113061017D2CB01BE0114D2805D46DE8091B301B6
S11306209091B401BE010CD2805D3EDEDF91CF918A
S113063008950F931F93CF938C01AFDDC82F609162
S1130640C10181E062DEC1110DC088E0E5DD84EF07
S113065091E07BDE8CE0E0DD84EF91E076DE81E00A
S113066090E018C1C83209F44FC078F4C831F9F0E9
S113067028F4C231D1F1C43149F1FEC0C23209F4C7
S113068061C0C43209F44FC0F7C0C43409F478C05F
S113069038F4C13409F49FC0C23409F480C0ECC0FA
S11306A0C83409F45EC0C43809F488C0E5C081E3E5
S11306B0FBDDE091C101F091C201EE0FFF1FEB548D
S11306C0FE4F81E090E091838083D9C082E3ECDD2A
S11306D0E091C101F091C201EE0FFF1FEB54FE4FF8
S11306E082E090E091838083CAC083E3DDDDE09102
S11306F0C101F091C201EE0FFF1FEB54FE4F83E0E6
S113070090E091838083BBC084E3CEDDE091C1019E
S1130710F091C201EE0FFF1FEB54FE4F84E090E016
S113072091838083ACC085E3BFDDE091C101F0918A
S1130730C201EE0FFF1FEB54FE4F85E090E0918362
S113074080839DC086E3B0DDE091C101F091C201D8
S1130750EE0FFF1FEB54FE4F86E090E09183808301
S11307608EC087E3A1DDE091C101F091C201EE0FDB
S1130770FF1FEB54FE4F87E090E0918380837FC09E
S113078088E392DDE091C101F091C201EE0FFF1FF9
S1130790EB54FE4F88E090E09183808370C089E33E
S11307A083DDE091C101F091C201EE0FFF1FEB5414
S11307B0FE4F89E090E09183808361C080E374DD23
S11307C0E091C101F091C201EE0FFF1FEB54FE4F07
S11307D01182108254C060E081E097DD86E991E0E7
S11307E086DD1092C2011092C101F80111821082BB
S11307F0E5EBF1E0808191819C01220F331F880F8A
S1130800991F880F991F880F991F820F931F2281A8
S11308103381820F931F9093B0018093AF01848141
S113082095819C01220F331F880F991F880F991FF0
S1130830880F991F820F931F26813781820F931F80
S11308409093B2018093B101808591859C01220F20
S1130850331F880F991F880F991F880F991F820FC4
S1130860931F22853385820F931F9093B401809345
S1130870B30180E090E00EC081E090E00BC0809175
S1130880C1019091C20101969093C2018093C1016C
S113089081E090E0CF911F910F91089560E080E096
S11308A034DD8EE091E023DD60E081E02EDD8FE435
S11308B091E01DCD0895CF93DF93C82F60E081E0D0
S11308C024DDC13209F452C0C13409F49AC0C131E3
S11308D009F09CC08091C3019091C40181309105BD
S11308E081F41092C4011092C3018FE491E0FFDC03
S11308F081E090E090930D0180930C01C0E0D0E082
S113090087C08230910591F481E090E09093C40116
S11309108093C3018DE391E0EADC82E090E0909360
S11309200D0180930C01C0E0D0E072C0039791F4F4
S113093082E090E09093C4018093C3018DE291E042
S1130940D6DC83E090E090930D0180930C01C0E02D
S1130950D0E05EC08FE491E0CADC81E090E0909347
S11309600D0180930C01C0E0D0E052C0C091C301DE
S1130970D091C401209781F481E090E09093C40168
S11309808093C3018DE391E0B2DC82E090E0909328
S11309900D0180930C013CC0C130D10591F482E07B
S11309A090E09093C4018093C3018DE291E09FDCB9
S11309B083E090E090930D0180930C01C0E0D0E0BF
S11309C027C0229791F483E090E09093C401809330
S11309D0C3018AE191E08BDC84E090E090930D0107
S11309E080930C01C0E0D0E013C08AE191E07FDC89
S11309F084E090E090930D0180930C01C0E0D0E07E
S1130A0007C0C0910C01D0910D0102C0C0E0D0E03C
S1130A10CE01DF91CF910895AA1BBB1B51E107C002
S1130A20AA1FBB1FA617B70710F0A61BB70B881F7A
S1130A30991F5A95A9F780959095BC01CD01089509
S1130A4097FB072E16F4009406D077FD08D0E4DF58
S1130A5007FC05D03EF4909581959F4F08957095BD
S1130A6061957F4F08950F931F93CF93DF93823047
S1130A70910510F482E090E0E091C701F091C80183
S1130A8020E030E0A0E0B0E0309719F140815181DE
S1130A900281138148175907C8F08417950769F430
S1130AA0109731F012960C93129713961C9327C04B
S1130AB00093C7011093C80122C02115310519F014
S1130AC04217530718F49A01BD01EF01DF01F80141
S1130AD0DBCF21153105F9F0281B390B2430310502
S1130AE080F48A819B816115710521F0FB01938358
S1130AF0828304C09093C8018093C701FE0132969B
S1130B0044C0FE01E20FF31F8193919322503109F7
S1130B10398328833AC02091C5013091C601232B23
S1130B2041F420910201309103013093C6012093D6
S1130B30C50120910001309101012115310541F4D5
S1130B402DB73EB74091040150910501241B350B8C
S1130B50E091C501F091C601E217F307A0F42E1B42
S1130B603F0B2817390778F0AC014E5F5F4F24170D
S1130B70350748F04E0F5F1F5093C6014093C501DF
S1130B808193919302C0E0E0F0E0CF01DF91CF9137
S1130B901F910F910895CF93DF93009709F481C0BB
S1130BA0FC01329713821282A091C701B091C8014F
S1130BB0109781F420813181820F931F2091C50108
S1130BC03091C6012817390751F5F093C601E09317
S1130BD0C50167C0ED0120E030E0CE17DF0740F427
S1130BE04A815B819E0141155105F1F0EA01F5CF7F
S1130BF0D383C28340815181840F951FC817D907BD
S1130C0059F488819981840F951F0296918380837A
S1130C108A819B81938382832115310529F4F09382
S1130C20C801E093C7013DC0E901FB83EA83499110
S1130C305991C40FD51FEC17FD0761F48081918190
S1130C40840F951F0296E901998388838281938199
S1130C509B838A83E0E0F0E012968D919C91139738
S1130C60009719F0FD01DC01F7CF8D919C9111974C
S1130C709D012E5F3F4F820F931F2091C50130913C
S1130C80C6012817390769F4309729F41092C8016E
S1130C901092C70102C013821282B093C601A093BE
S10F0CA0C501DF91CF910895F894FFCFB7
S1130CAC0000C90120001010101010100100303089
S1130CBC682030306D2030307300342E20416C614C
S1130CCC726D2020202020202020202000332E2074
S1130CDC53746F70205761746368202000322E2087
S1130CEC54696D65722020202020202020200031A2
S1130CFC2E20536574202020202020202020000248
S1130D0C1A1F1E021C040402021A0B0A0A02000215
S1130D1C1E0A0E080C120C3F065B4F666D7D077F96
S1130D2C6F777C585E797100306D2030302E3073C3
S1130D3C202020202000312E205345542020202018
S1070D4C202000005F
S9030000FC
