S01300007465726D70726F6A6563742E7372656362
S1130000A5C10000C1C10000BFC10000BDC1000006
S1130010BBC10000B9C10000B7C10000B5C10000F8
S1130020B3C10000D0C30000AFC10000ADC10000E7
S1130030ABC10000A9C1000006C200006FC20000ED
S1130040A3C10000A1C100009FC100009DC1000028
S11300509BC1000099C1000097C1000095C1000038
S113006093C1000091C100008FC100008DC1000048
S11300708BC1000089C1000087C1000085C1000058
S113008083C1000081C100007FC100002D068705E7
S1130090B5067205B506B506B5065D05B506B50621
S11300A0B506B506B506B506B506B5064006C605D9
S11300B0B506B105B506B506B5069C05B506B50683
S11300C0B506B506B506B506B506B506B506B50654
S11300D0B506B506B506B506B506B506B506B50644
S11300E0B506B506B506B506B506B5065606050643
S11300F0B506F005B506B506B506DB05B506B506C5
S1130100B506B506B506B506B506B506B506B50613
S1130110B506B506B506B506B506B506B506B50603
S1130120B506B506B506B506B506B506B506B506F3
S1130130B506B506B506B506B506B506B506B506E3
S1130140B506B506B506B506B506B506B506B506D3
S1130150B506B506B506B506B506B506B506B506C3
S1130160B506B506B506B506B506B506AF06B506B9
S1130170B5061A067D08B2079107A30791079107F0
S113018091079407910791079107910791079107A8
S1130190910791079107DF079107D007910791070E
S11301A09107C1079107910791079107910791075B
S11301B0910791079107910791079107910791077B
S11301C0910791079107910791079107910791076B
S11301D09107910728080C089107FD0791079107DB
S11301E09107EE07910791079107910791079107EE
S11301F0910791079107910791079107910791073B
S1130200910791079107910791079107910791072A
S1130210910791079107910791079107910791071A
S1130220910791079107910791079107910791070A
S113023091079107910791079107910791079107FA
S113024091079107910791079107910791079107EA
S1130250910791078E08910791071B08A30DF50CD0
S1130260220EDF0C220E220E220EC90C220E220EAA
S1130270220E220E220E220E220E220EB70D370D52
S1130280220E210D220E220E220E0B0D220E220E04
S1130290220E220E220E220E220E220E220E220EDA
S11302A0220E220E220E220E220E220E220E220ECA
S11302B0220E220E220E220E220E220ECE0D790DB9
S11302C0220E630D220E220E220E4D0D220E220E40
S11302D0220E220E220E220E220E220E220E220E9A
S11302E0220E220E220E220E220E220E220E220E8A
S11302F0220E220E220E220E220E220E220E220E7A
S1130300220E220E220E220E220E220E220E220E69
S1130310220E220E220E220E220E220E220E220E59
S1130320220E220E220E220E220E220E220E220E49
S1130330220E220E220E220E220E220E1C0E220E3F
S1130340220E8F0D220E220E220ECE0D11241FBE60
S1130350CFEFD0E1DEBFCDBF11E0A0E0B1E0E4E437
S1130360FFE100E00BBF02C007900D92A03FB10770
S1130370D9F72AE0A0EFB1E001C01D92A733B2077C
S1130380E1F7DED20C94A00F3BCE8EB582608EBD19
S11303901DBC1CBC87B7846087BF78941092F3019E
S11303A01092F2011092F1011092F00108958FEF72
S11303B082B987BB21E030E03093F1012093F00152
S11303C01092F7011092F6011092F5011092F401C7
S11303D09CEF93B988BBA4EFB1E02EC08091F401E7
S11303E09091F50101968830910529F09093F501DB
S11303F08093F40104C01092F5011092F401E0918D
S1130400F601F091F701E358FE4F808183B9C901E9
S11304100C9002C0880F991F0A94E2F788BB809160
S1130420F6019091F701049739F48FEF83B9109294
S1130430F1011092F00108958091F0019091F10181
S1130440019761F208951F920F920FB60F92112433
S11304508F939F938091F2019091F3010196909371
S1130460F3018093F2014E97FCF08091F601909194
S1130470F7018530910531F001969093F70180934F
S1130480F60104C01092F7011092F6018091F00178
S11304909091F101892B21F41092F7011092F60149
S11304A01092F3011092F2019F918F910F900FBE61
S11304B00F901F90189582B3806F82BB81B3806FB9
S11304C081BB8FEF8ABB88E083BF8EE481BF87B78F
S11304D0826087BF83B7876083BF0895CF93DF931C
S11304E0EB0127B72D7F27BFE6E0F1E0108220E182
S11304F0218322832383248325832BE031E0BE01DF
S11305000E944F0E8193862F972FE217F307B9F7B6
S113051087B7826087BFDF91CF9108951F920F92B2
S11305200FB60F9211240BB60F922F938F939F93B4
S1130530EF93FF9322B380E190E00090F80102C0B2
S1130540880F991F0A94E2F78095807F922F9F70FD
S1130550892B82BBE091F801F091F901EA5FFE4F2B
S1130560E081F0E0EF57FE4F808180958BBB809156
S1130570F8019091F90101968430910529F0909346
S1130580F9018093F80104C01092F9011092F80166
S1130590FF91EF919F918F912F910F900BBE0F9030
S11305A00FBE0F901F9018958EEF8093620000008D
S11305B080B18095807F69F423E092E0E2E6F0E088
S11305C0892F80958083000080B18095807F21F001
S11305D001C091E0890F0895990F215089F708957A
S11305E080EF809362008FE0809361000895CF9341
S11305F0DBDFC82F01C0C82F8FE39CE90197F1F717
S113060000C000008FE39CE90197F1F700C00000EF
S11306108FE39CE90197F1F700C00000C5DFC81320
S1130620EACF982F907F19F41092FA0109C09091A3
S1130630FA01891721F08093FA01982F01C090E004
S1130640892FCF910895982F907F946095BB9B7FBD
S113065095BB20E18202C0011124846085BB8B7F9D
S113066085BB85E08A95F1F700000895CF93C82FE4
S113067085E38A95F1F7000095E39A95F1F7000078
S113068085E38A95F1F7000095E39A95F1F7000068
S113069085E38A95F1F700008C2FD5DFC150C23075
S11306A030F48FE39FE10197F1F700C00000CF9190
S11306B008958FEF84BB8FE59AEE0197F1F700C0A0
S11306C0000080E3C0DF8FE19EE40197F1F700C0F2
S11306D0000080E3B8DF8FE99FE00197F1F700C0E5
S11306E0000082E3B0DF88E2C1DF88E0BFDF81E0A1
S11306F0BDDF86E0BBDF8CE0B9CF089525E32A9502
S1130700F1F7000095E39A95F1F7000025E32A95A7
S1130710F1F7000095E39A95F1F7000025E32A9597
S1130720F1F70000982F907F956095BB9B7F95BB58
S113073020E18202C0011124856085BB8B7F85BBCB
S11307400895CF93DF93EC018881882329F02196C3
S1130750D5DF89918111FCCFDF91CF91089590E489
S1130760899F600D1124862F806880CF08950F9390
S11307701F93CF93DF938B0128E08202C0011124E1
S1130780806474DFE801085F1F4F8991B7DFC017E9
S1130790D107D9F7DF91CF911F910F9108951816C2
S11307A0190644F4EFE9FFE03197F1F700C00000C7
S11307B00197C1F7089585B5886085BD84E683BD3A
S11307C080E887BF08951F920F920FB60F921124ED
S11307D02F935F936F937F938F939F93AF93BF9365
S11307E080910702909108020196909308028093E9
S11307F0070280322EE4920771F4109208021092DC
S113080007028091050290910602019690930602D8
S11308108093050206C060ED77E00E94630E892B89
S113082079F481E090E09093040280930302809134
S113083001029091020201969093020280930102B8
S1130840BF91AF919F918F917F916F915F912F9104
S11308500F900FBE0F901F9018950F931F93CF9377
S1130860DF93CDB7DEB768970FB6F894DEBF0FBE3F
S1130870CDBF84E190E00E947F0E8C0188E0E5E624
S1130880F1E0DE01119601900D928A95E1F788E07E
S1130890EDE6F1E0DE01199601900D928A95E1F7FB
S11308A088E0E5E7F1E0DE01519601900D928A952A
S11308B0E1F7BE016F5F7F4F81E059DFBE01675FE3
S11308C07F4F82E054DFBE016F5E7F4F83E04FDFD6
S11308D081E0F801808382E0818383E0828387E280
S11308E0838383E7848380E2858387E5868381E647
S11308F0878384E7808783E6818788E682871386F7
S113090060E080E02CDFC8011CDF03E010E08CE035
S1130910ADDE84EF91E043DF88E0A8DE84EF91E070
S11309203EDF0150110999F7C4DE68960FB6F894BA
S1130930DEBF0FBECDBFDF91CF911F910F91089500
S1130940CCE0D1E00C2F1D2FB4DE4ADE34DF85DF8E
S1130950F7D3789485B5826085BD6091FD0170916F
S1130960FE01402F512F809105029091060210D272
S11309708091FF0190910002019751F4809103024C
S1130980909104020E94270E909300028093FF012D
S11309908091FD019091FE01019781F428DE682F7A
S11309A08091030290910402D4D49093FE01809329
S11309B0FD011092040210920302CFCF109206029E
S11309C010920502109204021092030210DEC5D3A5
S11309D09093FC018093FB01019749F485E092E038
S11309E077D29093FC018093FB010197B9F3809136
S11309F0FB019091FC01029749F48FEF91E0A0D79D
S1130A009093FC018093FB010297B9F38091FB0161
S1130A109091FC01039749F48DEF91E04FD49093AA
S1130A20FC018093FB010397B9F38091FB01909142
S1130A30FC0184309105D1F41ED09093FC01809385
S1130A40FB0196D1FC018081918199838883828105
S1130A5093819B838A83848195819D838C838091F8
S1130A60FB019091FC018430910531F38D399F4F46
S1130A7009F073CF69CF8091110290911202892BF2
S1130A8081F460E080E06BDE82E991E05ADE82E08E
S1130A90EDDD8EE0EBDD81E090E090931202809337
S1130AA01102A5DD90E0FC017197E437F10508F02F
S1130AB05CC1EA5BFF4F0C94760E81E31FDE8091EC
S1130AC02B0290912C02019690932C0280932B027E
S1130AD0880F991FFC01ED5EFD4F81E090E091834A
S1130AE0808340C182E30ADE80912B0290912C0224
S1130AF0019690932C0280932B02880F991FFC017E
S1130B00ED5EFD4F82E090E0918380832BC183E30F
S1130B10F5DD80912B0290912C02019690932C028A
S1130B2080932B02880F991FFC01ED5EFD4F83E03B
S1130B3090E09183808316C184E3E0DD80912B02F1
S1130B4090912C02019690932C0280932B02880F93
S1130B50991FFC01ED5EFD4F84E090E0918380835A
S1130B6001C185E3CBDD80912B0290912C0201968B
S1130B7090932C0280932B02880F991FFC01ED5E49
S1130B80FD4F85E090E091838083ECC086E3B6DD81
S1130B9080912B0290912C02019690932C028093C9
S1130BA02B02880F991FFC01ED5EFD4F86E090E05B
S1130BB091838083D7C087E3A1DD80912B0290913C
S1130BC02C02019690932C0280932B02880F991F7C
S1130BD0FC01ED5EFD4F87E090E091838083C2C00D
S1130BE088E38CDD80912B0290912C0201969093E6
S1130BF02C0280932B02880F991FFC01ED5EFD4FA0
S1130C0088E090E091838083ADC089E377DD8091B3
S1130C102B0290912C02019690932C0280932B022C
S1130C20880F991FFC01ED5EFD4F89E090E09183F0
S1130C30808398C080E362DD80912B0290912C0226
S1130C40019690932C0280932B02880F991FFC012C
S1130C50ED5EFD4F1182108285C080E107DD809139
S1130C602B0290912C02019790932C0280932B02DB
S1130C70880F991FFC01ED5EFD4F1182108275C033
S1130C8080912B0290912C02019690932C028093D8
S1130C902B0284E1EBDCE0912B02F0912C02EE0FAD
S1130CA0FF1FED5EFD4F118210825FC01092120291
S1130CB01092110260E080E052DD86EA91E041DDAD
S1130CC08CE0D4DCE3E1F2E0828593859C01220F81
S1130CD0331F880F991F880F991F880F991F820F40
S1130CE0931F44855585480F591F828993899C0118
S1130CF0220F331F880F991F880F991F880F991F80
S1130D00820F931F24893589280F391FA9E0B2E087
S1130D1082819381BC01660F771F880F991F880F0A
S1130D20991F880F991F860F971F64817581860FFD
S1130D30971F11969C938E9313965C934E931297E0
S1130D4015963C932E93149781E090E090931002B3
S1130D5080930F0210922C0210922B0208958DE9B9
S1130D609FEF089584E090E0089584E090E0089572
S1130D7080910F0290911002019739F410921002A1
S1130D8010920F0289E092E0089580E090E00895C7
S1130D90FF920F931F93CF93DF93EB01FA012091FE
S1130DA0310230913202820F931F2CE330E0B901FB
S1130DB08AD7F82E492F80912F0290913002860F06
S1130DC0971FB90180D720912D0230912E02620F16
S1130DD0731F0F2D142FF092310240933202282FEB
S1130DE0392F80932F0290933002CB0168E170E099
S1130DF06AD790932E0280932D02408151818417EB
S1130E00950799F4828193812817390771F48481B5
S1130E1095810817190749F460E081E0A0DC8DEBA7
S1130E2091E08FDC8EB582608EBDCD2B09F04AC077
S1130E3060E080E094DC80912D0290912E02CAE063
S1130E40D0E0BE0140D7CB01BE013DD7805D56DC6A
S1130E5080912D0290912E02BE0135D7805D4EDC2B
S1130E6088E64CDC64E080E07ADC80912F0290918B
S1130E703002BE0128D7CB01BE0125D7805D3EDC00
S1130E8080912F0290913002BE011DD7805D36DC27
S1130E908DE634DC68E080E062DC80913102909180
S1130EA03202BE0110D7CB01BE010DD7805D26DC16
S1130EB08091310290913202BE0105D7805D1EDC23
S1130EC083E71CDCDF91CF911F910F91FF90089570
S1130ED00F931F93CF938C018ADBC82F609141023B
S1130EE081E03DDC8091330290913402892B79F4C6
S1130EF060E081E034DC89EC91E023DC60E081E0B7
S1130F002EDC81E090E090933402809333028C2FA6
S1130F1090E0FC017197E437F10518F4E654FF4FB3
S1130F20E5C681E090E008C181E3E8DBE09141029D
S1130F30F0914202EE0FFF1FEB5CFD4F81E090E069
S1130F4091838083EEC082E3D9DBE0914102F0918A
S1130F504202EE0FFF1FEB5CFD4F82E090E09183B5
S1130F608083DFC083E3CADBE0914102F091420257
S1130F70EE0FFF1FEB5CFD4F83E090E091838083D5
S1130F80D0C084E3BBDBE0914102F0914202EE0F5A
S1130F90FF1FEB5CFD4F84E090E091838083C1C030
S1130FA085E3ACDBE0914102F0914202EE0FFF1FBA
S1130FB0EB5CFD4F85E090E091838083B2C086E3D3
S1130FC09DDBE0914102F0914202EE0FFF1FEB5CCA
S1130FD0FD4F86E090E091838083A3C087E38EDB9E
S1130FE0E0914102F0914202EE0FFF1FEB5CFD4FD6
S1130FF087E090E09183808394C088E37FDBE09175
S11310004102F0914202EE0FFF1FEB5CFD4F88E0BE
S113101090E09183808385C089E370DBE091410295
S1131020F0914202EE0FFF1FEB5CFD4F89E090E070
S11310309183808376C080E361DBE0914102F0918B
S11310404202EE0FFF1FEB5CFD4F1182108269C05C
S113105060E081E084DB80ED91E073DB109242027A
S113106010924102F80111821082E5E3F2E08081DE
S113107091819C01220F331F880F991F880F991F9C
S1131080880F991F820F931F22813381820F931F30
S113109090932E0280932D02848195819C01220FCE
S11310A0331F880F991F880F991F880F991F820F6C
S11310B0931F26813781820F931F90933002809370
S11310C02F02808591859C01220F331F880F991F61
S11310D0880F991F880F991F820F931F22853385CC
S11310E0820F931F90933202809331021092340244
S11310F01092330280E090E01FC060914102709131
S1131100420261507109709342026093410281E08E
S113111026DB8FE5F3DA81E090E00EC08DE99FEFE6
S11311200BC0809141029091420201969093420239
S11311308093410281E090E0CF911F910F91089537
S113114060E080E00CDB84E191E0FBDA60E081E0C8
S113115006DB85E591E0F5CA0895CF93DF93C82FA8
S113116060E081E0FCDAC13209F452C0C13409F410
S11311709AC0C13109F09CC080914302909144020D
S11311808130910581F4109244021092430285E566
S113119091E0D7DA81E090E09093130180931201FB
S11311A0C0E0D0E087C08230910591F481E090E006
S11311B0909344028093430283E491E0C2DA82E094
S11311C090E09093130180931201C0E0D0E072C0CC
S11311D0039791F482E090E0909344028093430259
S11311E083E391E0AEDA83E090E09093130180937F
S11311F01201C0E0D0E05EC085E591E0A2DA81E0B2
S113120090E09093130180931201C0E0D0E052C0AB
S1131210C0914302D0914402209781F481E090E090
S1131220909344028093430283E491E08ADA82E05B
S113123090E090931301809312013CC0C130D1051A
S113124091F482E090E0909344028093430283E31C
S113125091E077DA83E090E0909313018093120198
S1131260C0E0D0E027C0229791F483E090E090930F
S113127044028093430280E291E063DA84E090E0E8
S11312809093130180931201C0E0D0E013C080E278
S113129091E057DA84E090E0909313018093120177
S11312A0C0E0D0E007C0C0911201D091130102C088
S11312B0C0E0D0E0CE01DF91CF9108950F931F934A
S11312C0CF938C018091490290914A02892B71F449
S11312D0F2D86AE070E080911B0A90911C0AFED853
S11312E060E080E03CDA81EE91E02BDA81E090E08E
S11312F090934A02809349027AD9C82F6AE070E039
S113130080911B0A90911C0AE9D8C13429F0C13894
S1131310D1F083E090E019C081E090E0F80191837E
S1131320808360E080E01BDA8EEA91E00ADA60E014
S113133081E015DA8EEA91E004DA60E080E00FDA09
S113134080E090E002C08DE99FEFCF911F910F9153
S11313500895CF92DF92EF92FF920F931F93CF9352
S1131360DF938C01C62FA7D8809147029091480241
S1131370892B09F0D2C280911B0A90911C0A800F1C
S1131380911F883522E0920711F488EE93E0909340
S11313901C0A80931B0A6AE070E0A0D8C13209F4E9
S11313A0D5C1C13809F4B0C2C13119F0C1E0D0E0EF
S11313B0BDC28091470290914802892B09F016C161
S11313C08FEF80936400C5E6D0E08FE0888384E6E5
S11313D090E0E5D9188280914502909146028230CE
S11313E091050CF052C060E0BAD980911B0A90912B
S11313F01C0AE0914502F0914602EE0FFF1FE55BE7
S1131400FD4F91838083C8EED3E0BE015CD480E3BA
S1131410860F74D98DE672D980E270D9E0914502C5
S1131420F0914602EE0FFF1FE55BFD4F8081918135
S1131430BE0149D4C4E6D0E0BE0145D480E3860FA2
S11314405DD9E0914502F0914602EE0FFF1FE55B86
S1131450FD4F80819181BE0136D4CAE0D0E0BE0147
S113146032D480E3860F4AD98EE248D9E09145020E
S1131470F0914602EE0FFF1FE55BFD4F80819181E5
S1131480BE0121D4805D3AD9A5C0880F991FFC0103
S1131490E55BFD4F80911B0A90911C0A9183808328
S11314A060E080E05CD9E0914502F0914602EE0FE5
S11314B0FF1FE75BFD4F808191810F2EF8EEEF2E29
S11314C0F3E0FF2EF02DB701FED380E3860F16D98B
S11314D08DE614D980E212D9E0914502F0914602DA
S11314E0EE0FFF1FE75BFD4F80819181B701EBD3C6
S11314F004E610E0B801E7D380E3860FFFD8E0915B
S11315004502F0914602EE0FFF1FE75BFD4F80811D
S11315109181B801D8D3CAE0D0E0BE01D4D380E32E
S1131520860FECD88EE2EAD8E0914502F0914602AB
S1131530EE0FFF1FE75BFD4F80819181BE01C3D396
S1131540805DDCD860E081E00AD9E0914502F09149
S11315504602EE0FFF1FE55BFD4F80819181B701CD
S1131560B2D380E3860FCAD88DE6C8D880E2C6D845
S1131570E0914502F0914602EE0FFF1FE55BFD4F3F
S113158080819181B7019FD3B8019DD380E3860FF9
S1131590B5D8E0914502F0914602EE0FFF1FE55BDE
S11315A0FD4F80819181B8018ED3BE018CD380E33D
S11315B0860FA4D88EE2A2D8E0914502F0914602AB
S11315C0EE0FFF1FE55BFD4F80819181BE017BD350
S11315D0805D94D880914502909146020196909343
S11315E0460280934502C1E0D0E0A0C1809145024B
S11315F09091460202970CF48AC160E080E0AFD873
S1131600E0914502F0914602EE0FFF1FE95BFD4FAA
S1131610808191810F2EF8EEEF2EF3E0FF2EF02D56
S1131620B70151D380E3860F69D88DE667D880E28D
S113163065D8E0914502F0914602EE0FFF1FE95B89
S1131640FD4F80819181B7013ED304E610E0B801DB
S11316503AD380E3860F52D8E0914502F0914602D6
S1131660EE0FFF1FE95BFD4F80819181B8012BD301
S1131670CAE0D0E0BE0127D380E3860F3FD88EE2D4
S11316803DD8E0914502F0914602EE0FFF1FE95B61
S1131690FD4F80819181BE0116D3805D2FD860E01B
S11316A081E05DD8E0914502F0914602EE0FFF1F04
S11316B0E75BFD4F80819181B70105D380E3860FFD
S11316C01DD88DE61BD880E219D8E0914502F0912F
S11316D04602EE0FFF1FE75BFD4F80819181B7014A
S11316E0F2D2B801F0D280E3860F08D8E091450227
S11316F0F0914602EE0FFF1FE75BFD4F8081918161
S1131700B801E1D2BE01DFD280E3860F0E947E03DE
S11317108EE20E947E03E0914502F0914602EE0FB4
S1131720FF1FE75BFD4F80819181BE01CCD2805DBC
S11317300E947E0380914502909146020197909306
S1131740460280934502C1E0D0E0F0C0C091470258
S1131750D0914802C130D10509F0C4C0E0914502DE
S1131760F0914602EE0FFF1FE35BFD4F80819181F4
S1131770892B09F4DBC060E080E00E94AF03E091B4
S11317804502F0914602EE0FFF1FE55BFD4F80819D
S113179091810F2EF8EECF2EF3E0DF2EF02DB6015F
S11317A092D280E3860F0E947E038DE60E947E0320
S11317B080E20E947E03E0914502F0914602EE0F22
S11317C0FF1FE55BFD4F80819181B6017CD20F2E16
S11317D0F4E6EF2EF12CF02DB70175D280E3860FDD
S11317E00E947E03E0914502F0914602EE0FFF1F36
S11317F0E55BFD4F80819181B70165D20AE010E07D
S1131800B80161D280E3860F0E947E038EE20E94BB
S11318107E03E0914502F0914602EE0FFF1FE55B67
S1131820FD4F80819181B8014ED2805D0E947E037C
S113183060E081E00E94AF03E0914502F09146022E
S1131840EE0FFF1FE35BFD4F80819181B6013BD218
S113185080E3860F0E947E038DE60E947E0380E271
S11318600E947E03E0914502F0914602EE0FFF1FB5
S1131870E35BFD4F80819181B60125D2B70123D26C
S113188080E3860F0E947E03E0914502F0914602B8
S1131890EE0FFF1FE35BFD4F80819181B70113D2EF
S11318A0B80111D280E3860F0E947E038EE20E946B
S11318B07E03E0914502F0914602EE0FFF1FE35BC9
S11318C0FD4F80819181B801FED1805D0E947E032D
S11318D0809145029091460201969093460280932E
S11318E0450224C081E090E090934802809347022F
S11318F0809145029091460201979093460280930D
S11319004502C1E0D0E012C0CDE9DFEF0FC0C1E075
S1131910D0E00CC0CDE9DFEF09C0C13209F416CF25
S1131920C138C1F3C13109F041CD60CECE01DF91A0
S1131930CF911F910F91FF90EF90DF90CF9008957A
S1131940CF93DF93EC0180911F0A9091200A892B99
S1131950A1F460E080E00E94AF0381EE91E00E9478
S1131960A10382E00E9436038EE00E94360381E0E8
S113197090E09093200A80931F0A0E94F70290E05F
S1131980FC017197E837F10508F05CC1E25DFE4F98
S1131990ADC181E30E947E038091310A9091320AA5
S11319A001969093320A8093310A880F991FFC01A3
S11319B0EF5DF54F81E090E09183808340C182E345
S11319C00E947E038091310A9091320A019690938D
S11319D0320A8093310A880F991FFC01EF5DF54F9D
S11319E082E090E0918380832AC183E30E947E0396
S11319F08091310A9091320A01969093320A809331
S1131A00310A880F991FFC01EF5DF54F83E090E0E8
S1131A109183808314C184E30E947E038091310A00
S1131A209091320A01969093320A8093310A880F7A
S1131A30991FFC01EF5DF54F84E090E09183808372
S1131A40FEC085E30E947E038091310A9091320AA0
S1131A5001969093320A8093310A880F991FFC01F2
S1131A60EF5DF54F85E090E091838083E8C086E3E5
S1131A700E947E038091310A9091320A01969093DC
S1131A80320A8093310A880F991FFC01EF5DF54FEC
S1131A9086E090E091838083D2C087E30E947E0336
S1131AA08091310A9091320A01969093320A809380
S1131AB0310A880F991FFC01EF5DF54F87E090E034
S1131AC091838083BCC088E30E947E038091310AA5
S1131AD09091320A01969093320A8093310A880FCA
S1131AE0991FFC01EF5DF54F88E090E091838083BE
S1131AF0A6C089E30E947E038091310A9091320A44
S1131B0001969093320A8093310A880F991FFC0141
S1131B10EF5DF54F89E090E09183808390C080E38E
S1131B200E947E038091310A9091320A019690932B
S1131B30320A8093310A880F991FFC01EF5DF54F3B
S1131B40118210827CC080E10E9436038091310AA8
S1131B509091320A01979093320A8093310A880F48
S1131B60991FFC01EF5DF54F118210826BC08091CB
S1131B70310A9091320A01969093320A8093310A85
S1131B8084E10E943603E091310AF091320AEE0FAB
S1131B90FF1FEF5DF54F1182108254C01092200A8E
S1131BA010921F0A60E080E00E94AF0386EA91E091
S1131BB00E94A1038CE00E9436030E945B02E1E2D2
S1131BC0FAE04281538188EE93E0489F9001499F57
S1131BD0300D589F300D11244085518564E6649F73
S1131BE0C001659F900D1124820F931F22853385B8
S1131BF0B901660F771FA901440F551F440F551FE4
S1131C00440F551F9B01240F351F280F391F86854C
S1131C109785820F931F90931E0A80931D0A6AE092
S1131C2070E00E946E021092320A1092310A81E032
S1131C3090E09983888308C08DE99FEF05C082E016
S1131C4090E002C082E090E0DF91CF910895CF93BD
S1131C50DF93C0911D0AD0911E0AC81BD90BCE0177
S1131C6068EE73E030D0873E934011F4C059D14000
S1131C70D0931E0AC0931D0A6AE070E0CE010E9450
S1131C806E02CD2B39F40E94C5010E94D70180E079
S1131C9090E002C081E090E0DF91CF910895AA1B0B
S1131CA0BB1B51E107C0AA1FBB1FA617B70710F043
S1131CB0A61BB70B881F991F5A95A9F78095909575
S1131CC0BC01CD01089597FB072E16F4009406D0AD
S1131CD077FD08D0E4DF07FC05D03EF490958195AC
S1131CE09F4F0895709561957F4F0895EE0FFF1FE4
S1131CF00024001C0BBE0790F691E02D09940F936D
S1131D001F93CF93DF938230910510F482E090E02B
S1131D10E091350AF091360A20E030E0A0E0B0E02E
S1131D20309719F140815181028113814817590775
S1131D30C8F08417950769F4109731F012960C9344
S1131D40129713961C9327C00093350A1093360AF2
S1131D5022C02115310519F04217530718F49A01CE
S1131D60BD01EF01DF01F801DBCF21153105F9F0E9
S1131D70281B390B2430310580F48A819B8161153D
S1131D80710521F0FB019383828304C09093360A8A
S1131D908093350AFE01329644C0FE01E20FF31F20
S1131DA08193919322503109398328833AC0209139
S1131DB0330A3091340A232B41F4209102013091EB
S1131DC003013093340A2093330A209100013091A7
S1131DD001012115310541F42DB73EB740910401AD
S1131DE050910501241B350BE091330AF091340A1C
S1131DF0E217F307A0F42E1B3F0B2817390778F0DE
S1131E00AC014E5F5F4F2417350748F04E0F5F1F3C
S1131E105093340A4093330A8193919302C0E0E0D3
S1131E20F0E0CF01DF91CF911F910F910895CF93EF
S1131E30DF93009709F481C0FC0132971382128268
S1131E40A091350AB091360A109781F4208131812E
S1131E50820F931F2091330A3091340A28173907CF
S1131E6051F5F093340AE093330A67C0ED0120E0A2
S1131E7030E0CE17DF0740F44A815B819E014115B3
S1131E805105F1F0EA01F5CFD383C283408151813A
S1131E90840F951FC817D90759F488819981840F35
S1131EA0951F0296918380838A819B819383828389
S1131EB02115310529F4F093360AE093350A3DC023
S1131EC0E901FB83EA8349915991C40FD51FEC17AB
S1131ED0FD0761F480819181840F951F0296E901C9
S1131EE099838883828193819B838A83E0E0F0E0F5
S1131EF012968D919C911397009719F0FD01DC01C6
S1131F00F7CF8D919C9111979D012E5F3F4F820FCA
S1131F10931F2091330A3091340A2817390769F442
S1131F20309729F41092360A1092350A02C01382AF
S1131F301282B093340AA093330ADF91CF910895AB
S1071F40F894FFCF3F
S1131F440000370A2000101010101010FFFF0000CA
S1131F54000001003030682030306D2030307300D0
S1131F64342E20416C61726D2020202020202020FA
S1131F74202000332E2053746F70205761746368DB
S1131F84202000322E2054696D65722020202020E8
S1131F942020202000312E2053657420202020206E
S1131FA42020202000021A1F1E021C040402021A0C
S1131FB40B0A0A0200021E0A0E080C120CFCF3CFD0
S1131FC43F3F065B4F666D7D077F6F777C585E7974
S1131FD471003030682030306D2030307320202080
S1131FE42020202020002020202020202020202009
S1131FF420202020202020202020202000416C614B
S1132004726D20416C657274005F5F5F5F5F5F0097
S1132014312E20534554202020202020202020200D
S113202400306D2030302E3073202020202000001A
S9030000FC
