:100000002DC1000049C1000047C1000045C10000EA
:1000100043C1000041C100003FC100003DC10000DC
:100020003BC10000AAC2000037C1000035C100007A
:1000300033C1000031C100002FC1000061C10000C8
:100040002BC1000029C1000027C1000025C100000C
:1000500023C1000021C100001FC100001DC100001C
:100060001BC1000019C1000017C1000015C100002C
:1000700013C1000011C100000FC100000DC100003C
:100080000BC1000009C1000007C1000011054604B2
:10009000220537042205220522052804220522050F
:1000A00022052205220522052205220522057304C8
:1000B0002205640422052205220555042205220595
:1000C00022052205220522052205220522052205F8
:1000D00022052205220522052205220522052205E8
:1000E000220522052205220522052205BC04A004C2
:1000F00022059104220522052205820422052205FB
:1001000022052205220522052205220522052205B7
:1001100022052205220522052205220522052205A7
:100120002205220522052205220522052205220597
:100130002205220522052205220522052205220587
:100140002205220522052205220522052205220577
:100150002205220522052205220522052205220567
:100160002205220522052205220522052205220557
:100170002205AF04E70941095B0A2C095B0A5B0A07
:100180005B0A17095B0A5B0A5B0A5B0A5B0A5B0A8C
:100190005B0A5B0AFA0980095B0A6B095B0A5B0A66
:1001A0005B0A56095B0A5B0A5B0A5B0A5B0A5B0A2D
:1001B0005B0A5B0A5B0A5B0A5B0A5B0A5B0A5B0A17
:1001C0005B0A5B0A5B0A5B0A5B0A5B0A5B0A5B0A07
:1001D0005B0A5B0A100ABF095B0AAA095B0A5B0A91
:1001E0005B0A95095B0A5B0A5B0A5B0A5B0A5B0AAE
:1001F0005B0A5B0A5B0A5B0A5B0A5B0A5B0A5B0AD7
:100200005B0A5B0A5B0A5B0A5B0A5B0A5B0A5B0AC6
:100210005B0A5B0A5B0A5B0A5B0A5B0A5B0A5B0AB6
:100220005B0A5B0A5B0A5B0A5B0A5B0A5B0A5B0AA6
:100230005B0A5B0A5B0A5B0A5B0A5B0A5B0A5B0A96
:100240005B0A5B0A5B0A5B0A5B0A5B0A5B0A5B0A86
:100250005B0A5B0A5B0A5B0A5B0AD40911241FBEB6
:10026000CFEFD0E1DEBFCDBF11E0A0E0B1E0EAE624
:10027000F5E100E00BBF02C007900D92A83AB1076C
:10028000D9F729E0A8EAB1E001C01D92AF3BB2075F
:10029000E1F7BCD10C94B30AB3CE82B3806F82BBBA
:1002A00081B3806F81BB8FEF8ABB88E083BF8EE410
:1002B00081BF87B7826087BF83B7876083BF089598
:1002C000CF93DF93EB0127B72D7F27BFE0E0F1E06D
:1002D000108220E12183228323832483258325E048
:1002E00031E0BE010E94830A8193862F972FE21787
:1002F000F307B9F787B7826087BFDF91CF91089581
:100300001F920F920FB60F9211240BB60F922F93DC
:100310008F939F93EF93FF9322B380E190E000903F
:10032000A80102C0880F991F0A94E2F78095807F88
:10033000922F9F70892B82BBE091A801F091A901B7
:10034000E050FF4FE081F0E0E75AFE4F808180955A
:100350008BBB8091A8019091A901019684309105F1
:1003600029F09093A9018093A80104C01092A901DB
:100370001092A801FF91EF919F918F912F910F9073
:100380000BBE0F900FBE0F901F9018958EEF8093AD
:100390006200000080B18095807F69F423E092E0E4
:1003A000E2E6F0E0892F80958083000080B180959F
:1003B000807F21F001C091E0890F0895990F2150AD
:1003C00089F7089580EF809362008FE08093610049
:1003D0000895CF93DBDFC82F01C0C82F8FE39CE9BE
:1003E0000197F1F700C000008FE39CE90197F1F756
:1003F00000C000008FE39CE90197F1F700C0000006
:10040000C5DFC813EACF982F907F19F41092AA0184
:1004100009C09091AA01891721F08093AA01982F11
:1004200001C090E0892FCF910895982F907F94601C
:1004300095BB9B7F95BB20E18202C00111248460A3
:1004400085BB8B7F85BB85E08A95F1F70000089519
:10045000CF93C82F85E38A95F1F7000095E39A952D
:10046000F1F7000085E38A95F1F7000095E39A958E
:10047000F1F7000085E38A95F1F700008C2FD5DFB6
:10048000C150C23030F48FE39FE10197F1F700C013
:100490000000CF9108958FEF84BB8FE59AEE01970E
:1004A000F1F700C0000080E3C0DF8FE19EE4019718
:1004B000F1F700C0000080E3B8DF8FE99FE001970B
:1004C000F1F700C0000082E3B0DF88E2C1DF88E01E
:1004D000BFDF81E0BDDF86E0BBDF8CE0B9CF0895F0
:1004E00025E32A95F1F7000095E39A95F1F70000CE
:1004F00025E32A95F1F7000095E39A95F1F70000BE
:1005000025E32A95F1F70000982F907F956095BB21
:100510009B7F95BB20E18202C0011124856085BBD1
:100520008B7F85BB0895CF93DF93EC01888188236F
:1005300029F02196D5DF89918111FCCFDF91CF91F0
:10054000089590E4899F600D1124862F806880CFE4
:1005500008951816190644F4EFE9FFE03197F1F712
:1005600000C000000197C1F7089585B5886085BD7A
:1005700084E683BD80E887BF08951F920F920FB66F
:100580000F9211242F935F936F937F938F939F9379
:10059000AF93BF938091B7019091B801019690936A
:1005A000B8018093B70180322EE4920771F4109263
:1005B000B8011092B7018091B5019091B6010196F2
:1005C0009093B6018093B50105C060ED77E0AFD799
:1005D000892B79F481E090E09093B4018093B3018A
:1005E0008091B1019091B20101969093B2018093F4
:1005F000B101BF91AF919F918F917F916F915F9169
:100600002F910F900FBE0F901F90189544DFDADEE8
:10061000ACDF2AD2789485B5826085BD6091AD014A
:100620007091AE018091B5019091B6015CD080913E
:10063000AF019091B001019749F48091B30190917D
:10064000B4013ED79093B0018093AF018091AD018A
:100650009091AE01019781F4BCDE682F8091B301C7
:100660009091B40105D39093AE018093AD011092A7
:10067000B4011092B301D2CF1092B6011092B5011D
:100680001092B4011092B301A4DEFBD19093AC019F
:100690008093AB01019739F4A2D09093AC01809381
:1006A000AB010197C9F38091AB019091AC01029726
:1006B00049F48FEA91E097D59093AC018093AB0118
:1006C0000297B9F38091AB019091AC01039709F0C7
:1006D000A5CF8DEA91E086D29093AC018093AB01D7
:1006E0000397B9F39BCFCF93DF93FB012091BD011B
:1006F0003091BE01820F931F2CE330E0B90117D770
:10070000EC018091BB019091BC01860F971FB9014C
:100710000ED72091B9013091BA01620F731FD093A7
:10072000BE01C093BD019093BC018093BB01CB017E
:1007300068E170E0FCD69093BA018093B901EF2B89
:1007400009F04AC060E080E0FCDE8091B901909140
:10075000BA01CAE0D0E0BE01EAD6CB01BE01E7D6BD
:10076000805DBEDE8091B9019091BA01BE01DFD6F5
:10077000805DB6DE88E6B4DE64E080E0E2DE809193
:10078000BB019091BC01BE01D2D6CB01BE01CFD638
:10079000805DA6DE8091BB019091BC01BE01C7D6F1
:1007A000805D9EDE8DE69CDE68E080E0CADE8091A2
:1007B000BD019091BE01BE01BAD6CB01BE01B7D634
:1007C000805D8EDE8091BD019091BE01BE01AFD6ED
:1007D000805D86DE83E784DEDF91CF9108950F93FD
:1007E0001F93CF938C01F5DDC82F6091CD0181E07F
:1007F000A8DE8091BF019091C001892B79F460E05F
:1008000081E09FDE8AE691E08EDE60E081E099DEA5
:1008100081E090E09093C0018093BF01C1110DC0B1
:1008200088E016DE84EF91E094DE8CE011DE84EF48
:1008300091E08FDE81E090E013C18C2F90E0FC010D
:100840007197E437F10508F0FDC0EA5BFF4F82C6FF
:1008500081E346DEE091CD01F091CE01EE0FFF1F66
:10086000EF53FE4F81E090E091838083EEC082E3FE
:1008700037DEE091CD01F091CE01EE0FFF1FEF5377
:10088000FE4F82E090E091838083DFC083E328DE27
:10089000E091CD01F091CE01EE0FFF1FEF53FE4F1F
:1008A00083E090E091838083D0C084E319DEE091FF
:1008B000CD01F091CE01EE0FFF1FEF53FE4F84E00C
:1008C00090E091838083C1C085E30ADEE091CD0191
:1008D000F091CE01EE0FFF1FEF53FE4F85E090E049
:1008E00091838083B2C086E3FBDDE091CD01F0917E
:1008F000CE01EE0FFF1FEF53FE4F86E090E0918395
:100900008083A3C087E3ECDDE091CD01F091CE01BF
:10091000EE0FFF1FEF53FE4F87E090E0918380833F
:1009200094C088E3DDDDE091CD01F091CE01EE0FC2
:10093000FF1FEF53FE4F88E090E09183808385C0D6
:1009400089E3CEDDE091CD01F091CE01EE0FFF1FE6
:10095000EF53FE4F89E090E09183808376C080E37F
:10096000BFDDE091CD01F091CE01EE0FFF1FEF53FF
:10097000FE4F1182108269C060E081E0E2DD81E714
:1009800091E0D1DD1092CE011092CD01F8011182DB
:100990001082E1ECF1E0808191819C01220F331FF4
:1009A000880F991F880F991F880F991F820F931F17
:1009B00022813381820F931F9093BA018093B901F2
:1009C000848195819C01220F331F880F991F880F06
:1009D000991F880F991F820F931F26813781820FDD
:1009E000931F9093BC018093BB01808591859C01EE
:1009F000220F331F880F991F880F991F880F991F87
:100A0000820F931F22853385820F931F9093BE011F
:100A10008093BD011092C0011092BF0180E090E070
:100A20001FC06091CD017091CE016150710970932A
:100A3000CE016093CD0181E084DD8FE551DD81E061
:100A400090E00EC081E090E00BC08091CD019091CC
:100A5000CE0101969093CE018093CD0181E090E08C
:100A6000CF911F910F91089560E080E06ADD88E0EA
:100A700091E059DD60E081E064DD89E491E053CDEF
:100A80000895CF93DF93C82F60E081E05ADDC13233
:100A900009F452C0C13409F49AC0C13109F09CC0B4
:100AA0008091CF019091D0018130910581F4109215
:100AB000D0011092CF0189E491E035DD81E090E032
:100AC0009093070180930601C0E0D0E087C0823098
:100AD000910591F481E090E09093D0018093CF0153
:100AE00087E391E020DD82E090E09093070180931E
:100AF0000601C0E0D0E072C0039791F482E090E07C
:100B00009093D0018093CF0187E291E00CDD83E0E8
:100B100090E09093070180930601C0E0D0E05EC0B2
:100B200089E491E000DD81E090E0909307018093FB
:100B30000601C0E0D0E052C0C091CF01D091D001F9
:100B4000209781F481E090E09093D0018093CF01D1
:100B500087E391E0E8DC82E090E0909307018093E6
:100B600006013CC0C130D10591F482E090E0909341
:100B7000D0018093CF0187E291E0D5DC83E090E063
:100B80009093070180930601C0E0D0E027C0229730
:100B900091F483E090E09093D0018093CF0184E1C1
:100BA00091E0C1DC84E090E090930701809306011E
:100BB000C0E0D0E013C084E191E0B5DC84E090E0D7
:100BC0009093070180930601C0E0D0E007C0C09178
:100BD0000601D091070102C0C0E0D0E0CE01DF9154
:100BE000CF9108950F931F93CF938C018091D501DE
:100BF0009091D601892B71F450DB6AE070E080910E
:100C0000A7099091A8095CDB60E080E09ADC82E8AB
:100C100091E089DC81E090E09093D6018093D5014A
:100C2000D8DBC82F6AE070E08091A7099091A809ED
:100C300047DBC134B9F481E090E0F801918380830F
:100C400060E080E07EDC88E991E06DDC60E081E0DE
:100C500078DC88E991E067DC60E080E072DC80E0CD
:100C600090E002C083E090E0CF911F910F91089532
:100C7000EF92FF920F931F93CF93DF938C01C62FB8
:100C80000CDB8091D3019091D401892B09F09CC297
:100C90008091A7099091A809800F911F883522E0C3
:100CA000920711F488EE93E09093A8098093A70926
:100CB0006AE070E005DBC13121F0C13209F4BCC14A
:100CC00089C28091D3019091D401892B09F009C187
:100CD0008091D1019091D201823091050CF052C0E7
:100CE00060E02FDC8091A7099091A809E091D101E3
:100CF000F091D201EE0FFF1FE952FE4F91838083E6
:100D0000C8EED3E0BE0113D480E3860FE9DB8DE6A5
:100D1000E7DB80E2E5DBE091D101F091D201EE0F5B
:100D2000FF1FE952FE4F80819181BE0100D4C4E6CD
:100D3000D0E0BE01FCD380E3860FD2DBE091D1018D
:100D4000F091D201EE0FFF1FE952FE4F8081918199
:100D5000BE01EDD3CAE0D0E0BE01E9D380E3860F47
:100D6000BFDB8EE2BDDBE091D101F091D201EE0F4D
:100D7000FF1FE952FE4F80819181BE01D8D3805D73
:100D8000AFDBA5C0880F991FFC01E952FE4F80918F
:100D9000A7099091A8099183808360E080E0D1DB6E
:100DA000E091D101F091D201EE0FFF1FEB52FE4F07
:100DB000808191810F2EF8EEEF2EF3E0FF2EF02DC3
:100DC000B701B5D380E3860F8BDB8DE689DB80E24C
:100DD00087DBE091D101F091D201EE0FFF1FEB52C2
:100DE000FE4F80819181B701A2D3C4E6D0E0BE015D
:100DF0009ED380E3860F74DBE091D101F091D201A4
:100E0000EE0FFF1FEB52FE4F80819181BE018FD309
:100E10000AE010E0B8018BD380E3860F61DB8EE23D
:100E20005FDBE091D101F091D201EE0FFF1FEB5299
:100E3000FE4F80819181B8017AD3805D51DB60E003
:100E400081E07FDBE091D101F091D201EE0FFF1F35
:100E5000E952FE4F80819181B70169D380E3860F0B
:100E60003FDB8DE63DDB80E23BDBE091D101F091A1
:100E7000D201EE0FFF1FE952FE4F80819181B70131
:100E800056D3BE0154D380E3860F2ADBE091D10113
:100E9000F091D201EE0FFF1FE952FE4F8081918148
:100EA000BE0145D3B80143D380E3860F19DB8EE240
:100EB00017DBE091D101F091D201EE0FFF1FE95253
:100EC000FE4F80819181B80132D3805D09DB809132
:100ED000D1019091D20101969093D2018093D101DA
:100EE00079C18091D1019091D20102970CF472C125
:100EF00060E080E026DBE091D101F091D201EE0FBD
:100F0000FF1FED52FE4F808191810F2EF8EEEF2EE4
:100F1000F3E0FF2EF02DB7010AD380E3860FE0DA6D
:100F20008DE6DEDA80E2DCDAE091D101F091D201E7
:100F3000EE0FFF1FED52FE4F80819181B701F7D276
:100F400004E610E0B801F3D280E3860FC9DAE0913D
:100F5000D101F091D201EE0FFF1FED52FE4F8081C3
:100F60009181B801E4D2CAE0D0E0BE01E0D280E3D2
:100F7000860FB6DA8EE2B4DAE091D101F091D201B7
:100F8000EE0FFF1FED52FE4F80819181BE01CFD247
:100F9000805DA6DA60E081E0D4DAE091D101F091E1
:100FA000D201EE0FFF1FEB52FE4F80819181B701FE
:100FB000BED280E3860F94DA8DE692DA80E290DA90
:100FC000E091D101F091D201EE0FFF1FEB52FE4FE5
:100FD00080819181B701ABD2B801A9D280E3860F9D
:100FE0007FDAE091D101F091D201EE0FFF1FEB52B9
:100FF000FE4F80819181B8019AD2BE0198D280E3E0
:10100000860F6EDA8EE26CDAE091D101F091D201B6
:10101000EE0FFF1FEB52FE4F80819181BE0187D200
:10102000805D5EDA8091D1019091D2010197909319
:10103000D2018093D101CEC08091D3019091D4018F
:10104000019709F0B1C0E091D101F091D201EE0F0A
:10105000FF1FE752FE4F80819181892B09F4BAC0AE
:1010600060E080E06EDAE091D101F091D201EE0F04
:10107000FF1FE952FE4F808191810F2EF8EEEF2E77
:10108000F3E0FF2EF02DB70152D280E3860F28DA6D
:101090008DE626DA80E224DAE091D101F091D201E6
:1010A000EE0FFF1FE952FE4F80819181B7013FD2C1
:1010B00004E610E0B8013BD280E3860F11DAE0913C
:1010C000D101F091D201EE0FFF1FE952FE4F808156
:1010D0009181B8012CD2CAE0D0E0BE0128D280E3D1
:1010E000860FFED98EE2FCD9E091D101F091D201B8
:1010F000EE0FFF1FE952FE4F80819181BE0117D292
:10110000805DEED960E081E01CDAE091D101F091E0
:10111000D201EE0FFF1FE752FE4F80819181B70190
:1011200006D280E3860FDCD98DE6DAD980E2D8D901
:10113000E091D101F091D201EE0FFF1FE752FE4F77
:1011400080819181B701F3D1B801F1D180E3860F9D
:10115000C7D9E091D101F091D201EE0FFF1FE75204
:10116000FE4F80819181B801E2D1BE01E0D180E3E0
:10117000860FB6D98EE2B4D9E091D101F091D201B7
:10118000EE0FFF1FE752FE4F80819181BE01CFD14C
:10119000805DA6D98091D1019091D2010196909362
:1011A000D2018093D10116C081E090E09093D401E8
:1011B0008093D3018091D1019091D20101979093B6
:1011C000D2018093D10106C0C13109F48ACEC13267
:1011D00009F432CF81E090E0DF91CF911F910F9120
:1011E000FF90EF900895CF93DF93EC018091AB09CE
:1011F0009091AC09892B81F460E080E0A2D982E86B
:1012000091E091D982E024D98EE022D981E090E06A
:101210009093AC098093AB09DCD890E0FC01719706
:10122000E437F10508F047C1E654FF4F93C181E36D
:1012300057D98091BD099091BE0901969093BE093E
:101240008093BD09880F991FFC01E355F64F81E09B
:1012500090E0918380832FC182E342D98091BD09C0
:101260009091BE0901969093BE098093BD09880FA5
:10127000991FFC01E355F64F82E090E09183808353
:101280001AC183E32DD98091BD099091BE090196C1
:101290009093BE098093BD09880F991FFC01E35507
:1012A000F64F83E090E09183808305C184E318D9F1
:1012B0008091BD099091BE0901969093BE098093DB
:1012C000BD09880F991FFC01E355F64F84E090E0BB
:1012D00091838083F0C085E303D98091BD0990910B
:1012E000BE0901969093BE098093BD09880F991F8E
:1012F000FC01E355F64F85E090E091838083DBC0ED
:1013000086E3EED88091BD099091BE090196909335
:10131000BE098093BD09880F991FFC01E355F64F64
:1013200086E090E091838083C6C087E3D9D880911E
:10133000BD099091BE0901969093BE098093BD09A5
:10134000880F991FFC01E355F64F87E090E09183E9
:101350008083B1C088E3C4D88091BD099091BE0953
:1013600001969093BE098093BD09880F991FFC01D7
:10137000E355F64F88E090E0918380839CC089E339
:10138000AFD88091BD099091BE0901969093BE0996
:101390008093BD09880F991FFC01E355F64F89E042
:1013A00090E09183808387C080E39AD88091BD09C3
:1013B0009091BE0901969093BE098093BD09880F54
:1013C000991FFC01E355F64F1182108274C080E131
:1013D0003FD88091BD099091BE0901979093BE09B5
:1013E0008093BD09880F991FFC01E355F64F1182C8
:1013F000108261C08091BD099091BE0901969093C1
:10140000BE098093BD0984E123D8E091BD09F09124
:10141000BE09EE0FFF1FE355F64F118210824BC03D
:101420001092AC091092AB0960E080E08AD880E9A4
:1014300091E079D88CE00CD80E944D01EDEAF9E0FA
:101440004281538188EE93E0489F9001499F300D7F
:10145000589F300D11244085518564E6649FC0017A
:10146000659F900D1124820F931F22853385B9014A
:10147000660F771FA901440F551F440F551F440FD6
:10148000551F9B01240F351F280F391F868597850F
:10149000820F931F9093AA098093A9096AE070E0D4
:1014A0000E9460011092BE091092BD0981E090E097
:1014B0009983888302C082E090E0DF91CF91089504
:1014C000CF93DF93C091A909D091AA09C81BD90B6A
:1014D000CE0168EE73E02BD0873E934011F4C059E3
:1014E000D140D093AA09C093A9096AE070E0CE0167
:1014F0000E94600181E090E0CD2B11F480E090E04B
:10150000DF91CF910895AA1BBB1B51E107C0AA1F11
:10151000BB1FA617B70710F0A61BB70B881F991F94
:101520005A95A9F780959095BC01CD01089597FB38
:10153000072E16F4009406D077FD08D0E4DF07FCF0
:1015400005D03EF4909581959F4F089570956195D3
:101550007F4F0895EE0FFF1F0024001C0BBE079065
:0A156000F691E02D0994F894FFCFF6
:10156A0010101010101001003030682030306D203B
:10157A0030307300342E20416C61726D202020209F
:10158A0020202020202000332E2053746F702057F3
:10159A0061746368202000322E2054696D657220C0
:1015AA00202020202020202000312E205365742066
:1015BA002020202020202020003F065B4F666D7DE2
:1015CA00077F6F777C585E7971005F5F5F5F5F5F4F
:1015DA0000312E2053455420202020202020202076
:1015EA002000306D2030302E307320202020200043
:1015FA0020202020202020202020202020202020E1
:08160A00202020202020000018
:00000001FF
