S01300007465726D70726F6A6563742E7372656362
S11300002DC1000049C1000047C1000045C10000E6
S113001043C1000041C100003FC100003DC10000D8
S11300203BC10000AAC2000037C1000035C1000076
S113003033C1000031C100002FC1000061C10000C4
S11300402BC1000029C1000027C1000025C1000008
S113005023C10000C8C500001FC100001DC100006D
S11300601BC1000019C1000017C1000015C1000028
S113007013C1000011C100000FC100000DC1000038
S11300800BC1000009C1000007C1000012054704AC
S11300902305380423052305230529042305230503
S11300A023052305230523052305230523057404BC
S11300B02305650423052305230556042305230589
S11300C023052305230523052305230523052305EC
S11300D023052305230523052305230523052305DC
S11300E0230523052305230523052305BD04A104B6
S11300F023059204230523052305830423052305EF
S113010023052305230523052305230523052305AB
S1130110230523052305230523052305230523059B
S1130120230523052305230523052305230523058B
S1130130230523052305230523052305230523057B
S1130140230523052305230523052305230523056B
S1130150230523052305230523052305230523055B
S1130160230523052305230523052305230523054B
S11301702305B0040F0A6909850A5409850A850A0A
S1130180850A3F09850A850A850A850A850A850A3A
S1130190850A850A220AA809850A9309850A850A17
S11301A0850A7E09850A850A850A850A850A850ADB
S11301B0850A850A850A850A850A850A850A850AC3
S11301C0850A850A850A850A850A850A850A850AB3
S11301D0850A850A390AE709850AD209850A850A42
S11301E0850ABD09850A850A850A850A850A850A5C
S11301F0850A850A850A850A850A850A850A850A83
S1130200850A850A850A850A850A850A850A850A72
S1130210850A850A850A850A850A850A850A850A62
S1130220850A850A850A850A850A850A850A850A52
S1130230850A850A850A850A850A850A850A850A42
S1130240850A850A850A850A850A850A850A850A32
S1130250850A850A850A850A850AFC0911241FBEB8
S1130260CFEFD0E1DEBFCDBF11E0A0E0B1E0EEEB17
S1130270F5E100E00BBF02C007900D92A83AB10768
S1130280D9F729E0A8EAB1E001C01D92A13CB20768
S1130290E1F7BCD10C94DD0AB3CE82B3806F82BB8C
S11302A081B3806F81BB8FEF8ABB88E083BF8EE40C
S11302B081BF87B7826087BF83B7876083BF089594
S11302C0CF93DF93EB0127B72D7F27BFE0E0F1E069
S11302D0108220E12183228323832483258325E044
S11302E031E0BE010E94AD0A8193862F972FE21759
S11302F0F307B9F787B7826087BFDF91CF9108957D
S11303001F920F920FB60F9211240BB60F922F93D8
S11303108F939F93EF93FF9322B380E190E000903B
S1130320A80102C0880F991F0A94E2F78095807F84
S1130330922F9F70892B82BBE091A801F091A901B3
S1130340E050FF4FE081F0E0E75AFE4F8081809556
S11303508BBB8091A8019091A901019684309105ED
S113036029F09093A9018093A80104C01092A901D7
S11303701092A801FF91EF919F918F912F910F906F
S11303800BBE0F900FBE0F901F9018958EEF8093A9
S11303906200000080B18095807F69F423E092E0E0
S11303A0E2E6F0E0892F80958083000080B180959B
S11303B0807F21F001C091E0890F0895990F2150A9
S11303C089F7089580EF809362008FE08093610045
S11303D00895CF93DBDFC82F01C0C82F8FE39CE9BA
S11303E00197F1F700C000008FE39CE90197F1F752
S11303F000C000008FE39CE90197F1F700C0000002
S1130400C5DFC813EACF982F907F19F41092AA0180
S113041009C09091AA01891721F08093AA01982F0D
S113042001C090E0892FCF910895982F907F946018
S113043095BB9B7F95BB20E18202C001112484609F
S113044085BB8B7F85BB85E08A95F1F70000089515
S1130450CF93C82F85E38A95F1F7000095E39A9529
S1130460F1F7000085E38A95F1F7000095E39A958A
S1130470F1F7000085E38A95F1F700008C2FD5DFB2
S1130480C150C23030F48FE39FE10197F1F700C00F
S11304900000CF9108958FEF84BB8FE59AEE01970A
S11304A0F1F700C0000080E3C0DF8FE19EE4019714
S11304B0F1F700C0000080E3B8DF8FE99FE0019707
S11304C0F1F700C0000082E3B0DF88E2C1DF88E01A
S11304D0BFDF81E0BDDF86E0BBDF8CE0B9CF0895EC
S11304E025E32A95F1F7000095E39A95F1F70000CA
S11304F025E32A95F1F7000095E39A95F1F70000BA
S113050025E32A95F1F70000982F907F956095BB1D
S11305109B7F95BB20E18202C0011124856085BBCD
S11305208B7F85BB0895CF93DF93EC01888188236B
S113053029F02196D5DF89918111FCCFDF91CF91EC
S1130540089590E4899F600D1124862F806880CFE0
S113055008951816190644F4EFE9FFE03197F1F70E
S113056000C000000197C1F7089585B5886085BD76
S113057084E683BD80E887BF08951F920F920FB66B
S11305800F9211242F935F936F937F938F939F9375
S1130590AF93BF938091B7019091B8010196909366
S11305A0B8018093B70180322EE4920771F410925F
S11305B0B8011092B7018091B5019091B6010196EE
S11305C09093B6018093B50105C060ED77E0D9D76B
S11305D0892B79F481E090E09093B4018093B30186
S11305E08091B1019091B20101969093B2018093F0
S11305F0B101BF91AF919F918F917F916F915F9165
S11306002F910F900FBE0F901F90189544DFDADEE4
S1130610ACDF17BA2AD2789485B5826085BD609123
S1130620AD017091AE018091B5019091B6015CD09D
S11306308091AF019091B001019749F48091B30189
S11306409091B40167D79093B0018093AF018091EA
S1130650AD019091AE01019781F4BBDE682F8091CA
S1130660B3019091B40124D39093AE018093AD0172
S11306701092B4011092B301D2CF1092B60110922D
S1130680B5011092B4011092B301A3DEFBD1909393
S1130690AC018093AB01019739F4A2D09093AC01E3
S11306A08093AB010197C9F38091AB019091AC01A8
S11306B0029749F48FEA91E0BED59093AC01809300
S11306C0AB010297B9F38091AB019091AC01039710
S11306D009F0A5CF8DEA91E0A5D29093AC01809367
S11306E0AB010397B9F39BCFCF93DF93FB01209129
S11306F0BD013091BE01820F931F2CE330E0B9019C
S113070040D7EC018091BB019091BC01860F971FEB
S1130710B90137D72091B9013091BA01620F731F23
S1130720D093BE01C093BD019093BC018093BB01E3
S1130730CB0168E170E025D79093BA018093B901A9
S1130740EF2B09F04AC060E080E0FBDE8091B90144
S11307509091BA01CAE0D0E0BE0113D7CB01BE012B
S113076010D7805DBDDE8091B9019091BA01BE01C0
S113077008D7805DB5DE88E6B3DE64E080E0E1DEC4
S11307808091BB019091BC01BE01FBD6CB01BE019F
S1130790F8D6805DA5DE8091BB019091BC01BE01BD
S11307A0F0D6805D9DDE8DE69BDE68E080E0C9DEEC
S11307B08091BD019091BE01BE01E3D6CB01BE0183
S11307C0E0D6805D8DDE8091BD019091BE01BE01B9
S11307D0D8D6805D85DE83E783DEDF91CF910895EF
S11307E00F931F93CF938C01F4DDC82F6091CD013B
S11307F081E0A7DE8091BF019091C001892B79F43B
S113080060E081E09EDE8AE691E08DDE60E081E0DA
S113081098DE81E090E09093C0018093BF01C11104
S11308200DC088E015DE84EF91E093DE8CE010DEED
S113083084EF91E08EDE81E090E013C18C2F90E094
S1130840FC017197E437F10508F0FDC0EA5BFF4F46
S1130850ABC681E345DEE091CD01F091CE01EE0F10
S1130860FF1FEF53FE4F81E090E091838083EEC041
S113087082E336DEE091CD01F091CE01EE0FFF1F51
S1130880EF53FE4F82E090E091838083DFC083E3E7
S113089027DEE091CD01F091CE01EE0FFF1FEF5363
S11308A0FE4F83E090E091838083D0C084E318DE20
S11308B0E091CD01F091CE01EE0FFF1FEF53FE4FFB
S11308C084E090E091838083C1C085E309DEE091F8
S11308D0CD01F091CE01EE0FFF1FEF53FE4F85E0E7
S11308E090E091838083B2C086E3FADDE091CD018C
S11308F0F091CE01EE0FFF1FEF53FE4F86E090E024
S113090091838083A3C087E3EBDDE091CD01F09177
S1130910CE01EE0FFF1FEF53FE4F87E090E091836F
S1130920808394C088E3DCDDE091CD01F091CE01B9
S1130930EE0FFF1FEF53FE4F88E090E0918380831A
S113094085C089E3CDDDE091CD01F091CE01EE0FBC
S1130950FF1FEF53FE4F89E090E09183808376C0C0
S113096080E3BEDDE091CD01F091CE01EE0FFF1FDB
S1130970EF53FE4F1182108269C060E081E0E1DD37
S113098081E791E0D0DD1092CE011092CD01F80103
S113099011821082E1ECF1E0808191819C01220FAF
S11309A0331F880F991F880F991F880F991F820F73
S11309B0931F22813381820F931F9093BA018093F6
S11309C0B901848195819C01220F331F880F991FDF
S11309D0880F991F880F991F820F931F26813781D3
S11309E0820F931F9093BC018093BB0180859185F6
S11309F09C01220F331F880F991F880F991F880F9E
S1130A00991F820F931F22853385820F931F909322
S1130A10BE018093BD011092C0011092BF0180E01D
S1130A2090E01FC06091CD017091CE0161507109B9
S1130A307093CE016093CD0181E083DD8FE550DDBD
S1130A4081E090E00EC081E090E00BC08091CD0188
S1130A509091CE0101969093CE018093CD0181E0D7
S1130A6090E0CF911F910F91089560E080E069DDDF
S1130A7088E091E058DD60E081E063DD89E491E0A5
S1130A8052CD0895CF93DF93C82F60E081E059DD04
S1130A90C13209F452C0C13409F49AC0C13109F019
S1130AA09CC08091CF019091D0018130910581F457
S1130AB01092D0011092CF0189E491E034DD81E0FD
S1130AC090E09093070180930601C0E0D0E087C0D6
S1130AD08230910591F481E090E09093D00180936D
S1130AE0CF0187E391E01FDD82E090E0909307015E
S1130AF080930601C0E0D0E072C0039791F482E0D5
S1130B0090E09093D0018093CF0187E291E00BDDD8
S1130B1083E090E09093070180930601C0E0D0E069
S1130B205EC089E491E0FFDC81E090E090930701EE
S1130B3080930601C0E0D0E052C0C091CF01D091B3
S1130B40D001209781F481E090E09093D0018093CC
S1130B50CF0187E391E0E7DC82E090E09093070126
S1130B60809306013CC0C130D10591F482E090E04D
S1130B709093D0018093CF0187E291E0D4DC83E0AD
S1130B8090E09093070180930601C0E0D0E027C075
S1130B90229791F483E090E09093D0018093CF0169
S1130BA084E191E0C0DC84E090E0909307018093BD
S1130BB00601C0E0D0E013C084E191E0B4DC84E03D
S1130BC090E09093070180930601C0E0D0E007C055
S1130BD0C0910601D091070102C0C0E0D0E0CE016F
S1130BE0DF91CF9108951F920F920FB60F921124A7
S1130BF08F939F9384B195B1969587959695879594
S1130C009BBD8ABD8091D1019091D20101969093B0
S1130C10D2018093D1019F918F910F900FBE0F90BD
S1130C201F9018950F931F93CF938C018091D70138
S1130C309091D801892B71F430DB6AE070E08091E7
S1130C40A9099091AA093CDB60E080E07ADC82E8A3
S1130C5091E069DC81E090E09093D8018093D70122
S1130C60B8DBC82F6AE070E08091A9099091AA09C5
S1130C7027DBC134B9F481E090E0F80191838083EB
S1130C8060E080E05EDC88E991E04DDC60E081E0DA
S1130C9058DC88E991E047DC60E080E052DC80E0E9
S1130CA090E002C083E090E0CF911F910F910895EE
S1130CB0EF92FF920F931F93CF93DF938C01C62F74
S1130CC0ECDA8091D5019091D601892B09F0A4C268
S1130CD08091A9099091AA09800F911F883522E07B
S1130CE0920711F488EE93E09093AA098093A909DE
S1130CF06AE070E0E5DAC13121F0C13209F4C4C11F
S1130D0091C28091D5019091D601892B09F011C12E
S1130D10BD9A81E88FBD83E08EBD8FEA86B9369A8D
S1130D208091D3019091D401823091050CF052C08E
S1130D3060E007DC8091A9099091AA09E091D301B0
S1130D40F091D401EE0FFF1FE752FE4F9183808391
S1130D50C8EED3E0BE0115D480E3860FC1DB8DE677
S1130D60BFDB80E2BDDBE091D301F091D401EE0F53
S1130D70FF1FE752FE4F80819181BE0102D4C4E679
S1130D80D0E0BE01FED380E3860FAADBE091D3015D
S1130D90F091D401EE0FFF1FE752FE4F8081918145
S1130DA0BE01EFD3CAE0D0E0BE01EBD380E3860FEF
S1130DB097DB8EE295DBE091D301F091D401EE0F45
S1130DC0FF1FE752FE4F80819181BE01DAD3805D1F
S1130DD087DBA5C0880F991FFC01E752FE4F809165
S1130DE0A9099091AA099183808360E080E0A9DB3E
S1130DF0E091D301F091D401EE0FFF1FE952FE4FB1
S1130E00808191810F2EF8EEEF2EF3E0FF2EF02D6E
S1130E10B701B7D380E3860F63DB8DE661DB80E245
S1130E205FDBE091D301F091D401EE0FFF1FE95293
S1130E30FE4F80819181B701A4D3C4E6D0E0BE0106
S1130E40A0D380E3860F4CDBE091D301F091D40171
S1130E50EE0FFF1FE952FE4F80819181BE0191D3B5
S1130E600AE010E0B8018DD380E3860F39DB8EE20F
S1130E7037DBE091D301F091D401EE0FFF1FE9526B
S1130E80FE4F80819181B8017CD3805D29DB60E0D5
S1130E9081E057DBE091D301F091D401EE0FFF1F05
S1130EA0E752FE4F80819181B7016BD380E3860FB7
S1130EB017DB8DE615DB80E213DBE091D301F091C3
S1130EC0D401EE0FFF1FE752FE4F80819181B701DD
S1130ED058D3BE0156D380E3860F02DBE091D301E1
S1130EE0F091D401EE0FFF1FE752FE4F80819181F4
S1130EF0BE0147D3B80145D380E3860FF1DA8EE211
S1130F00EFDAE091D301F091D401EE0FFF1FE75225
S1130F10FE4F80819181B80134D3805DE1DA809104
S1130F20D3019091D40101969093D4018093D3017D
S1130F3079C18091D3019091D40102970CF472C1CC
S1130F4060E080E0FEDAE091D301F091D401EE0F8D
S1130F50FF1FEB52FE4F808191810F2EF8EEEF2E92
S1130F60F3E0FF2EF02DB7010CD380E3860FB8DA3F
S1130F708DE6B6DA80E2B4DAE091D301F091D401DF
S1130F80EE0FFF1FEB52FE4F80819181B701F9D222
S1130F9004E610E0B801F5D280E3860FA1DAE0910F
S1130FA0D301F091D401EE0FFF1FEB52FE4F80816D
S1130FB09181B801E6D2CAE0D0E0BE01E2D280E37A
S1130FC0860F8EDA8EE28CDAE091D301F091D401AF
S1130FD0EE0FFF1FEB52FE4F80819181BE01D1D2F3
S1130FE0805D7EDA60E081E0ACDAE091D301F091DB
S1130FF0D401EE0FFF1FE952FE4F80819181B701AA
S1131000C0D280E3860F6CDA8DE66ADA80E268DAB1
S1131010E091D301F091D401EE0FFF1FE952FE4F8E
S113102080819181B701ADD2B801ABD280E3860F44
S113103057DAE091D301F091D401EE0FFF1FE9528A
S1131040FE4F80819181B8019CD2BE019AD280E387
S1131050860F46DA8EE244DAE091D301F091D401AE
S1131060EE0FFF1FE952FE4F80819181BE0189D2AC
S1131070805D36DA8091D3019091D40101979093E9
S1131080D4018093D301CEC08091D5019091D60133
S1131090019709F0B1C0E091D301F091D401EE0FB2
S11310A0FF1FE552FE4F80819181892B09F4BAC05C
S11310B060E080E046DAE091D301F091D401EE0FD4
S11310C0FF1FE752FE4F808191810F2EF8EEEF2E25
S11310D0F3E0FF2EF02DB70154D280E3860F00DA3F
S11310E08DE6FED980E2FCD9E091D301F091D401E0
S11310F0EE0FFF1FE752FE4F80819181B70141D26D
S113110004E610E0B8013DD280E3860FE9D9E0910E
S1131110D301F091D401EE0FFF1FE752FE4F8081FF
S11311209181B8012ED2CAE0D0E0BE012AD280E378
S1131130860FD6D98EE2D4D9E091D301F091D401AF
S1131140EE0FFF1FE752FE4F80819181BE0119D23D
S1131150805DC6D960E081E0F4D9E091D301F091DB
S1131160D401EE0FFF1FE552FE4F80819181B7013C
S113117008D280E3860FB4D98DE6B2D980E2B0D923
S1131180E091D301F091D401EE0FFF1FE552FE4F21
S113119080819181B701F5D1B801F3D180E3860F45
S11311A09FD9E091D301F091D401EE0FFF1FE552D6
S11311B0FE4F80819181B801E4D1BE01E2D180E388
S11311C0860F8ED98EE28CD9E091D301F091D401AF
S11311D0EE0FFF1FE552FE4F80819181BE01D1D1F8
S11311E0805D7ED98091D3019091D4010196909332
S11311F0D4018093D30116C081E090E09093D6018E
S11312008093D5018091D3019091D401019790935B
S1131210D4018093D30106C0C13109F48ACEC1320E
S113122009F432CF81E090E0DF91CF911F910F91CB
S1131230FF90EF900895CF93DF93EC018091AD0977
S11312409091AE09892B81F460E080E07AD982E83C
S113125091E069D982E0FCD88EE0FAD881E090E090
S11312609093AE098093AD09B4D890E0FC017197D6
S1131270E437F10508F049C1E654FF4F95C181E315
S11312802FD98091BF099091C00901969093C0090C
S11312908093BF09880F991FFC01E155F64F81E047
S11312A090E09183808331C182E31AD98091BF0990
S11312B09091C00901969093C0098093BF09880F4B
S11312C0991FFC01E155F64F82E090E09183808301
S11312D01CC183E305D98091BF099091C00901968F
S11312E09093C0098093BF09880F991FFC01E155B1
S11312F0F64F83E090E09183808307C184E3F0D8C4
S11313008091BF099091C00901969093C009809380
S1131310BF09880F991FFC01E155F64F84E090E066
S113132091838083F2C085E3DBD88091BF099091DB
S1131330C00901969093C0098093BF09880F991F33
S1131340FC01E155F64F85E090E091838083DDC098
S113135086E3C6D88091BF099091C0090196909305
S1131360C0098093BF09880F991FFC01E155F64F0E
S113137086E090E091838083C8C087E3B1D88091F0
S1131380BF099091C00901969093C0098093BF0949
S1131390880F991FFC01E155F64F87E090E0918397
S11313A08083B3C088E39CD88091BF099091C00921
S11313B001969093C0098093BF09880F991FFC017F
S11313C0E155F64F88E090E0918380839EC089E3E5
S11313D087D88091BF099091C00901969093C00964
S11313E08093BF09880F991FFC01E155F64F89E0EE
S11313F090E09183808389C080E372D88091BF0993
S11314009091C00901969093C0098093BF09880FF9
S1131410991FFC01E155F64F1182108276C080E1DC
S113142017D88091BF099091C00901979093C00982
S11314308093BF09880F991FFC01E155F64F118273
S1131440108263C08091BF099091C0090196909366
S1131450C0098093BF0984E10E942802E091BF097A
S1131460F091C009EE0FFF1FE155F64F1182108273
S11314704CC01092AE091092AD0960E080E061D8D2
S113148080E991E050D88CE00E9428020E944D012E
S1131490EFEAF9E04281538188EE93E0489F90019E
S11314A0499F300D589F300D11244085518564E6C5
S11314B0649FC001659F900D1124820F931F2285A4
S11314C03385B901660F771FA901440F551F440FD7
S11314D0551F440F551F9B01240F351F280F391F1B
S11314E086859785820F931F9093AC098093AB09EF
S11314F06AE070E00E9460011092C0091092BF0976
S113150081E090E09983888302C082E090E0DF91DB
S1131510CF910895CF93DF93C091AB09D091AC09DB
S1131520C81BD90BCE0168EE73E02BD0873E9340E5
S113153011F4C059D140D093AC09C093AB096AE00F
S113154070E0CE010E94600181E090E0CD2B11F4A7
S113155080E090E0DF91CF910895AA1BBB1B51E17D
S113156007C0AA1FBB1FA617B70710F0A61BB70B0F
S1131570881F991F5A95A9F780959095BC01CD01B4
S1131580089597FB072E16F4009406D077FD08D033
S1131590E4DF07FC05D03EF4909581959F4F0895B4
S11315A0709561957F4F0895EE0FFF1F0024001C76
S11115B00BBE0790F691E02D0994F894FFCF3E
S11315BE10101010101001003030682030306D20E3
S11315CE30307300342E20416C61726D2020202047
S11315DE20202020202000332E2053746F7020579B
S11315EE61746368202000322E2054696D65722068
S11315FE202020202020202000312E20536574200E
S113160E2020202020202020003F065B4F666D7D89
S113161E077F6F777C585E7971005F5F5F5F5F5FF6
S113162E00312E205345542020202020202020201D
S113163E2000306D2030302E3073202020202000EA
S113164E2020202020202020202020202020202088
S10B165E2020202020200000C0
S9030000FC
