:10000000A1C10000BDC10000BBC10000B9C100001A
:10001000B7C10000B5C10000B3C10000B1C100000C
:10002000AFC1000036C30000ABC10000A9C1000091
:10003000A7C10000A5C10000A3C10000D5C10000F8
:100040009FC100009DC100009BC1000099C100003C
:1000500097C100000C94CF0893C1000091C100002B
:100060008FC100008DC100008BC1000089C100005C
:1000700087C1000085C1000083C1000081C100006C
:100080007FC100007DC100007BC100009205EC042F
:100090001A06D7041A061A061A06C2041A061A06FF
:1000A0001A061A061A061A061A061A06A5052B05B6
:1000B0001A0616051A061A061A0601051A061A065F
:1000C0001A061A061A061A061A061A061A061A0630
:1000D0001A061A061A061A061A061A061A061A0620
:1000E0001A061A061A061A061A061A06BB056A0521
:1000F0001A0655051A061A061A0640051A061A06A1
:100100001A061A061A061A061A061A061A061A06EF
:100110001A061A061A061A061A061A061A061A06DF
:100120001A061A061A061A061A061A061A061A06CF
:100130001A061A061A061A061A061A061A061A06BF
:100140001A061A061A061A061A061A061A061A06AF
:100150001A061A061A061A061A061A061A061A069F
:100160001A061A061A061A061A061A0614061A0695
:100170001A067F05EE072307020714070207020786
:100180000207050702070207020702070207020724
:10019000020702070207500702074107020702078A
:1001A00002073207020702070207020702070207D7
:1001B00002070207020702070207020702070207F7
:1001C00002070207020702070207020702070207E7
:1001D0000207020799077D0702076E070207020759
:1001E00002075F070207020702070207020702076A
:1001F00002070207020702070207020702070207B7
:1002000002070207020702070207020702070207A6
:100210000207020702070207020702070207020796
:100220000207020702070207020702070207020786
:100230000207020702070207020702070207020776
:100240000207020702070207020702070207020766
:1002500002070207FF07020702078C071D0D6F0C3C
:100260009C0D590C9C0D9C0D9C0D430C9C0D9C0DE4
:100270009C0D9C0D9C0D9C0D9C0D9C0D310DB10C8D
:100280009C0D9B0C9C0D9C0D9C0D850C9C0D9C0D40
:100290009C0D9C0D9C0D9C0D9C0D9C0D9C0D9C0D16
:1002A0009C0D9C0D9C0D9C0D9C0D9C0D9C0D9C0D06
:1002B0009C0D9C0D9C0D9C0D9C0D9C0D480DF30CF4
:1002C0009C0DDD0C9C0D9C0D9C0DC70C9C0D9C0D7C
:1002D0009C0D9C0D9C0D9C0D9C0D9C0D9C0D9C0DD6
:1002E0009C0D9C0D9C0D9C0D9C0D9C0D9C0D9C0DC6
:1002F0009C0D9C0D9C0D9C0D9C0D9C0D9C0D9C0DB6
:100300009C0D9C0D9C0D9C0D9C0D9C0D9C0D9C0DA5
:100310009C0D9C0D9C0D9C0D9C0D9C0D9C0D9C0D95
:100320009C0D9C0D9C0D9C0D9C0D9C0D9C0D9C0D85
:100330009C0D9C0D9C0D9C0D9C0D9C0D960D9C0D7B
:100340009C0D090D11241FBECFEFD0E1DEBFCDBF44
:1003500011E0A0E0B1E0EEE2FEE100E00BBF02C080
:1003600007900D92AC3EB107D9F72AE0ACEEB1E0B0
:1003700001C01D92AD32B207E1F748D20C94150FBF
:100380003FCE82B3806F82BB81B3806F81BB8FEF22
:100390008ABB88E083BF8EE481BF87B7826087BF56
:1003A00083B7876083BF0895CF93DF93EB0127B7AF
:1003B0002D7F27BFE6E0F1E0108220E12183228338
:1003C0002383248325832BE031E0BE010E94C40DEA
:1003D0008193862F972FE217F307B9F787B78260CB
:1003E00087BFDF91CF9108951F920F920FB60F92A2
:1003F00011240BB60F922F938F939F93EF93FF933C
:1004000022B380E190E00090EC0102C0880F991FB8
:100410000A94E2F78095807F922F9F70892B82BB90
:10042000E091EC01F091ED01EA5FFE4FE081F0E038
:10043000E358FE4F808180958BBB8091EC019091B9
:10044000ED0101968430910529F09093ED018093A0
:10045000EC0104C01092ED011092EC01FF91EF91BC
:100460009F918F912F910F900BBE0F900FBE0F9009
:100470001F9018958EEF80936200000080B18095E8
:10048000807F69F423E092E0E2E6F0E0892F809536
:100490008083000080B18095807F21F001C091E0D1
:1004A000890F0895990F215089F7089580EF80935F
:1004B00062008FE0809361000895CF93DBDFC82F47
:1004C00001C0C82F8FE39CE90197F1F700C000003D
:1004D0008FE39CE90197F1F700C000008FE39CE9EE
:1004E0000197F1F700C00000C5DFC813EACF982FCD
:1004F000907F19F41092EE0109C09091EE018917D6
:1005000021F08093EE01982F01C090E0892FCF91C8
:100510000895982F907F946095BB9B7F95BB20E1B9
:100520008202C0011124846085BB8B7F85BB85E07E
:100530008A95F1F700000895CF93C82F85E38A9537
:10054000F1F7000095E39A95F1F7000085E38A95AD
:10055000F1F7000095E39A95F1F7000085E38A959D
:10056000F1F700008C2FD5DFC150C23030F48FE39B
:100570009FE10197F1F700C00000CF9108958FEF40
:1005800084BB8FE59AEE0197F1F700C0000080E38D
:10059000C0DF8FE19EE40197F1F700C0000080E327
:1005A000B8DF8FE99FE00197F1F700C0000082E318
:1005B000B0DF88E2C1DF88E0BFDF81E0BDDF86E039
:1005C000BBDF8CE0B9CF089525E32A95F1F7000051
:1005D00095E39A95F1F7000025E32A95F1F70000DD
:1005E00095E39A95F1F7000025E32A95F1F70000CD
:1005F000982F907F956095BB9B7F95BB20E18202F1
:10060000C0011124856085BB8B7F85BB0895CF9386
:10061000DF93EC018881882329F02196D5DF899129
:100620008111FCCFDF91CF91089590E4899F600DF7
:100630001124862F806880CF08950F931F93CF9346
:10064000DF938B0128E08202C0011124806474DFF3
:10065000E801085F1F4F8991B7DFC017D107D9F7AD
:10066000DF91CF911F910F9108951816190644F448
:10067000EFE9FFE03197F1F700C000000197C1F703
:10068000089585B5886085BD84E683BD80E887BF11
:1006900008951F920F920FB60F9211242F935F931C
:1006A0006F937F938F939F93AF93BF938091FB0141
:1006B0009091FC0101969093FC018093FB018032A4
:1006C0002EE4920771F41092FC011092FB018091CC
:1006D000F9019091FA0101969093FA018093F90142
:1006E00006C060ED77E00E94D80D892B79F481E097
:1006F00090E09093F8018093F7018091F50190913B
:10070000F60101969093F6018093F501BF91AF91A8
:100710009F918F917F916F915F912F910F900FBE5D
:100720000F901F9018950F931F93CF93DF93CDB722
:10073000DEB768970FB6F894DEBF0FBECDBF84E179
:1007400090E00E94F40D8C0188E0E5E6F1E0DE0126
:10075000119601900D928A95E1F788E0EDE6F1E0BF
:10076000DE01199601900D928A95E1F788E0E5E7A0
:10077000F1E0DE01519601900D928A95E1F7BE01FC
:100780006F5F7F4F81E059DFBE01675F7F4F82E07F
:1007900054DFBE016F5E7F4F83E04FDF81E0F801E1
:1007A000808382E0818383E0828387E2838383E79F
:1007B000848380E2858387E5868381E6878384E777
:1007C000808783E6818788E68287138660E080E001
:1007D0002CDFC8011CDF03E010E08CE0ADDE84EF0D
:1007E00091E043DF88E0A8DE84EF91E03EDF015036
:1007F000110999F7C4DE68960FB6F894DEBF0FBEF4
:10080000CDBFDF91CF911F910F910895CCE0D1E042
:100810000C2F1D2FB4DE4ADE34DF17BA84DF01D47B
:10082000789485B5826085BD6091F1017091F20187
:10083000402F512F8091F9019091FA010ED28091B1
:10084000F3019091F401019751F48091F701909197
:10085000F8010E94A10D9093F4018093F30180911F
:10086000F1019091F201019781F427DE682F8091C8
:10087000F7019091F80104D59093F2018093F10172
:100880001092F8011092F701CFCF1092FA01109256
:10089000F9011092F8011092F7010FDECFD3909377
:1008A000F0018093EF01019739F474D29093F00135
:1008B0008093EF010197C9F38091EF019091F001CE
:1008C000029749F483EF91E0B5D79093F0018093BC
:1008D000EF010297B9F38091EF019091F001039736
:1008E00049F481EF91E081D49093F0018093EF017E
:1008F0000397B9F38091EF019091F0018430910555
:10090000D1F41ED09093F0018093EF0196D1FC01B9
:100910008081918199838883828193819B838A835B
:10092000848195819D838C838091EF019091F0016A
:100930008430910531F38D399F4F09F075CF6ACF1F
:100940008091050290910602892B81F460E080E09D
:100950006CDE8EE891E05BDE82E0EEDD8EE0ECDDC9
:1009600081E090E09093060280930502A6DD90E07E
:10097000FC017197E437F10508F05CC1EA5BFF4FB9
:100980000C94EB0D81E320DE80911F0290912002F8
:1009900001969093200280931F02880F991FFC01FB
:1009A000E95FFD4F81E090E09183808340C182E365
:1009B0000BDE80911F0290912002019690932002FD
:1009C00080931F02880F991FFC01E95FFD4F82E0B1
:1009D00090E0918380832BC183E3F6DD80911F0239
:1009E0009091200201969093200280931F02880F1D
:1009F000991FFC01E95FFD4F83E090E091838083C4
:100A000016C184E3E1DD80911F02909120020196DE
:100A10009093200280931F02880F991FFC01E95FC9
:100A2000FD4F84E090E09183808301C185E3CCDDBC
:100A300080911F0290912002019690932002809352
:100A40001F02880F991FFC01E95FFD4F85E090E0D0
:100A500091838083ECC086E3B7DD80911F02909183
:100A6000200201969093200280931F02880F991F05
:100A7000FC01E95FFD4F86E090E091838083D7C061
:100A800087E3A2DD80911F0290912002019690934E
:100A9000200280931F02880F991FFC01E95FFD4F20
:100AA00087E090E091838083C2C088E38DDD8091F0
:100AB0001F029091200201969093200280931F02C2
:100AC000880F991FFC01E95FFD4F88E090E091835A
:100AD0008083ADC089E378DD80911F029091200270
:100AE00001969093200280931F02880F991FFC01AA
:100AF000E95FFD4F89E090E09183808398C080E3B7
:100B000063DD80911F029091200201969093200254
:100B100080931F02880F991FFC01E95FFD4F11822E
:100B2000108285C080E108DD80911F029091200233
:100B300001979093200280931F02880F991FFC0158
:100B4000E95FFD4F1182108275C080911F02909164
:100B5000200201969093200280931F0284E1ECDC36
:100B6000E0911F02F0912002EE0FFF1FE95FFD4FA1
:100B7000118210825FC0109206021092050260E09E
:100B800080E053DD82EA91E042DD8CE0D5DCE7E0F5
:100B9000F2E0828593859C01220F331F880F991FF5
:100BA000880F991F880F991F820F931F44855585C1
:100BB000480F591F828993899C01220F331F880F88
:100BC000991F880F991F880F991F820F931F2489DF
:100BD0003589280F391FADEFB1E082819381BC01C7
:100BE000660F771F880F991F880F991F880F991F0D
:100BF000860F971F64817581860F971F11969C93AE
:100C00008E9313965C934E93129715963C932E9366
:100C1000149781E090E09093040280930302109275
:100C2000200210921F0208958DE99FEF089584E03D
:100C300090E0089584E090E00895809103029091FF
:100C40000402019739F410920402109203028DEF0E
:100C500091E0089580E090E00895FF920F931F9334
:100C6000CF93DF93EB01FA01209125023091260208
:100C7000820F931F2CE330E0B9019AD7F82E492F49
:100C80008091230290912402860F971FB90190D77B
:100C90002091210230912202620F731F0F2D142F19
:100CA000F092250240932602282F392F80932302A9
:100CB00090932402CB0168E170E07AD790932202EE
:100CC00080932102408151818417950781F48281AC
:100CD00093812817390759F48481958108171907DA
:100CE00031F460E081E0A1DC89EB91E090DCCD2B78
:100CF00009F04AC060E080E098DC80912102909188
:100D00002202CAE0D0E0BE0153D7CB01BE0150D7CA
:100D1000805D5ADC8091210290912202BE0148D769
:100D2000805D52DC88E650DC64E080E07EDC80910F
:100D3000230290912402BE013BD7CB01BE0138D7DC
:100D4000805D42DC8091230290912402BE0130D765
:100D5000805D3ADC8DE638DC68E080E066DC80911E
:100D6000250290912602BE0123D7CB01BE0120D7D8
:100D7000805D2ADC8091250290912602BE0118D761
:100D8000805D22DC83E720DCDF91CF911F910F9102
:100D9000FF9008950F931F93CF938C018EDBC82F84
:100DA0006091350281E041DC809127029091280218
:100DB000892B79F460E081E038DC85EC91E027DC78
:100DC00060E081E032DC81E090E090932802809343
:100DD0002702C1110DC088E0AFDB84EF91E045DC54
:100DE0008CE0AADB84EF91E040DC81E090E015C16B
:100DF0008C2F90E0FC017197E437F10518F4E6546C
:100E0000FF4FE9C681E090E008C181E3DDDBE091BE
:100E10003502F0913602EE0FFF1FE75DFD4F81E0D6
:100E200090E091838083EEC082E3CEDBE0913502D7
:100E3000F0913602EE0FFF1FE75DFD4F82E090E07C
:100E400091838083DFC083E3BFDBE0913502F091C3
:100E50003602EE0FFF1FE75DFD4F83E090E09183C8
:100E60008083D0C084E3B0DBE0913502F09136029C
:100E7000EE0FFF1FE75DFD4F84E090E091838083DC
:100E8000C1C085E3A1DBE0913502F0913602EE0F9F
:100E9000FF1FE75DFD4F85E090E091838083B2C046
:100EA00086E392DBE0913502F0913602EE0FFF1FF0
:100EB000E75DFD4F86E090E091838083A3C087E3E8
:100EC00083DBE0913502F0913602EE0FFF1FE75D04
:100ED000FD4F87E090E09183808394C088E374DBCA
:100EE000E0913502F0913602EE0FFF1FE75DFD4FF6
:100EF00088E090E09183808385C089E365DBE091A1
:100F00003502F0913602EE0FFF1FE75DFD4F89E0DD
:100F100090E09183808376C080E356DBE0913502D8
:100F2000F0913602EE0FFF1FE75DFD4F1182108238
:100F300069C060E081E079DB8CEC91E068DB1092C5
:100F4000360210923502F80111821082E9E2F2E0D5
:100F5000808191819C01220F331F880F991F880F78
:100F6000991F880F991F820F931F22813381820F4F
:100F7000931F9093220280932102848195819C018A
:100F8000220F331F880F991F880F991F880F991FF1
:100F9000820F931F26813781820F931F9093240223
:100FA00080932302808591859C01220F331F880F37
:100FB000991F880F991F880F991F820F931F2285F1
:100FC0003385820F931F90932602809325021092FF
:100FD00028021092270280E090E01FC06091350245
:100FE0007091360261507109709336026093350238
:100FF00081E01BDB8FE5E8DA81E090E00EC08DE94F
:101000009FEF0BC08091350290913602019690932C
:1010100036028093350281E090E0CF911F910F91CD
:10102000089560E080E001DB84E191E0F0DA60E0C7
:1010300081E0FBDA85E591E0EACA0895CF93DF937A
:10104000C82F60E081E0F1DAC13209F452C0C13446
:1010500009F49AC0C13109F09CC080913702909187
:1010600038028130910581F41092380210923702D3
:1010700085E591E0CCDA81E090E0909313018093D4
:101080001201C0E0D0E087C08230910591F481E088
:1010900090E0909338028093370283E491E0B7DACE
:1010A00082E090E09093130180931201C0E0D0E0C1
:1010B00072C0039791F482E090E09093380280939D
:1010C000370283E391E0A3DA83E090E09093130189
:1010D00080931201C0E0D0E05EC085E591E097DA30
:1010E00081E090E09093130180931201C0E0D0E082
:1010F00052C0C0913702D0913802209781F481E02C
:1011000090E0909338028093370283E491E07FDA95
:1011100082E090E090931301809312013CC0C130B3
:10112000D10591F482E090E09093380280933702E9
:1011300083E391E06CDA83E090E090931301809375
:101140001201C0E0D0E027C0229791F483E090E044
:10115000909338028093370280E291E058DA84E07D
:1011600090E09093130180931201C0E0D0E013C08F
:1011700080E291E04CDA84E090E090931301809358
:101180001201C0E0D0E007C0C0911201D09113015C
:1011900002C0C0E0D0E0CE01DF91CF9108951F9250
:1011A0000F920FB60F9211242F938F939F9384B1B8
:1011B00095B196958795969587959BBD8ABD8091AB
:1011C000390290913A02019690933A028093390243
:1011D000883E934011F487B387BB9F918F912F91E5
:1011E0000F900FBE0F901F9018950F931F93CF93E2
:1011F0008C0180913F0290914002892B71F4C1D8FB
:101200006AE070E08091110A9091120ACDD860E0F6
:1012100080E00BDA8DED91E0FAD981E090E09093D7
:10122000400280933F0249D9C82F6AE070E0809164
:10123000110A9091120AB8D8C13429F0C138D1F0FE
:1012400083E090E019C081E090E0F8019183808311
:1012500060E080E0EAD98AEA91E0D9D960E081E0F3
:10126000E4D98AEA91E0D3D960E080E0DED980E079
:1012700090E002C08DE99FEFCF911F910F910895EB
:10128000EF92FF920F931F93CF93DF938C01C62FA2
:1012900078D880913D0290913E02892B09F0BBC223
:1012A0008091110A9091120A800F911F883522E0D7
:1012B000920711F488EE93E09093120A8093110A3A
:1012C0006AE070E071D8C13121F0C13209F4CBC1BC
:1012D000A8C280913D0290913E02892B09F011C174
:1012E000BD9A81E88FBD83E08EBD8FEA86B9369ABC
:1012F00080913B0290913C02823091050CF052C0EB
:1013000060E093D98091110A9091120AE0913B021A
:10131000F0913C02EE0FFF1FEF5BFD4F9183808346
:10132000C8EED3E0BE0144D480E3860F4DD98DE6EC
:101330004BD980E249D9E0913B02F0913C02EE0F9B
:10134000FF1FEF5BFD4F80819181BE0131D4C4E668
:10135000D0E0BE012DD480E3860F36D9E0913B0268
:10136000F0913C02EE0FFF1FEF5BFD4F80819181FA
:10137000BE011ED4CAE0D0E0BE011AD480E3860FBD
:1013800023D98EE221D9E0913B02F0913C02EE0F8D
:10139000FF1FEF5BFD4F80819181BE0109D4805D0D
:1013A00013D9A5C0880F991FFC01EF5BFD4F8091F9
:1013B000110A9091120A9183808360E080E035D910
:1013C000E0913B02F0913C02EE0FFF1FE15CFD4F0C
:1013D000808191810F2EF8EEEF2EF3E0FF2EF02D9D
:1013E000B701E6D380E3860FEFD88DE6EDD880E233
:1013F000EBD8E0913B02F0913C02EE0FFF1FE15C65
:10140000FD4F80819181B701D3D3C4E6D0E0BE0106
:10141000CFD380E3860FD8D8E0913B02F0913C0215
:10142000EE0FFF1FE15CFD4F80819181BE01C0D3B3
:101430000AE010E0B801BCD380E3860FC5D88EE285
:10144000C3D8E0913B02F0913C02EE0FFF1FE15C3C
:10145000FD4F80819181B801ABD3805DB5D860E04C
:1014600081E0E3D8E0913B02F0913C02EE0FFF1FD8
:10147000EF5BFD4F80819181B7019AD380E3860FA6
:10148000A3D88DE6A1D880E29FD8E0913B02F091ED
:101490003C02EE0FFF1FEF5BFD4F80819181B70192
:1014A00087D3BE0185D380E3860F8ED8E0913B02BF
:1014B000F0913C02EE0FFF1FEF5BFD4F80819181A9
:1014C000BE0176D3B80174D380E3860F7DD88EE257
:1014D0007BD8E0913B02F0913C02EE0FFF1FEF5BE7
:1014E000FD4F80819181B80163D3805D6DD880917B
:1014F0003B0290913C02019690933C0280933B0208
:1015000090C180913B0290913C0202970CF489C1FA
:1015100060E080E08AD8E0913B02F0913C02EE0F5F
:10152000FF1FE35CFD4F808191810F2EF8EEEF2EBF
:10153000F3E0FF2EF02DB7013BD380E3860F44D8B4
:101540008DE642D880E240D8E0913B02F0913C0227
:10155000EE0FFF1FE35CFD4F80819181B70128D31F
:1015600004E610E0B80124D380E3860F2DD8E09183
:101570003B02F0913C02EE0FFF1FE35CFD4F8081C8
:101580009181B80115D3CAE0D0E0BE0111D380E348
:10159000860F1AD88EE218D8E0913B02F0913C02F7
:1015A000EE0FFF1FE35CFD4F80819181BE0100D3F0
:1015B000805D0AD860E081E038D8E0913B02F0918C
:1015C0003C02EE0FFF1FE15CFD4F80819181B7016E
:1015D000EFD280E3860F0E94E4028DE60E94E402CF
:1015E00080E20E94E402E0913B02F0913C02EE0FA7
:1015F000FF1FE15CFD4F80819181B701D9D2B80115
:10160000D7D280E3860F0E94E402E0913B02F09182
:101610003C02EE0FFF1FE15CFD4F80819181B8011C
:10162000C7D2BE01C5D280E3860F0E94E4028EE2DB
:101630000E94E402E0913B02F0913C02EE0FFF1F9A
:10164000E15CFD4F80819181BE01B2D2805D0E943C
:10165000E40280913B0290913C02019790933C02FE
:1016600080933B02DEC080913D0290913E02019743
:1016700009F0C1C0E0913B02F0913C02EE0FFF1F68
:10168000ED5BFD4F80819181892B09F4CAC060E038
:1016900080E00E941503E0913B02F0913C02EE0FC6
:1016A000FF1FEF5BFD4F808191810F2EF8EEEF2E33
:1016B000F3E0FF2EF02DB7017BD280E3860F0E946E
:1016C000E4028DE60E94E40280E20E94E402E091DE
:1016D0003B02F0913C02EE0FFF1FEF5BFD4F80815C
:1016E0009181B70165D204E610E0B80161D280E3D0
:1016F000860F0E94E402E0913B02F0913C02EE0F63
:10170000FF1FEF5BFD4F80819181B80151D2CAE08C
:10171000D0E0BE014DD280E3860F0E94E4028EE24B
:101720000E94E402E0913B02F0913C02EE0FFF1FA9
:10173000EF5BFD4F80819181BE013AD2805D0E94B6
:10174000E40260E081E00E941503E0913B02F09129
:101750003C02EE0FFF1FED5BFD4F80819181B701D1
:1017600027D280E3860F0E94E4028DE60E94E40205
:1017700080E20E94E402E0913B02F0913C02EE0F15
:10178000FF1FED5BFD4F80819181B70111D2B80140
:101790000FD280E3860F0E94E402E0913B02F091B9
:1017A0003C02EE0FFF1FED5BFD4F80819181B80180
:1017B000FFD1BE01FDD180E3860F0E94E4028EE2DC
:1017C0000E94E402E0913B02F0913C02EE0FFF1F09
:1017D000ED5BFD4F80819181BE01EAD1805D0E9469
:1017E000E40280913B0290913C02019690933C026E
:1017F00080933B0216C081E090E090933E0280937C
:101800003D0280913B0290913C02019790933C02F3
:1018100080933B0206C0C13109F473CEC13209F492
:1018200022CF81E090E0DF91CF911F910F91FF9047
:10183000EF900895CF93DF93EC018091150A90917A
:10184000160A892BA1F460E080E00E9415038DED5B
:1018500091E00E94070382E00E949C028EE00E94B9
:101860009C0281E090E09093160A8093150A0E94F2
:101870005D0290E0FC017197E437F10508F05CC16E
:10188000E25DFE4FA8C181E30E94E4028091270A35
:101890009091280A01969093280A8093270A880F2E
:1018A000991FFC01E95EF54F81E090E09183808310
:1018B00040C182E30E94E4028091270A9091280AA5
:1018C00001969093280A8093270A880F991FFC019C
:1018D000E95EF54F82E090E0918380832AC183E343
:1018E0000E94E4028091270A9091280A0196909321
:1018F000280A8093270A880F991FFC01E95EF54F9B
:1019000083E090E09183808314C184E30E94E40229
:101910008091270A9091280A01969093280A809333
:10192000270A880F991FFC01E95EF54F84E090E0DB
:1019300091838083FEC085E30E94E4028091270AA0
:101940009091280A01969093280A8093270A880F7D
:10195000991FFC01E95EF54F85E090E0918380835B
:10196000E8C086E30E94E4028091270A9091280A49
:1019700001969093280A8093270A880F991FFC01EB
:10198000E95EF54F86E090E091838083D2C087E3E3
:101990000E94E4028091270A9091280A0196909370
:1019A000280A8093270A880F991FFC01E95EF54FEA
:1019B00087E090E091838083BCC088E30E94E402CA
:1019C0008091270A9091280A01969093280A809383
:1019D000270A880F991FFC01E95EF54F88E090E027
:1019E00091838083A6C089E30E94E4028091270A44
:1019F0009091280A01969093280A8093270A880FCD
:101A0000991FFC01E95EF54F89E090E091838083A6
:101A100090C080E30E94E4028091270A9091280AF6
:101A200001969093280A8093270A880F991FFC013A
:101A3000E95EF54F118210827CC080E10E949C0219
:101A40008091270A9091280A01979093280A809301
:101A5000270A880F991FFC01E95EF54F1182108259
:101A60006BC08091270A9091280A01969093280ACA
:101A70008093270A84E10E949C02E091270AF0915A
:101A8000280AEE0FFF1FE95EF54F1182108254C045
:101A90001092160A1092150A60E080E00E94150369
:101AA00082EA91E00E9407038CE00E949C020E945F
:101AB000C101E7E1FAE04281538188EE93E0489F5B
:101AC0009001499F300D589F300D1124408551855C
:101AD00064E6649FC001659F900D1124820F931FDF
:101AE00022853385B901660F771FA901440F551F61
:101AF000440F551F440F551F9B01240F351F280FFE
:101B0000391F86859785820F931F9093140A8093BF
:101B1000130A6AE070E00E94D4011092280A109221
:101B2000270A81E090E09983888308C08DE99FEFC0
:101B300005C082E090E002C082E090E0DF91CF91AA
:101B40000895CF93DF93C091130AD091140AC81B54
:101B5000D90BCE0168EE73E02BD0873E934011F491
:101B6000C059D140D093140AC093130A6AE070E0C0
:101B7000CE010E94D40181E090E0CD2B11F480E0F1
:101B800090E0DF91CF910895AA1BBB1B51E107C0E4
:101B9000AA1FBB1FA617B70710F0A61BB70B881FFD
:101BA000991F5A95A9F780959095BC01CD0108958C
:101BB00097FB072E16F4009406D077FD08D0E4DFDB
:101BC00007FC05D03EF4909581959F4F0895709540
:101BD00061957F4F0895EE0FFF1F0024001C0BBE80
:101BE0000790F691E02D09940F931F93CF93DF9305
:101BF0008230910510F482E090E0E0912B0AF091A0
:101C00002C0A20E030E0A0E0B0E0309719F14081EC
:101C100051810281138148175907C8F0841795072D
:101C200069F4109731F012960C93129713961C9347
:101C300027C000932B0A10932C0A22C021153105CE
:101C400019F04217530718F49A01BD01EF01DF01A3
:101C5000F801DBCF21153105F9F0281B390B2430B1
:101C6000310580F48A819B816115710521F0FB01AA
:101C70009383828304C090932C0A80932B0AFE01E5
:101C8000329644C0FE01E20FF31F819391932250DC
:101C90003109398328833AC02091290A30912A0AD0
:101CA000232B41F4209102013091030130932A0A41
:101CB0002093290A2091000130910101211531055D
:101CC00041F42DB73EB74091040150910501241B0A
:101CD000350BE091290AF0912A0AE217F307A0F4E4
:101CE0002E1B3F0B2817390778F0AC014E5F5F4F72
:101CF0002417350748F04E0F5F1F50932A0A409370
:101D0000290A8193919302C0E0E0F0E0CF01DF91D6
:101D1000CF911F910F910895CF93DF93009709F40E
:101D200081C0FC01329713821282A0912B0AB091DC
:101D30002C0A109781F420813181820F931F20910A
:101D4000290A30912A0A2817390751F5F0932A0AEF
:101D5000E093290A67C0ED0120E030E0CE17DF07ED
:101D600040F44A815B819E0141155105F1F0EA0181
:101D7000F5CFD383C28340815181840F951FC8174B
:101D8000D90759F488819981840F951F0296918310
:101D900080838A819B81938382832115310529F475
:101DA000F0932C0AE0932B0A3DC0E901FB83EA8300
:101DB00049915991C40FD51FEC17FD0761F480813B
:101DC0009181840F951F0296E9019983888382810E
:101DD00093819B838A83E0E0F0E012968D919C9141
:101DE0001397009719F0FD01DC01F7CF8D919C91BD
:101DF00011979D012E5F3F4F820F931F2091290A5B
:101E000030912A0A2817390769F4309729F410927B
:101E10002C0A10922B0A02C013821282B0932A0A53
:0E1E2000A093290ADF91CF910895F894FFCF87
:101E2E0000002D0A2000101010101010FFFF0000EF
:101E3E00000001003030682030306D2030307300EB
:101E4E00342E20416C61726D202020202020202015
:101E5E00202000332E2053746F70205761746368F6
:101E6E00202000322E2054696D6572202020202003
:101E7E002020202000312E20536574202020202089
:101E8E002020202000021A1F1E021C040402021A27
:101E9E000B0A0A0200021E0A0E080C120C3F065B09
:101EAE004F666D7D077F6F777C585E79710030309D
:101EBE00682030306D2030307320202020202020EC
:101ECE002000202020202020202020202020202024
:101EDE00202020202020202000416C61726D2041A6
:101EEE006C657274005F5F5F5F5F5F00312E205321
:101EFE0045542020202020202020202000306D203E
:0C1F0E0030302E307320202020200000F6
:00000001FF
