:10000000A1C10000BDC10000BBC10000B9C100001A
:10001000B7C10000B5C10000B3C10000B1C100000C
:10002000AFC100001EC30000ABC10000A9C10000A9
:10003000A7C10000A5C10000A3C10000D5C10000F8
:100040009FC100009DC100009BC1000099C100003C
:1000500097C100000C943E0893C1000091C10000BC
:100060008FC100008DC100008BC1000089C100005C
:1000700087C1000085C1000083C1000081C100006C
:100080007FC100007DC100007BC1000004055E044B
:100090008605490486058605860534048605860599
:1000A00086058605860586058605860517059D0451
:1000B00086058804860586058605730486058605FB
:1000C00086058605860586058605860586058605D8
:1000D00086058605860586058605860586058605C8
:1000E0008605860586058605860586052D05DC04BC
:1000F0008605C704860586058605B204860586053D
:100100008605860586058605860586058605860597
:100110008605860586058605860586058605860587
:100120008605860586058605860586058605860577
:100130008605860586058605860586058605860567
:100140008605860586058605860586058605860557
:100150008605860586058605860586058605860547
:100160008605860586058605860586058605860537
:100170008605F1045D0792066E0783066E076E071B
:100180006E0774066E076E076E076E076E076E07C2
:100190006E076E076E07BF066E07B0066E076E0726
:1001A0006E07A1066E076E076E076E076E076E0775
:1001B0006E076E076E076E076E076E076E076E0797
:1001C0006E076E076E076E076E076E076E076E0787
:1001D0006E076E070807EC066E07DD066E076E07F2
:1001E0006E07CE066E076E076E076E076E076E0708
:1001F0006E076E076E076E076E076E076E076E0757
:100200006E076E076E076E076E076E076E076E0746
:100210006E076E076E076E076E076E076E076E0736
:100220006E076E076E076E076E076E076E076E0726
:100230006E076E076E076E076E076E076E076E0716
:100240006E076E076E076E076E076E076E076E0706
:100250006E076E076E076E076E07FB067A0CCC0BF7
:10026000F30CB60BF30CF30CF30CA00BF30CF30C28
:10027000F30CF30CF30CF30CF30CF30C8E0C0E0CD0
:10028000F30CF80BF30CF30CF30CE20BF30CF30C84
:10029000F30CF30CF30CF30CF30CF30CF30CF30C66
:1002A000F30CF30CF30CF30CF30CF30CF30CF30C56
:1002B000F30CF30CF30CF30CF30CF30CA50C500C37
:1002C000F30C3A0CF30CF30CF30C240CF30CF30CBE
:1002D000F30CF30CF30CF30CF30CF30CF30CF30C26
:1002E000F30CF30CF30CF30CF30CF30CF30CF30C16
:1002F000F30CF30CF30CF30CF30CF30CF30CF30C06
:10030000F30CF30CF30CF30CF30CF30CF30CF30CF5
:10031000F30CF30CF30CF30CF30CF30CF30CF30CE5
:10032000F30CF30CF30CF30CF30CF30CF30CF30CD5
:10033000F30CF30CF30CF30CF30CF30CF30CF30CC5
:10034000F30C660C11241FBECFEFD0E1DEBFCDBF92
:1003500011E0A0E0B1E0EAE9FAE100E00BBF02C081
:1003600007900D92AE3CB107D9F72AE0AEECB1E0B0
:1003700001C01D92AB30B207E1F7BDD10C944B0D1B
:100380003FCE82B3806F82BB81B3806F81BB8FEF22
:100390008ABB88E083BF8EE481BF87B7826087BF56
:1003A00083B7876083BF0895CF93DF93EB0127B7AF
:1003B0002D7F27BFE0E0F1E0108220E1218322833E
:1003C00023832483258325E031E0BE010E941B0D99
:1003D0008193862F972FE217F307B9F787B78260CB
:1003E00087BFDF91CF9108951F920F920FB60F92A2
:1003F00011240BB60F922F938F939F93EF93FF933C
:1004000022B380E190E00090CE0102C0880F991FD6
:100410000A94E2F78095807F922F9F70892B82BB90
:10042000E091CE01F091CF01E050FF4FE081F0E08C
:10043000E15AFE4F808180958BBB8091CE019091D7
:10044000CF0101968430910529F09093CF018093DC
:10045000CE0104C01092CF011092CE01FF91EF9116
:100460009F918F912F910F900BBE0F900FBE0F9009
:100470001F9018958EEF80936200000080B18095E8
:10048000807F69F423E092E0E2E6F0E0892F809536
:100490008083000080B18095807F21F001C091E0D1
:1004A000890F0895990F215089F7089580EF80935F
:1004B00062008FE0809361000895CF93DBDFC82F47
:1004C00001C0C82F8FE39CE90197F1F700C000003D
:1004D0008FE39CE90197F1F700C000008FE39CE9EE
:1004E0000197F1F700C00000C5DFC813EACF982FCD
:1004F000907F19F41092D00109C09091D001891712
:1005000021F08093D001982F01C090E0892FCF91E6
:100510000895982F907F946095BB9B7F95BB20E1B9
:100520008202C0011124846085BB8B7F85BB85E07E
:100530008A95F1F700000895CF93C82F85E38A9537
:10054000F1F7000095E39A95F1F7000085E38A95AD
:10055000F1F7000095E39A95F1F7000085E38A959D
:10056000F1F700008C2FD5DFC150C23030F48FE39B
:100570009FE10197F1F700C00000CF9108958FEF40
:1005800084BB8FE59AEE0197F1F700C0000080E38D
:10059000C0DF8FE19EE40197F1F700C0000080E327
:1005A000B8DF8FE99FE00197F1F700C0000082E318
:1005B000B0DF88E2C1DF88E0BFDF81E0BDDF86E039
:1005C000BBDF8CE0B9CF089525E32A95F1F7000051
:1005D00095E39A95F1F7000025E32A95F1F70000DD
:1005E00095E39A95F1F7000025E32A95F1F70000CD
:1005F000982F907F956095BB9B7F95BB20E18202F1
:10060000C0011124856085BB8B7F85BB0895CF9386
:10061000DF93EC018881882329F02196D5DF899129
:100620008111FCCFDF91CF91089590E4899F600DF7
:100630001124862F806880CF08951816190644F477
:10064000EFE9FFE03197F1F700C000000197C1F733
:10065000089585B5886085BD84E683BD80E887BF41
:1006600008951F920F920FB60F9211242F935F934C
:100670006F937F938F939F93AF93BF938091DD018F
:100680009091DE0101969093DE018093DD0180322E
:100690002EE4920771F41092DE011092DD01809138
:1006A000DB019091DC0101969093DC018093DB01EA
:1006B00006C060ED77E00E942F0D892B79F481E070
:1006C00090E09093DA018093D9018091D7019091C5
:1006D000D80101969093D8018093D701BF91AF9133
:1006E0009F918F917F916F915F912F910F900FBE8E
:1006F0000F901F90189543DFD9DEABDF17BA00D4F7
:10070000789485B5826085BDC6E0D1E06091D30163
:100710007091D401AE018091DB019091DC0109D28E
:100720008091D5019091D601019751F48091D90122
:100730009091DA010E94F80C9093D6018093D50134
:100740008091D3019091D401019781F4B6DE682F96
:100750008091D9019091DA01FDD49093D4018093D6
:10076000D3011092DA011092D901D0CF1092DC019E
:100770001092DB011092DA011092D9019EDECDD3E6
:100780009093D2018093D101019739F474D2909360
:10079000D2018093D1010197C9F38091D101909149
:1007A000D201029749F485ED91E0A1D79093D2014F
:1007B0008093D1010297B9F38091D1019091D20138
:1007C000039749F483ED91E07FD49093D201809315
:1007D000D1010397B9F38091D1019091D20104978F
:1007E00009F094CF1FD09093D2018093D10191D181
:1007F000FC018081918199838883828193819B838D
:100800008A83848195819D838C83BBDD6AE070E05F
:100810008C819D81C9DD8091D1019091D201049795
:1008200009F374CF8091E7019091E801892B81F45D
:1008300060E080E0FADE80E791E0E9DE82E07CDEE5
:100840008EE07ADE81E090E09093E8018093E7010A
:1008500034DE90E0FC017197E437F10508F056C1F1
:10086000EA5BFF4F0C94420D81E3AEDE8091010202
:100870009091020201969093020280930102880FE8
:10088000991FFC01E751FE4F81E090E09183808346
:100890003DC182E399DE80910102909102020196AE
:1008A0009093020280930102880F991FFC01E75187
:1008B000FE4F82E090E09183808328C183E384DE51
:1008C000809101029091020201969093020280931E
:1008D0000102880F991FFC01E751FE4F83E090E071
:1008E0009183808313C184E36FDE80910102909134
:1008F000020201969093020280930102880F991FD1
:10090000FC01E751FE4F84E090E091838083FEC0BC
:1009100085E35ADE80910102909102020196909344
:10092000020280930102880F991FFC01E751FE4FDC
:1009300085E090E091838083E9C086E345DE809185
:1009400001029091020201969093020280930102AB
:10095000880F991FFC01E751FE4F86E090E09183DC
:100960008083D4C087E330DE80910102909102023F
:1009700001969093020280930102880F991FFC0157
:10098000E751FE4F87E090E091838083BFC088E30A
:100990001BDE809101029091020201969093020267
:1009A00080930102880F991FFC01E751FE4F88E0F8
:1009B00090E091838083AAC089E306DE80910102E2
:1009C0009091020201969093020280930102880F97
:1009D000991FFC01E751FE4F89E090E091838083ED
:1009E00095C080E3F1DD80910102909102020196B1
:1009F0009093020280930102880F991FFC01E75136
:100A0000FE4F1182108282C080E196DD809101024A
:100A10009091020201979093020280930102880F45
:100A2000991FFC01E751FE4F118210826FC0809127
:100A300001029091020201969093020280930102BA
:100A400084E17ADDE0910102F0910202EE0FFF1FD6
:100A5000E751FE4F1182108259C01092E8011092A6
:100A6000E70160E080E0E1DD84E891E0D0DD8CE04A
:100A700063DDE9EEF1E0828593859C01220F331F4F
:100A8000880F991F880F991F880F991F820F931F36
:100A900044855585480F591F828993899C01220FEF
:100AA000331F880F991F880F991F880F991F820F76
:100AB000931F24893589280F391FAFEDB1E082815A
:100AC0009381BC01660F771F880F991F880F991FAC
:100AD000880F991F860F971F64817581860F971F56
:100AE00011969C938E9313965C934E931297159642
:100AF0003C932E93149781E090E09093E6018093CD
:100B0000E5011092020210920102089584E090E043
:100B100008958091E5019091E601019739F41092D2
:100B2000E6011092E5018FED91E0089580E090E0FC
:100B30000895FF920F931F93CF93DF93EB01FA0178
:100B40002091070230910802820F931F2CE330E0BE
:100B5000B90185D7F82E492F8091050290910602A0
:100B6000860F971FB9017BD72091030230910402B1
:100B7000620F731F0F2D142FF0920702409308028B
:100B8000282F392F8093050290930602CB0168E14C
:100B900070E065D7909304028093030240815181F5
:100BA00084179507A9F4828193812817390781F466
:100BB000848195810817190759F460E081E035DDDB
:100BC0008BE991E024DD6CE080E02FDD81E6FCDC48
:100BD000CD2B09F04AC060E080E027DD8091030260
:100BE00090910402CAE0D0E0BE0139D7CB01BE012A
:100BF00036D7805DE9DC8091030290910402BE014A
:100C00002ED7805DE1DC88E6DFDC64E080E00DDD8E
:100C10008091050290910602BE0121D7CB01BE0151
:100C20001ED7805DD1DC8091050290910602BE0145
:100C300016D7805DC9DC8DE6C7DC68E080E0F5DCB6
:100C40008091070290910802BE0109D7CB01BE0135
:100C500006D7805DB9DC8091070290910802BE0141
:100C6000FED6805DB1DC83E7AFDCDF91CF911F91D1
:100C70000F91FF9008950F931F93CF938C011DDC6C
:100C8000C82F6091170281E0D0DC80910902909119
:100C90000A02892B79F460E081E0C7DC87EA91E001
:100CA000B6DC60E081E0C1DC81E090E090930A0274
:100CB00080930902C1110DC088E03EDC84EF91E011
:100CC000BCDC8CE039DC84EF91E0B7DC81E090E0C3
:100CD00013C18C2F90E0FC017197E437F10508F007
:100CE000FDC0E654FF4FCEC681E36EDCE0911702F3
:100CF000F0911802EE0FFF1FE55FFD4F81E090E0DD
:100D000091838083EEC082E35FDCE0911702F09173
:100D10001802EE0FFF1FE55FFD4F82E090E0918328
:100D20008083DFC083E350DCE0911702F09118026A
:100D3000EE0FFF1FE55FFD4F83E090E0918380831E
:100D4000D0C084E341DCE0911702F0911802EE0F6D
:100D5000FF1FE55FFD4F84E090E091838083C1C079
:100D600085E332DCE0911702F0911802EE0FFF1FCD
:100D7000E55FFD4F85E090E091838083B2C086E31C
:100D800023DCE0911702F0911802EE0FFF1FE55FE0
:100D9000FD4F86E090E091838083A3C087E314DC5D
:100DA000E0911702F0911802EE0FFF1FE55FFD4F73
:100DB00087E090E09183808394C088E305DCE09134
:100DC0001702F0911802EE0FFF1FE55FFD4F88E05C
:100DD00090E09183808385C089E3F6DBE091170280
:100DE000F0911802EE0FFF1FE55FFD4F89E090E0E4
:100DF0009183808376C080E3E7DBE0911702F09176
:100E00001802EE0FFF1FE55FFD4F1182108269C0CF
:100E100060E081E00ADC8EEA91E0F9DB10921802D2
:100E200010921702F80111821082EBE0F2E080814B
:100E300091819C01220F331F880F991F880F991FE2
:100E4000880F991F820F931F22813381820F931F76
:100E50009093040280930302848195819C01220F68
:100E6000331F880F991F880F991F880F991F820FB2
:100E7000931F26813781820F931F909306028093E0
:100E80000502808591859C01220F331F880F991FD1
:100E9000880F991F880F991F820F931F2285338512
:100EA000820F931F909308028093070210920A0208
:100EB0001092090280E090E01FC0609117027091CB
:100EC000180261507109709318026093170281E053
:100ED000ACDB8FE579DB81E090E00EC081E090E053
:100EE0000BC08091170290911802019690931802FE
:100EF0008093170281E090E0CF911F910F910895A8
:100F000060E080E092DB8EE091E081DB60E081E0F8
:100F10008CDB8FE491E07BCB0895CF93DF93C82FD8
:100F200060E081E082DBC13209F452C0C13409F4CF
:100F30009AC0C13109F09CC08091190290911A02A7
:100F40008130910581F410921A02109219028FE4F7
:100F500091E05DDB81E090E090930D0180930C01C6
:100F6000C0E0D0E087C08230910591F481E090E04C
:100F700090931A02809319028DE391E048DB82E09E
:100F800090E090930D0180930C01C0E0D0E072C01E
:100F9000039791F482E090E090931A0280931902F3
:100FA0008DE291E034DB83E090E090930D0180933B
:100FB0000C01C0E0D0E05EC08FE491E028DB81E06E
:100FC00090E090930D0180930C01C0E0D0E052C0FE
:100FD000C0911902D0911A02209781F481E090E02B
:100FE00090931A02809319028DE391E010DB82E066
:100FF00090E090930D0180930C013CC0C130D1056D
:1010000091F482E090E090931A02809319028DE2AD
:1010100091E0FDDA83E090E090930D0180930C0164
:10102000C0E0D0E027C0229791F483E090E0909355
:101030001A02809319028AE191E0E9DA84E090E0F3
:1010400090930D0180930C01C0E0D0E013C08AE1C1
:1010500091E0DDDA84E090E090930D0180930C0143
:10106000C0E0D0E007C0C0910C01D0910D0102C0DA
:10107000C0E0D0E0CE01DF91CF9108951F920F9292
:101080000FB60F9211242F938F939F9384B195B134
:1010900096958795969587959BBD8ABD80911B02F5
:1010A00090911C02019690931C0280931B02883E33
:1010B000934011F487B387BB9F918F912F910F902D
:1010C0000FBE0F901F9018950F931F93CF938C0115
:1010D0008091210290912202892B71F452D96AE009
:1010E00070E08091F3099091F4095ED960E080E0AE
:1010F0009CDA8FEB91E08BDA81E090E09093220212
:1011000080932102DAD9C82F6AE070E08091F30958
:101110009091F40949D9C134B9F481E090E0F80123
:101120009183808360E080E080DA8CE891E06FDA80
:1011300060E081E07ADA8CE891E069DA60E080E0F2
:1011400074DA80E090E002C083E090E0CF911F91DC
:101150000F910895EF92FF920F931F93CF93DF9318
:101160008C01C62F0ED980911F0290912002892BED
:1011700009F0AEC28091F3099091F409800F911F9C
:10118000883522E0920711F488EE93E09093F409F9
:101190008093F3096AE070E007D9C13121F0C132D0
:1011A00009F4C4C19BC280911F0290912002892B37
:1011B00009F011C1BD9A81E88FBD83E08EBD8FEA31
:1011C00086B9369A80911D0290911E028230910557
:1011D0000CF052C060E029DA8091F3099091F40993
:1011E000E0911D02F0911E02EE0FFF1FED5DFD4F1D
:1011F00091838083C8EED3E0BE0131D480E3860FB3
:10120000E3D98DE6E1D980E2DFD9E0911D02F091CA
:101210001E02EE0FFF1FED5DFD4F80819181BE012B
:101220001ED4C4E6D0E0BE011AD480E3860FCCD928
:10123000E0911D02F0911E02EE0FFF1FED5DFD4FCC
:1012400080819181BE010BD4CAE0D0E0BE0107D4F9
:1012500080E3860FB9D98EE2B7D9E0911D02F091F3
:101260001E02EE0FFF1FED5DFD4F80819181BE01DB
:10127000F6D3805DA9D9A5C0880F991FFC01ED5D4B
:10128000FD4F8091F3099091F4099183808360E090
:1012900080E0CBD9E0911D02F0911E02EE0FFF1FFE
:1012A000EF5DFD4F808191810F2EF8EEEF2EF3E080
:1012B000FF2EF02DB701D3D380E3860F85D98DE6BD
:1012C00083D980E281D9E0911D02F0911E02EE0FD8
:1012D000FF1FEF5DFD4F80819181B701C0D3C4E650
:1012E000D0E0BE01BCD380E3860F6ED9E0911D0231
:1012F000F0911E02EE0FFF1FEF5DFD4F8081918187
:10130000BE01ADD30AE010E0B801A9D380E3860F97
:101310005BD98EE259D9E0911D02F0911E02EE0FC9
:10132000FF1FEF5DFD4F80819181B80198D3805DF3
:101330004BD960E081E079D9E0911D02F0911E0265
:10134000EE0FFF1FED5DFD4F80819181B70187D3C7
:1013500080E3860F39D98DE637D980E235D9E0911F
:101360001D02F0911E02EE0FFF1FED5DFD4F80810B
:101370009181B70174D3BE0172D380E3860F24D963
:10138000E0911D02F0911E02EE0FFF1FED5DFD4F7B
:1013900080819181BE0163D3B80161D380E3860F60
:1013A00013D98EE211D9E0911D02F0911E02EE0FC9
:1013B000FF1FED5DFD4F80819181B80150D3805DAD
:1013C00003D980911D0290911E02019690931E02F6
:1013D00080931D0283C180911D0290911E0202978D
:1013E0000CF47CC160E080E020D9E0911D02F09116
:1013F0001E02EE0FFF1FE15EFD4F808191810F2ED7
:10140000F8EEEF2EF3E0FF2EF02DB70128D380E3A6
:10141000860FDAD88DE6D8D880E2D6D8E0911D02C2
:10142000F0911E02EE0FFF1FE15EFD4F8081918162
:10143000B70115D304E610E0B80111D380E3860F9D
:10144000C3D8E0911D02F0911E02EE0FFF1FE15E76
:10145000FD4F80819181B80102D3CAE0D0E0BE0186
:10146000FED280E3860FB0D88EE2AED8E0911D02A6
:10147000F0911E02EE0FFF1FE15EFD4F8081918112
:10148000BE01EDD2805DA0D860E081E0CED8E091D1
:101490001D02F0911E02EE0FFF1FEF5DFD4F8081D8
:1014A0009181B701DCD280E3860F8ED88DE68CD88F
:1014B00080E28AD8E0911D02F0911E02EE0FFF1F1C
:1014C000EF5DFD4F80819181B701C9D2B801C7D2CC
:1014D00080E3860F79D8E0911D02F0911E02EE0F95
:1014E000FF1FEF5DFD4F80819181B801B8D2BE0131
:1014F000B6D280E3860F68D88EE266D8E0911D02EE
:10150000F0911E02EE0FFF1FEF5DFD4F8081918174
:10151000BE01A5D2805D58D880911D0290911E0217
:10152000019790931E0280931D02D8C080911F02E4
:1015300090912002019709F0BBC0E0911D02F0914B
:101540001E02EE0FFF1FEB5DFD4F80819181892B05
:1015500009F4C4C060E080E068D8E0911D02F09119
:101560001E02EE0FFF1FED5DFD4F808191810F2E5A
:10157000F8EEEF2EF3E0FF2EF02DB70170D280E3EE
:10158000860F22D88DE620D880E21ED8E0911D0279
:10159000F0911E02EE0FFF1FED5DFD4F80819181E6
:1015A000B7015DD204E610E0B80159D280E3860F9E
:1015B0000BD8E0911D02F0911E02EE0FFF1FED5DB2
:1015C000FD4F80819181B8014AD2CAE0D0E0BE01CE
:1015D00046D280E3860F0E94E4028EE20E94E4027B
:1015E000E0911D02F0911E02EE0FFF1FED5DFD4F19
:1015F00080819181BE0133D2805D0E94E40260E06F
:1016000081E013D8E0911D02F0911E02EE0FFF1F42
:10161000EB5DFD4F80819181B70121D280E3860F80
:101620000E94E4028DE60E94E40280E20E94E4024D
:10163000E0911D02F0911E02EE0FFF1FEB5DFD4FCA
:1016400080819181B7010BD2B80109D280E3860F66
:101650000E94E402E0911D02F0911E02EE0FFF1FB6
:10166000EB5DFD4F80819181B801F9D1BE01F7D1C9
:1016700080E3860F0E94E4028EE20E94E402E09181
:101680001D02F0911E02EE0FFF1FEB5DFD4F8081EA
:101690009181BE01E4D1805D0E94E40280911D022F
:1016A00090911E02019690931E0280931D0216C017
:1016B00081E090E09093200280931F0280911D02B0
:1016C00090911E02019790931E0280931D0206C006
:1016D000C13109F480CEC13209F428CF81E090E015
:1016E000DF91CF911F910F91FF90EF900895CF93CD
:1016F000DF93EC018091F7099091F809892BA1F40F
:1017000060E080E00E9415038FEB91E00E940703E8
:1017100082E00E949C028EE00E949C0281E090E0A8
:101720009093F8098093F7090E945D0290E0FC0114
:101730007197E437F10508F056C1E25DFE4FA2C192
:1017400081E30E94E4028091090A90910A0A0196BD
:1017500090930A0A8093090A880F991FFC01E750A9
:10176000F64F81E090E0918380833DC182E30E9447
:10177000E4028091090A90910A0A019690930A0A5C
:101780008093090A880F991FFC01E750F64F82E009
:1017900090E09183808327C183E30E94E4028091DB
:1017A000090A90910A0A019690930A0A8093090AFD
:1017B000880F991FFC01E750F64F83E090E091837A
:1017C000808311C184E30E94E4028091090A909110
:1017D0000A0A019690930A0A8093090A880F991FB2
:1017E000FC01E750F64F84E090E091838083FBC0DA
:1017F00085E30E94E4028091090A90910A0A019609
:1018000090930A0A8093090A880F991FFC01E750F8
:10181000F64F85E090E091838083E5C086E30E94E7
:10182000E4028091090A90910A0A019690930A0AAB
:101830008093090A880F991FFC01E750F64F86E054
:1018400090E091838083CFC087E30E94E40280917F
:10185000090A90910A0A019690930A0A8093090A4C
:10186000880F991FFC01E750F64F87E090E09183C5
:101870008083B9C088E30E94E4028091090A9091B4
:101880000A0A019690930A0A8093090A880F991F01
:10189000FC01E750F64F88E090E091838083A3C07D
:1018A00089E30E94E4028091090A90910A0A019654
:1018B00090930A0A8093090A880F991FFC01E75048
:1018C000F64F89E090E0918380838DC080E30E9491
:1018D000E4028091090A90910A0A019690930A0AFB
:1018E0008093090A880F991FFC01E750F64F118277
:1018F000108279C080E10E949C028091090A909137
:101900000A0A019790930A0A8093090A880F991F7F
:10191000FC01E750F64F1182108265C08091090AE0
:1019200090910A0A019690930A0A8093090A84E129
:101930000E949C02E091090AF0910A0AEE0FFF1F33
:10194000E750F64F118210824EC01092F8091092A3
:10195000F70960E080E00E94150384E891E00E94AE
:1019600007038CE00E949C020E94C101E9EFF9E0AC
:101970004281538188EE93E0489F9001499F300D4A
:10198000589F300D11244085518564E6649FC00145
:10199000659F900D1124820F931F22853385B90115
:1019A000660F771FA901440F551F440F551F440FA1
:1019B000551F9B01240F351F280F391F86859785DA
:1019C000820F931F9093F6098093F5096AE070E007
:1019D0000E94D40110920A0A1092090A81E090E054
:1019E0009983888302C082E090E0DF91CF910895CF
:1019F000CF93DF93C091F509D091F609C81BD90B9D
:101A0000CE0168EE73E02BD0873E934011F4C059AD
:101A1000D140D093F609C093F5096AE070E0CE0199
:101A20000E94D40181E090E0CD2B11F480E090E0A1
:101A3000DF91CF910895AA1BBB1B51E107C0AA1FDC
:101A4000BB1FA617B70710F0A61BB70B881F991F5F
:101A50005A95A9F780959095BC01CD01089597FB03
:101A6000072E16F4009406D077FD08D0E4DF07FCBB
:101A700005D03EF4909581959F4F0895709561959E
:101A80007F4F0895EE0FFF1F0024001C0BBE079030
:0A1A9000F691E02D0994F894FFCFC1
:101A9A00101010101010FFFF00000000010030307D
:101AAA00682030306D2030307300342E20416C6154
:101ABA00726D2020202020202020202000332E207C
:101ACA0053746F70205761746368202000322E208F
:101ADA0054696D65722020202020202020200031AA
:101AEA002E20536574202020202020202020003F13
:101AFA00065B4F666D7D077F6F777C585E79710054
:101B0A003030682030306D20303073202020202083
:101B1A0020202000202020202020202020202020DB
:101B2A002020202020202020202000416C61726D7E
:101B3A0020416C657274005F5F5F5F5F5F00312EEA
:101B4A00205345542020202020202020202000300F
:0E1B5A006D2030302E3073202020202000001F
:00000001FF
