:10000000A5C10000C1C10000BFC10000BDC100000A
:10001000BBC10000B9C10000B7C10000B5C10000FC
:10002000B3C100003AC30000AFC10000ADC1000081
:10003000ABC10000A9C1000014C60000D9C1000076
:10004000A3C10000A1C100009FC100009DC100002C
:100050009BC1000099C1000097C1000095C100003C
:1000600093C1000091C100008FC100008DC100004C
:100070008BC1000089C1000087C1000085C100005C
:1000800083C1000081C100007FC100009605F0041B
:100090001E06DB041E061E061E06C6041E061E06DF
:1000A0001E061E061E061E061E061E06A9052F0596
:1000B0001E061A051E061E061E0605051E061E063F
:1000C0001E061E061E061E061E061E061E061E0610
:1000D0001E061E061E061E061E061E061E061E0600
:1000E0001E061E061E061E061E061E06BF056E0501
:1000F0001E0659051E061E061E0644051E061E0681
:100100001E061E061E061E061E061E061E061E06CF
:100110001E061E061E061E061E061E061E061E06BF
:100120001E061E061E061E061E061E061E061E06AF
:100130001E061E061E061E061E061E061E061E069F
:100140001E061E061E061E061E061E061E061E068F
:100150001E061E061E061E061E061E061E061E067F
:100160001E061E061E061E061E061E0618061E0675
:100170001E0683058307B8069706A9069706970605
:1001800097069A0697069706970697069706970684
:10019000970697069706E5069706D60697069706EA
:1001A0009706C70697069706970697069706970637
:1001B0009706970697069706970697069706970657
:1001C0009706970697069706970697069706970647
:1001D000970697062E0712079706030797069706B6
:1001E0009706F406970697069706970697069706CA
:1001F0009706970697069706970697069706970617
:100200009706970697069706970697069706970606
:1002100097069706970697069706970697069706F6
:1002200097069706970697069706970697069706E6
:1002300097069706970697069706970697069706D6
:1002400097069706970697069706970697069706C6
:10025000970697069407970697062107BA0D0C0D87
:10026000390EF60C390E390E390EE00C390E390EF6
:10027000390E390E390E390E390E390ECE0D4E0D9E
:10028000390E380D390E390E390E220D390E390E50
:10029000390E390E390E390E390E390E390E390E26
:1002A000390E390E390E390E390E390E390E390E16
:1002B000390E390E390E390E390E390EE50D900D05
:1002C000390E7A0D390E390E390E640D390E390E8C
:1002D000390E390E390E390E390E390E390E390EE6
:1002E000390E390E390E390E390E390E390E390ED6
:1002F000390E390E390E390E390E390E390E390EC6
:10030000390E390E390E390E390E390E390E390EB5
:10031000390E390E390E390E390E390E390E390EA5
:10032000390E390E390E390E390E390E390E390E95
:10033000390E390E390E390E390E390E330E390E8B
:10034000390EA60D390E390E390EE50D11241FBEDA
:10035000CFEFD0E1DEBFCDBF11E0A0E0B1E0EEE62F
:10036000FFE100E00BBF02C007900D92A03FB10774
:10037000D9F72AE0A0EFB1E001C01D92A533B20782
:10038000E1F748D20C94B50F3BCE82B3806F82BBAD
:1003900081B3806F81BB8FEF8ABB88E083BF8EE41F
:1003A00081BF87B7826087BF83B7876083BF0895A7
:1003B000CF93DF93EB0127B72D7F27BFE6E0F1E076
:1003C000108220E1218322832383248325832BE051
:1003D00031E0BE010E94640E8193862F972FE217B1
:1003E000F307B9F787B7826087BFDF91CF91089590
:1003F0001F920F920FB60F9211240BB60F922F93EC
:100400008F939F93EF93FF9322B380E190E000904E
:10041000F00102C0880F991F0A94E2F78095807F4F
:10042000922F9F70892B82BBE091F001F091F10136
:10043000EA5FFE4FE081F0E0E358FE4F8081809557
:100440008BBB8091F0019091F10101968430910570
:1004500029F09093F1018093F00104C01092F10112
:100460001092F001FF91EF919F918F912F910F903A
:100470000BBE0F900FBE0F901F9018958EEF8093BC
:100480006200000080B18095807F69F423E092E0F3
:10049000E2E6F0E0892F80958083000080B18095AE
:1004A000807F21F001C091E0890F0895990F2150BC
:1004B00089F7089580EF809362008FE08093610058
:1004C0000895CF93DBDFC82F01C0C82F8FE39CE9CD
:1004D0000197F1F700C000008FE39CE90197F1F765
:1004E00000C000008FE39CE90197F1F700C0000015
:1004F000C5DFC813EACF982F907F19F41092F2014C
:1005000009C09091F201891721F08093F201982F90
:1005100001C090E0892FCF910895982F907F94602B
:1005200095BB9B7F95BB20E18202C00111248460B2
:1005300085BB8B7F85BB85E08A95F1F70000089528
:10054000CF93C82F85E38A95F1F7000095E39A953C
:10055000F1F7000085E38A95F1F7000095E39A959D
:10056000F1F7000085E38A95F1F700008C2FD5DFC5
:10057000C150C23030F48FE39FE10197F1F700C022
:100580000000CF9108958FEF84BB8FE59AEE01971D
:10059000F1F700C0000080E3C0DF8FE19EE4019727
:1005A000F1F700C0000080E3B8DF8FE99FE001971A
:1005B000F1F700C0000082E3B0DF88E2C1DF88E02D
:1005C000BFDF81E0BDDF86E0BBDF8CE0B9CF0895FF
:1005D00025E32A95F1F7000095E39A95F1F70000DD
:1005E00025E32A95F1F7000095E39A95F1F70000CD
:1005F00025E32A95F1F70000982F907F956095BB31
:100600009B7F95BB20E18202C0011124856085BBE0
:100610008B7F85BB0895CF93DF93EC01888188237E
:1006200029F02196D5DF89918111FCCFDF91CF91FF
:10063000089590E4899F600D1124862F806880CFF3
:1006400008950F931F93CF93DF938B0128E08202CD
:10065000C0011124806474DFE801085F1F4F899195
:10066000B7DFC017D107D9F7DF91CF911F910F9155
:1006700008951816190644F4EFE9FFE03197F1F7F1
:1006800000C000000197C1F7089585B5886085BD59
:1006900084E683BD80E887BF08951F920F920FB64E
:1006A0000F9211242F935F936F937F938F939F9358
:1006B000AF93BF938091FF019091000201969093B8
:1006C00000028093FF0180322EE4920771F41092B1
:1006D00000021092FF018091FD019091FE010196B0
:1006E0009093FE018093FD0106C060ED77E00E94CB
:1006F000780E892B79F481E090E09093FC0180934F
:10070000FB018091F9019091FA0101969093FA0111
:100710008093F901BF91AF919F918F917F916F91DC
:100720005F912F910F900FBE0F901F9018950F9310
:100730001F93CF93DF93CDB7DEB768970FB6F894CA
:10074000DEBF0FBECDBF84E190E00E94940E8C010D
:1007500088E0E5E6F1E0DE01119601900D928A95C0
:10076000E1F788E0EDE6F1E0DE01199601900D92E7
:100770008A95E1F788E0E5E7F1E0DE015196019026
:100780000D928A95E1F7BE016F5F7F4F81E059DFDF
:10079000BE01675F7F4F82E054DFBE016F5E7F4F17
:1007A00083E04FDF81E0F801808382E0818383E092
:1007B000828387E2838383E7848380E2858387E57E
:1007C000868381E6878384E7808783E6818788E65E
:1007D0008287138660E080E02CDFC8011CDF03E025
:1007E00010E08CE0ADDE84EF91E043DF88E0A8DE2E
:1007F00084EF91E03EDF0150110999F7C4DE68965D
:100800000FB6F894DEBF0FBECDBFDF91CF911F9121
:100810000F910895CCE0D1E00C2F1D2FB4DE4ADEFD
:1008200034DF85DF97D4789485B5826085BD60918B
:10083000F5017091F601402F512F8091FD019091AB
:10084000FE01E6D38091F7019091F801019751F4F0
:100850008091FB019091FC010E943E0E9093F80163
:100860008093F7018091F5019091F601019781F451
:1008700028DE682F8091FB019091FC0174D5909344
:10088000F6018093F5011092FC011092FB01CFCF8D
:100890001092FE011092FD011092FC011092FB01DA
:1008A00010DE65D49093F4018093F301019739F43D
:1008B00006D29093F4018093F3010197C9F38091DC
:1008C000F3019091F401029751F487EF91E00E94B7
:1008D000B70C9093F4018093F3010297B1F38091E8
:1008E000F3019091F401039749F485EF91E0F0D47E
:1008F0009093F4018093F3010397B9F38091F3018E
:100900009091F40184309105D1F41ED09093F401BC
:100910008093F30196D1FC01808191819983888332
:10092000828193819B838A83848195819D838C833B
:100930008091F3019091F4018430910531F38D3968
:100940009F4F09F074CF6ACF8091090290910A02FB
:10095000892B81F460E080E06CDE8EE891E05BDE64
:1009600082E0EEDD8EE0ECDD81E090E090930A0223
:1009700080930902A6DD90E0FC017197E437F10550
:1009800008F05CC1EA5BFF4F0C948B0E81E320DE24
:1009900080912302909124020196909324028093E7
:1009A0002302880F991FFC01E55FFD4F81E090E075
:1009B0009183808340C182E30BDE8091230290917A
:1009C000240201969093240280932302880F991F9A
:1009D000FC01E55FFD4F82E090E0918380832BC1B5
:1009E00083E3F6DD80912302909124020196909397
:1009F000240280932302880F991FFC01E55FFD4FBD
:100A000083E090E09183808316C184E3E1DD8091EF
:100A10002302909124020196909324028093230252
:100A2000880F991FFC01E55FFD4F84E090E0918302
:100A3000808301C185E3CCDD809123029091240263
:100A400001969093240280932302880F991FFC0142
:100A5000E55FFD4F85E090E091838083ECC086E305
:100A6000B7DD809123029091240201969093240295
:100A700080932302880F991FFC01E55FFD4F86E0FC
:100A800090E091838083D7C087E3A2DD8091230229
:100A90009091240201969093240280932302880F60
:100AA000991FFC01E55FFD4F87E090E09183808313
:100AB000C2C088E38DDD80912302909124020196CB
:100AC0009093240280932302880F991FFC01E55F15
:100AD000FD4F88E090E091838083ADC089E378DDAD
:100AE0008091230290912402019690932402809396
:100AF0002302880F991FFC01E55FFD4F89E090E01C
:100B00009183808398C080E363DD8091230290917C
:100B1000240201969093240280932302880F991F48
:100B2000FC01E55FFD4F1182108285C080E108DD88
:100B30008091230290912402019790932402809344
:100B40002302880F991FFC01E55FFD4F118210827F
:100B500075C0809123029091240201969093240203
:100B60008093230284E1ECDCE0912302F0912402E3
:100B7000EE0FFF1FE55FFD4F118210825FC01092E4
:100B80000A021092090260E080E053DD82EA91E0FF
:100B900042DD8CE0D5DCEBE0F2E0828593859C01C0
:100BA000220F331F880F991F880F991F880F991FD5
:100BB000820F931F44855585480F591F8289938959
:100BC0009C01220F331F880F991F880F991F880FD0
:100BD000991F820F931F24893589280F391FA1E09F
:100BE000B2E082819381BC01660F771F880F991F45
:100BF000880F991F880F991F860F971F6481758131
:100C0000860F971F11969C938E9313965C934E9329
:100C1000129715963C932E93149781E090E0909351
:100C20000802809307021092240210922302089572
:100C30008DE99FEF089584E090E0089584E090E0CE
:100C400008958091070290910802019739F410925B
:100C500008021092070281E092E0089580E090E09F
:100C600008951F920F920FB60F9211248F939F93A6
:100C700080912502909126020196909326028093FE
:100C800025024E97ACF08091290290912A0284307F
:100C9000910531F0019690932A028093290204C0B5
:100CA00010922A0210922902109226021092250216
:100CB0009F918F910F900FBE0F901F9018950F93DB
:100CC0001F93CF938C01FDDBC82F60913F0281E021
:100CD000B0DC8091310290913202892B79F460E08E
:100CE00081E0A7DC89EB91E096DC60E081E0A1DCAB
:100CF00081E090E09093320280933102C1110DC0E7
:100D000088E01EDC84EF91E0B4DC8CE019DC84EF39
:100D100091E0AFDC81E090E015C18C2F90E0FC0108
:100D20007197E437F10518F4E654FF4FF4C781E0FA
:100D300090E008C181E34CDCE0913F02F091400279
:100D4000EE0FFF1FED5CFD4F81E090E0918380830B
:100D5000EEC082E33DDCE0913F02F0914002EE0FF5
:100D6000FF1FED5CFD4F82E090E091838083DFC048
:100D700083E32EDCE0913F02F0914002EE0FFF1F73
:100D8000ED5CFD4F83E090E091838083D0C084E3ED
:100D90001FDCE0913F02F0914002EE0FFF1FED5C7F
:100DA000FD4F84E090E091838083C1C085E310DC37
:100DB000E0913F02F0914002EE0FFF1FED5CFD4F0E
:100DC00085E090E091838083B2C086E301DCE0910E
:100DD0003F02F0914002EE0FFF1FED5CFD4F86E0F9
:100DE00090E091838083A3C087E3F2DBE0913F0230
:100DF000F0914002EE0FFF1FED5CFD4F87E090E0A9
:100E00009183808394C088E3E3DBE0913F02F0911B
:100E10004002EE0FFF1FED5CFD4F88E090E09183F4
:100E2000808385C089E3D4DBE0913F02F0914002EA
:100E3000EE0FFF1FED5CFD4F89E090E09183808312
:100E400076C080E3C5DBE0913F02F0914002EE0FF7
:100E5000FF1FED5CFD4F1182108269C060E081E0F0
:100E6000E8DB80EC91E0D7DB1092400210923F0269
:100E7000F80111821082E3E3F2E0808191819C010C
:100E8000220F331F880F991F880F991F880F991FF2
:100E9000820F931F22813381820F931F90932C0224
:100EA00080932B02848195819C01220F331F880F30
:100EB000991F880F991F880F991F820F931F2681F2
:100EC0003781820F931F90932E0280932D0280858D
:100ED00091859C01220F331F880F991F880F991F3E
:100EE000880F991F820F931F22853385820F931FCE
:100EF0009093300280932F021092320210923102AE
:100F000080E090E01FC060913F027091400261500C
:100F100071097093400260933F0281E08ADB8FE5A4
:100F200057DB81E090E00EC08DE99FEF0BC0809110
:100F30003F029091400201969093400280933F02BD
:100F400081E090E0CF911F910F9108958EB582605E
:100F50008EBD1DBC1CBC87B7846087BF789410927F
:100F600026021092250208958FEF82B987BB109256
:100F70002A021092290210922802109227029CEF56
:100F800093B988BBE7E2F2E041E050E06FEF38C090
:100F900020912702309128022F5F3F4F28303105E2
:100FA00029F0309328022093270204C010922802CF
:100FB00010922702DC01A352BE4F8C9183B9CA0163
:100FC000008002C0880F991F0A94E2F788BB8091C5
:100FD0002F029091300201969093300280932F025D
:100FE0008091290290912A02049751F463B980916B
:100FF000290290912A02019690932A028093290255
:101000008091290290912A02853091050CF2089571
:10101000FF920F931F93CF93DF93EB01FA0120917F
:101020002F0230913002820F931F2CE330E0B90180
:101030005FD6F82E492F80912D0290912E02860FB7
:10104000971FB90155D620912B0230912C02620FC7
:10105000731F0F2D142FF0922F0240933002282F70
:10106000392F80932D0290932E02CB0168E170E01E
:101070003FD690932C0280932B024081518184179C
:101080009507A9F4828193812817390781F4848117
:1010900095810817190759F460E081E0CADA81EDFB
:1010A00091E0B9DA53DF60DF8EB582608EBDCD2B63
:1010B00009F04AC060E080E0BCDA80912B02909198
:1010C0002C02CAE0D0E0BE0113D6CB01BE0110D67F
:1010D000805D7EDA80912B0290912C02BE0108D6B1
:1010E000805D76DA88E674DA64E080E0A2DA8091E6
:1010F0002D0290912E02BE01FBD5CB01BE01F8D589
:10110000805D66DA80912D0290912E02BE01F0D5AD
:10111000805D5EDA8DE65CDA68E080E08ADA8091F4
:101120002F0290913002BE01E3D5CB01BE01E0D584
:10113000805D4EDA80912F0290913002BE01D8D5A9
:10114000805D46DA83E744DADF91CF911F910F91FA
:10115000FF90089560E080E06CDA84E191E05BDA72
:1011600060E081E066DA85E591E055CA0895CF93A5
:10117000DF93C82F60E081E05CDAC13209F452C02D
:10118000C13409F49AC0C13109F09CC08091410278
:10119000909142028130910581F4109242021092A6
:1011A000410285E591E037DA81E090E09093130108
:1011B00080931201C0E0D0E087C08230910591F4A5
:1011C00081E090E0909342028093410283E491E0B9
:1011D00022DA82E090E09093130180931201C0E044
:1011E000D0E072C0039791F482E090E090934202C5
:1011F0008093410283E391E00EDA83E090E09093E4
:10120000130180931201C0E0D0E05EC085E591E05B
:1012100002DA81E090E09093130180931201C0E024
:10122000D0E052C0C0914102D0914202209781F497
:1012300081E090E0909342028093410283E491E048
:10124000EAD982E090E090931301809312013CC0B0
:10125000C130D10591F482E090E0909342028093F6
:10126000410283E391E0D7D983E090E090931301AA
:1012700080931201C0E0D0E027C0229791F483E070
:1012800090E0909342028093410280E291E0C3D9C2
:1012900084E090E09093130180931201C0E0D0E0CD
:1012A00013C080E291E0B7D984E090E090931301FD
:1012B00080931201C0E0D0E007C0C0911201D0912C
:1012C000130102C0C0E0D0E0CE01DF91CF910895BC
:1012D0000F931F93CF938C01809147029091480206
:1012E000892B71F452D86AE070E08091190A9091CC
:1012F0001A0A5ED860E080E09CD981EE91E08BD93B
:1013000081E090E09093480280934702DAD8C82F9A
:101310006AE070E08091190A90911A0A49D8C134A4
:1013200029F0C138D1F083E090E019C081E090E06D
:10133000F8019183808360E080E07BD98AEA91E0C4
:101340006AD960E081E075D98AEA91E064D960E009
:1013500080E06FD980E090E002C08DE99FEFCF91EF
:101360001F910F910895CF92DF92EF92FF920F930A
:101370001F93CF93DF938C01C62F07D8809145022E
:1013800090914602892B09F0DFC28091190A909151
:101390001A0A800F911F883522E0920711F488EE17
:1013A00093E090931A0A8093190A6AE070E000D8DB
:1013B000C13209F4E2C1C13809F4BDC2C13119F02A
:1013C000C1E0D0E0CAC28091450290914602892BCB
:1013D00009F017C18FEF80936400C5E6D0E08FE07D
:1013E000888384E690E045D91882809143029091E9
:1013F0004402823091050CF052C060E01AD980910D
:10140000190A90911A0AE0914302F0914402EE0FFA
:10141000FF1FE75BFD4F91838083C8EED3E0BE01E1
:1014200067D480E3860FD4D88DE6D2D880E2D0D8B6
:10143000E0914302F0914402EE0FFF1FE75BFD4F86
:1014400080819181BE0154D4C4E6D0E0BE0150D465
:1014500080E3860FBDD8E0914302F0914402EE0F85
:10146000FF1FE75BFD4F80819181BE0141D4CAE03F
:10147000D0E0BE013DD480E3860FAAD88EE2A8D882
:10148000E0914302F0914402EE0FFF1FE75BFD4F36
:1014900080819181BE012CD4805D9AD8A6C0880F2E
:1014A000991FFC01E75BFD4F8091190A90911A0A80
:1014B0009183808360E080E0BCD8E0914302F091AA
:1014C0004402EE0FFF1FE95BFD4F808191810F2EDB
:1014D000F8EEEF2EF3E0FF2EF02DB70109D480E3F4
:1014E000860F76D88DE674D880E272D8E0914302F8
:1014F000F0914402EE0FFF1FE95BFD4F8081918167
:10150000B701F6D304E610E0B801F2D380E3860F0A
:101510005FD8E0914302F0914402EE0FFF1FE95BB8
:10152000FD4F80819181B801E3D3CAE0D0E0BE01D4
:10153000DFD380E3860F4CD88EE24AD8E091430295
:10154000F0914402EE0FFF1FE95BFD4F8081918116
:10155000BE01CED3805D3CD860E081E06AD8E091E6
:101560004302F0914402EE0FFF1FE75BFD4F8081C5
:101570009181B701BDD380E3860F2AD88DE628D8A4
:1015800080E226D8E0914302F0914402EE0FFF1F63
:10159000E75BFD4F80819181B701AAD3B801A8D341
:1015A00080E3860F15D8E0914302F0914402EE0FDC
:1015B000FF1FE75BFD4F80819181B80199D3BE0188
:1015C00097D380E3860F04D88EE202D8E0914302DD
:1015D000F0914402EE0FFF1FE75BFD4F8081918188
:1015E000BE0186D3805D0E94E80280914302909103
:1015F000440201969093440280934302C1E0D0E0FC
:10160000ACC1809143029091440202970CF496C1C0
:1016100060E080E00ED8E0914302F0914402EE0FCA
:10162000FF1FEB5BFD4F808191810F2EF8EEEF2EB7
:10163000F3E0FF2EF02DB7015BD380E3860F0E940D
:10164000E8028DE60E94E80280E20E94E802E09152
:101650004302F0914402EE0FFF1FEB5BFD4F8081D0
:101660009181B70145D304E610E0B80141D380E38E
:10167000860F0E94E802E0914302F0914402EE0FCF
:10168000FF1FEB5BFD4F80819181B80131D3CAE030
:10169000D0E0BE012DD380E3860F0E94E8028EE2E7
:1016A0000E94E802E0914302F0914402EE0FFF1F16
:1016B000EB5BFD4F80819181BE011AD3805D0E945A
:1016C000E80260E081E00E941903E0914302F0919A
:1016D0004402EE0FFF1FE95BFD4F80819181B7014E
:1016E00007D380E3860F0E94E8028DE60E94E8029D
:1016F00080E20E94E802E0914302F0914402EE0F82
:10170000FF1FE95BFD4F80819181B701F1D2B801E4
:10171000EFD280E3860F0E94E802E0914302F0914D
:101720004402EE0FFF1FE95BFD4F80819181B801FC
:10173000DFD2BE01DDD280E3860F0E94E8028EE296
:101740000E94E802E0914302F0914402EE0FFF1F75
:10175000E95BFD4F80819181BE01CAD2805D0E940C
:10176000E8028091430290914402019790934402D1
:1017700080934302C1E0D0E0F0C0C0914502D09117
:101780004602C130D10509F0C4C0E0914302F09196
:101790004402EE0FFF1FE55BFD4F80819181892B95
:1017A00009F4DBC060E080E00E941903E09143028D
:1017B000F0914402EE0FFF1FE75BFD4F80819181A6
:1017C0000F2EF8EECF2EF3E0DF2EF02DB60190D2E3
:1017D00080E3860F0E94E8028DE60E94E80280E224
:1017E0000E94E802E0914302F0914402EE0FFF1FD5
:1017F000E75BFD4F80819181B6017AD20F2EF4E62E
:10180000EF2EF12CF02DB70173D280E3860F0E94EA
:10181000E802E0914302F0914402EE0FFF1FE75B04
:10182000FD4F80819181B70163D20AE010E0B801D9
:101830005FD280E3860F0E94E8028EE20E94E802F7
:10184000E0914302F0914402EE0FFF1FE75BFD4F72
:1018500080819181B8014CD2805D0E94E80260E0F5
:1018600081E00E941903E0914302F0914402EE0FDF
:10187000FF1FE55BFD4F80819181B60139D280E386
:10188000860F0E94E8028DE60E94E80280E20E9434
:10189000E802E0914302F0914402EE0FFF1FE55B86
:1018A000FD4F80819181B60123D2B70121D280E31F
:1018B000860F0E94E802E0914302F0914402EE0F8D
:1018C000FF1FE55BFD4F80819181B70111D2B80107
:1018D0000FD280E3860F0E94E8028EE20E94E802A7
:1018E000E0914302F0914402EE0FFF1FE55BFD4FD4
:1018F00080819181B801FCD1805D0E94E8028091D5
:1019000043029091440201969093440280934302D3
:1019100024C081E090E0909346028093450280913C
:1019200043029091440201979093440280934302B2
:10193000C1E0D0E012C0CDE9DFEF0FC0C1E0D0E0E0
:101940000CC0CDE9DFEF09C0C13209F416CFC138B0
:10195000C1F3C13109F034CD54CECE01DF91CF9126
:101960001F910F91FF90EF90DF90CF900895CF934C
:10197000DF93EC0180911D0A90911E0A892BA1F43E
:1019800060E080E00E94190381EE91E00E940B0369
:1019900082E00E94A0028EE00E94A00281E090E01E
:1019A00090931E0A80931D0A0E94610290E0FC0140
:1019B0007197E837F10508F05CC1E25DFE4FABC1FD
:1019C00081E30E94E80280912F0A9091300A0196EB
:1019D0009093300A80932F0A880F991FFC01E15ED3
:1019E000F54F81E090E09183808340C182E30E94C3
:1019F000E80280912F0A9091300A01969093300A64
:101A000080932F0A880F991FFC01E15EF54F82E059
:101A100090E0918380832AC183E30E94E802809151
:101A20002F0A9091300A01969093300A80932F0AE2
:101A3000880F991FFC01E15EF54F83E090E09183F0
:101A4000808314C184E30E94E80280912F0A909160
:101A5000300A01969093300A80932F0A880F991FBD
:101A6000FC01E15EF54F84E090E091838083FEC04D
:101A700085E30E94E80280912F0A9091300A019636
:101A80009093300A80932F0A880F991FFC01E15E22
:101A9000F54F85E090E091838083E8C086E30E9463
:101AA000E80280912F0A9091300A01969093300AB3
:101AB00080932F0A880F991FFC01E15EF54F86E0A5
:101AC00090E091838083D2C087E30E94E8028091F6
:101AD0002F0A9091300A01969093300A80932F0A32
:101AE000880F991FFC01E15EF54F87E090E091833C
:101AF0008083BCC088E30E94E80280912F0A909105
:101B0000300A01969093300A80932F0A880F991F0C
:101B1000FC01E15EF54F88E090E091838083A6C0F0
:101B200089E30E94E80280912F0A9091300A019681
:101B30009093300A80932F0A880F991FFC01E15E71
:101B4000F54F89E090E09183808390C080E30E940C
:101B5000E80280912F0A9091300A01969093300A02
:101B600080932F0A880F991FFC01E15EF54F1182C7
:101B700010827CC080E10E94A00280912F0A909187
:101B8000300A01979093300A80932F0A880F991F8B
:101B9000FC01E15EF54F118210826BC080912F0A2B
:101BA0009091300A01969093300A80932F0A84E135
:101BB0000E94A002E0912F0AF091300AEE0FFF1F61
:101BC000E15EF54F1182108254C010921E0A1092ED
:101BD0001D0A60E080E00E94190382EA91E00E9401
:101BE0000B038CE00E94A0020E94C501EFE1FAE025
:101BF0004281538188EE93E0489F9001499F300DC8
:101C0000589F300D11244085518564E6649FC001C2
:101C1000659F900D1124820F931F22853385B90192
:101C2000660F771FA901440F551F440F551F440F1E
:101C3000551F9B01240F351F280F391F8685978557
:101C4000820F931F90931C0A80931B0A6AE070E036
:101C50000E94D8011092300A10922F0A81E090E081
:101C60009983888308C08DE99FEF05C082E090E0EA
:101C700002C082E090E0DF91CF910895CF93DF938F
:101C8000C0911B0AD0911C0AC81BD90BCE0168EE6B
:101C900073E02ED0873E934011F4C059D140D093C9
:101CA0001C0AC0931B0A6AE070E0CE010E94D801B2
:101CB000CD2B29F44BD958D980E090E002C081E0C7
:101CC00090E0DF91CF910895AA1BBB1B51E107C0A3
:101CD000AA1FBB1FA617B70710F0A61BB70B881FBC
:101CE000991F5A95A9F780959095BC01CD0108954B
:101CF00097FB072E16F4009406D077FD08D0E4DF9A
:101D000007FC05D03EF4909581959F4F08957095FE
:101D100061957F4F0895EE0FFF1F0024001C0BBE3E
:101D20000790F691E02D09940F931F93CF93DF93C3
:101D30008230910510F482E090E0E091330AF09156
:101D4000340A20E030E0A0E0B0E0309719F14081A3
:101D500051810281138148175907C8F084179507EC
:101D600069F4109731F012960C93129713961C9306
:101D700027C00093330A1093340A22C0211531057D
:101D800019F04217530718F49A01BD01EF01DF0162
:101D9000F801DBCF21153105F9F0281B390B243070
:101DA000310580F48A819B816115710521F0FB0169
:101DB0009383828304C09093340A8093330AFE0194
:101DC000329644C0FE01E20FF31F8193919322509B
:101DD0003109398328833AC02091310A3091320A7F
:101DE000232B41F420910201309103013093320AF8
:101DF0002093310A20910001309101012115310514
:101E000041F42DB73EB74091040150910501241BC8
:101E1000350BE091310AF091320AE217F307A0F492
:101E20002E1B3F0B2817390778F0AC014E5F5F4F30
:101E30002417350748F04E0F5F1F5093320A409326
:101E4000310A8193919302C0E0E0F0E0CF01DF918D
:101E5000CF911F910F910895CF93DF93009709F4CD
:101E600081C0FC01329713821282A091330AB09193
:101E7000340A109781F420813181820F931F2091C1
:101E8000310A3091320A2817390751F5F093320A96
:101E9000E093310A67C0ED0120E030E0CE17DF07A4
:101EA00040F44A815B819E0141155105F1F0EA0140
:101EB000F5CFD383C28340815181840F951FC8170A
:101EC000D90759F488819981840F951F02969183CF
:101ED00080838A819B81938382832115310529F434
:101EE000F093340AE093330A3DC0E901FB83EA83AF
:101EF00049915991C40FD51FEC17FD0761F48081FA
:101F00009181840F951F0296E901998388838281CC
:101F100093819B838A83E0E0F0E012968D919C91FF
:101F20001397009719F0FD01DC01F7CF8D919C917B
:101F300011979D012E5F3F4F820F931F2091310A11
:101F40003091320A2817390769F4309729F4109232
:101F5000340A1092330A02C013821282B093320AFA
:0E1F6000A093310ADF91CF910895F894FFCF3E
:101F6E000000350A2000101010101010FFFF0000A6
:101F7E00000001003030682030306D2030307300AA
:101F8E00342E20416C61726D2020202020202020D4
:101F9E00202000332E2053746F70205761746368B5
:101FAE00202000322E2054696D65722020202020C2
:101FBE002020202000312E20536574202020202048
:101FCE002020202000021A1F1E021C040402021AE6
:101FDE000B0A0A0200021E0A0E080C120C3F065BC8
:101FEE004F666D7D077F6F777C585E79710030305C
:101FFE00682030306D2030307320202020202020AB
:10200E0020002020202020202020202020202020E2
:10201E002020202020202020005F5F5F5F5F5F0078
:10202E00312E2053455420202020202020202020F7
:10203E0000416C61726D20416C65727400FCF3CFCF
:10204E003F306D2030302E307320202020200000B5
:00000001FF
