S01300007465726D70726F6A6563742E7372656362
S11300002DC1000048C1000046C1000044C10000E9
S113001042C1000040C100003EC100003CC10000DC
S11300203AC10000A3C2000036C1000034C1000080
S113003032C1000030C100002EC100005AC10000CE
S11300402AC1000028C1000026C1000024C100000C
S113005022C1000020C100001EC100001CC100001C
S11300601AC1000018C1000016C1000014C100002C
S113007012C1000010C100000EC100000CC100003C
S11300800AC1000008C1000006C10000D30408042E
S1130090E404F903E404E404E404EA03E404E40403
S11300A0E404E404E404E404E404E404E4043504BB
S11300B0E4042604E404E404E4041704E404E40487
S11300C0E404E404E404E404E404E404E404E404EC
S11300D0E404E404E404E404E404E404E404E404DC
S11300E0E404E404E404E404E404E4047E046204B4
S11300F0E4045304E404E404E4044404E404E404ED
S1130100E404E404E404E404E404E404E404E404AB
S1130110E404E404E404E404E404E404E404E4049B
S1130120E404E404E404E404E404E404E404E4048B
S1130130E404E404E404E404E404E404E404E4047B
S1130140E404E404E404E404E404E404E404E4046B
S1130150E404E404E404E404E404E404E404E4045B
S1130160E404E404E404E404E404E404E404E4044B
S1130170E4047104A80602061A07ED051A071A0713
S11301801A07D8051A071A071A071A071A071A07A7
S11301901A071A07BB0641061A072C061A071A077C
S11301A01A0717061A071A071A071A071A071A0747
S11301B01A071A071A071A071A071A071A071A0733
S11301C01A071A071A071A071A071A071A071A0723
S11301D01A071A07D10680061A076B061A071A07A8
S11301E01A0756061A071A071A071A071A071A07C8
S11301F01A071A071A071A071A071A071A071A07F3
S11302001A071A071A071A071A071A071A071A07E2
S11302101A071A071A071A071A071A071A071A07D2
S11302201A071A071A071A071A071A071A071A07C2
S11302301A071A071A071A071A071A071A071A07B2
S11302401A071A071A071A071A071A071A071A07A2
S11302501A071A071A071A071A07950611241FBE48
S1130260CFEFD0E1DEBFCDBF11E0A0E0B1E0E6EE1C
S1130270FEE000E00BBF02C007900D92A83AB10760
S1130280D9F721E0A8EAB1E001C01D92A33EB2076C
S1130290E1F7ACD126C6B4CE82B3806F82BB81B302
S11302A0806F81BB8FEF8ABB88E083BF8EE481BF00
S11302B087B7826087BF83B7876083BF08959B0138
S11302C047B74D7F47BFE0E0F1E0108240E1418352
S11302D04283438344834583009739F0B901D1D5E0
S11302E08193862F972F0097C9F787B7826087BFBE
S11302F008951F920F920FB60F9211240BB60F920E
S11303002F938F939F93EF93FF9322B380E190E019
S11303100090A80102C0880F991F0A94E2F7809503
S1130320807F922F9F70892B82BBE091A801F0916E
S1130330A901E050FF4FE081F0E0E75AFE4F8081D1
S113034080958BBB8091A8019091A901019684307E
S1130350910529F09093A9018093A80104C01092FB
S1130360A9011092A801FF91EF919F918F912F9174
S11303700F900BBE0F900FBE0F901F9018958EEF2D
S113038080936200000080B18095807F69F423E04F
S113039092E0E2E6F0E0892F80958083000080B14E
S11303A08095807F21F001C091E0890F0895990F15
S11303B0215089F7089580EF809362008FE0809345
S11303C061000895CF93DBDFC82F01C0C82F8FE3EE
S11303D09CE90197F1F700C000008FE39CE90197C5
S11303E0F1F700C000008FE39CE90197F1F700C02A
S11303F00000C5DFC813EACF982F907F19F410923C
S1130400AA0109C09091AA01891721F08093AA0139
S1130410982F01C090E0892FCF910895982F907F55
S1130420946095BB9B7F95BB20E18202C00111249F
S1130430846085BB8B7F85BB85E08A95F1F70000DE
S11304400895CF93C82F85E38A95F1F7000095E3CB
S11304509A95F1F7000085E38A95F1F7000095E39A
S11304609A95F1F7000085E38A95F1F700008C2F47
S1130470D5DFC150C23030F48FE39FE10197F1F72B
S113048000C00000CF9108958FEF84BB8FE59AEEF2
S11304900197F1F700C0000080E3C0DF8FE19EE424
S11304A00197F1F700C0000080E3B8DF8FE99FE017
S11304B00197F1F700C0000082E3B0DF88E2C1DFFA
S11304C088E0BFDF81E0BDDF86E0BBDF8CE0B9CF31
S11304D0089525E32A95F1F7000095E39A95F1F73D
S11304E0000025E32A95F1F7000095E39A95F1F7CA
S11304F0000025E32A95F1F70000982F907F95607E
S113050095BB9B7F95BB20E18202C00111248560CD
S113051085BB8B7F85BB0895CF93DF93EC018881E6
S1130520882329F02196D5DF89918111FCCFDF91B1
S1130530CF91089590E4899F600D1124862F8068DF
S113054080CF08951816190644F4EFE9FFE03197B7
S1130550F1F700C000000197C1F7089585B58860E0
S113056085BD84E683BD80E887BF08951F920F92FE
S11305700FB60F9211242F935F936F937F938F93F2
S11305809F93AF93BF938091B3019091B40101966F
S11305909093B4018093B30180322EE4920771F4F6
S11305A01092B4011092B3018091B1019091B20103
S11305B001969093B2018093B10105C060ED77E09C
S11305C074D4892B31F481E090E09093B00180934E
S11305D0AF01BF91AF919F918F917F916F915F9187
S11305E02F910F900FBE0F901F9018954DDFE3DEF3
S11305F0B5DFFCD1789485B5826085BD8091B10169
S11306009091B20136D08091AD019091AE010197E5
S113061049F48091AF019091B00111D49093AE014F
S11306208093AD011092B2011092B1011092B00109
S11306301092AF01C7DEE7D19093AC018093AB0178
S1130640019739F48ED09093AC018093AB0101975C
S1130650C9F38091AB019091AC01029779F68DEAD0
S113066091E082D29093AC018093AB010297B9F3ED
S1130670C5CFCF93DF932091B9013091BA01820F96
S1130680931F2CE330E0B90110D4FC018091B70131
S11306909091B801860F971FB90107D42091B50135
S11306A03091B601620F731FF093BA01E093B90160
S11306B09093B8018093B701CB0168E170E0F5D362
S11306C09093B6018093B50160E080E033DF8091C0
S11306D0B5019091B601CAE0D0E0BE01E6D3CB01EA
S11306E0BE01E3D3805DF5DE8091B5019091B60142
S11306F0BE01DBD3805DEDDE88E6EBDE64E080E006
S113070019DF8091B7019091B801BE01CED3CB011E
S1130710BE01CBD3805DDDDE8091B7019091B8013D
S1130720BE01C3D3805DD5DE8DE6D3DE68E080E014
S113073001DF8091B9019091BA01BE01B6D3CB011A
S1130740BE01B3D3805DC5DE8091B9019091BA0139
S1130750BE01ABD3805DBDDE83E7BBDEDF91CF910D
S113076008950F931F93CF938C012CDEC82F6091B3
S1130770C90181E0DFDE8091BB019091BC01892B2E
S113078079F460E081E0D6DE8AE691E0C5DE60E0DF
S113079081E0D0DE81E090E09093BC018093BB01C6
S11307A0C1110DC088E04DDE84EF91E0CBDE8CE01A
S11307B048DE84EF91E0C6DE81E090E013C18C2F27
S11307C090E0FC017197E437F10508F0FDC0EA5BA5
S11307D0FF4F7EC381E37DDEE091C901F091CA0140
S11307E0EE0FFF1FE354FE4F81E090E0918380837E
S11307F0EEC082E36EDEE091C901F091CA01EE0F12
S1130800FF1FE354FE4F82E090E091838083DFC0BA
S113081083E35FDEE091C901F091CA01EE0FFF1F8F
S1130820E354FE4F83E090E091838083D0C084E35F
S113083050DEE091C901F091CA01EE0FFF1FE354AD
S1130840FE4F84E090E091838083C1C085E341DE64
S1130850E091C901F091CA01EE0FFF1FE354FE4F6E
S113086085E090E091838083B2C086E332DEE0913C
S1130870C901F091CA01EE0FFF1FE354FE4F86E059
S113088090E091838083A3C087E323DEE091C901D4
S1130890F091CA01EE0FFF1FE354FE4F87E090E092
S11308A09183808394C088E314DEE091C901F091C0
S11308B0CA01EE0FFF1FE354FE4F88E090E09183DE
S11308C0808385C089E305DEE091C901F091CA0106
S11308D0EE0FFF1FE354FE4F89E090E09183808385
S11308E076C080E3F6DDE091C901F091CA01EE0F14
S11308F0FF1FE354FE4F1182108269C060E081E063
S113090019DE81E791E008DE1092CA011092C90154
S1130910F80111821082EDEBF1E0808191819C015C
S1130920220F331F880F991F880F991F880F991F53
S1130930820F931F22813381820F931F9093B601FC
S11309408093B501848195819C01220F331F880F08
S1130950991F880F991F880F991F820F931F268153
S11309603781820F931F9093B8018093B7018085DC
S113097091859C01220F331F880F991F880F991F9F
S1130980880F991F820F931F22853385820F931F2F
S11309909093BA018093B9011092BC011092BB01EB
S11309A080E090E01FC06091C9017091CA0161505C
S11309B071097093CA016093C90181E0BBDD8FE5C1
S11309C088DD81E090E00EC081E090E00BC0809172
S11309D0C9019091CA0101969093CA018093C901FB
S11309E081E090E0CF911F910F91089560E080E045
S11309F0A1DD88E091E090DD60E081E09BDD89E4A9
S1130A0091E08ACD0895CF93DF93C82F60E081E011
S1130A1091DDC13209F452C0C13409F49AC0C13124
S1130A2009F09CC08091CB019091CC01813091055B
S1130A3081F41092CC011092CB0189E491E06CDD39
S1130A4081E090E09093070180930601C0E0D0E03C
S1130A5087C08230910591F481E090E09093CC01BD
S1130A608093CB0187E391E057DD82E090E090939F
S1130A70070180930601C0E0D0E072C0039791F4AF
S1130A8082E090E09093CC018093CB0187E291E0E7
S1130A9043DD83E090E09093070180930601C0E07A
S1130AA0D0E05EC089E491E037DD81E090E090938E
S1130AB0070180930601C0E0D0E052C0C091CB0191
S1130AC0D091CC01209781F481E090E09093CC0107
S1130AD08093CB0187E391E01FDD82E090E0909367
S1130AE00701809306013CC0C130D10591F482E036
S1130AF090E09093CC018093CB0187E291E00CDDF0
S1130B0083E090E09093070180930601C0E0D0E079
S1130B1027C0229791F483E090E09093CC018093D6
S1130B20CB0184E191E0F8DC84E090E0909307014C
S1130B3080930601C0E0D0E013C084E191E0ECDCD6
S1130B4084E090E09093070180930601C0E0D0E038
S1130B5007C0C0910601D091070102C0C0E0D0E0F7
S1130B60CE01DF91CF910895CF93DF93EC01809173
S1130B70CF019091D001892B81F460E080E0DADC30
S1130B8082E891E0C9DC82E05CDC8EE05ADC81E042
S1130B9090E09093D0018093CF0114DC90E0FC01AD
S1130BA07197E437F10508F045C1E654FF4F90C151
S1130BB081E38FDC8091E1019091E20101969093B1
S1130BC0E2018093E101880F991FFC01EF52FE4F6F
S1130BD081E090E0918380832DC182E37ADC80916F
S1130BE0E1019091E20101969093E2018093E10189
S1130BF0880F991FFC01EF52FE4F82E090E0918331
S1130C00808318C183E365DC8091E1019091E20166
S1130C1001969093E2018093E101880F991FFC01F2
S1130C20EF52FE4F83E090E09183808303C184E31D
S1130C3050DC8091E1019091E20101969093E201F0
S1130C408093E101880F991FFC01EF52FE4F84E06D
S1130C5090E091838083EEC085E33BDC8091E101E9
S1130C609091E20101969093E2018093E101880F53
S1130C70991FFC01EF52FE4F85E090E09183808341
S1130C80D9C086E326DC8091E1019091E2010196CE
S1130C909093E2018093E101880F991FFC01EF52C8
S1130CA0FE4F86E090E091838083C4C087E311DC2B
S1130CB08091E1019091E20101969093E201809389
S1130CC0E101880F991FFC01EF52FE4F87E090E08D
S1130CD091838083AFC088E3FCDB8091E101909134
S1130CE0E20101969093E2018093E101880F991F3C
S1130CF0FC01EF52FE4F88E090E0918380839AC01C
S1130D0089E3E7DB8091E1019091E2010196909300
S1130D10E2018093E101880F991FFC01EF52FE4F1D
S1130D2089E090E09183808385C080E3D2DB809169
S1130D30E1019091E20101969093E2018093E10137
S1130D40880F991FFC01EF52FE4F1182108272C06E
S1130D5080E177DB8091E1019091E201019790932A
S1130D60E2018093E101880F991FFC01EF52FE4FCD
S1130D70118210825FC08091E1019091E20101969D
S1130D809093E2018093E10184E15BDBE091E10176
S1130D90F091E201EE0FFF1FEF52FE4F118210821D
S1130DA049C01092D0011092CF0160E080E0C2DB14
S1130DB080E991E0B1DB8CE044DB6EDAE1EDF1E057
S1130DC04281538188EE93E0489F9001499F300D02
S1130DD0589F300D11244085518564E6649FC001FD
S1130DE0659F900D1124820F931F22853385B901CD
S1130DF0660F771FA901440F551F440F551F440F59
S1130E00551F9B01240F351F280F391F8685978591
S1130E10820F931F9093CE018093CD016AE070E01E
S1130E204EDA1092E2011092E10181E090E09983A0
S1130E30888302C082E090E0DF91CF910895CF9340
S1130E40DF93C091CD01D091CE01C81BD90BCE0147
S1130E5068EE73E02AD0873E934011F4C059D14024
S1130E60D093CE01C093CD016AE070E0CE0127DAC1
S1130E7081E090E0CD2B11F480E090E0DF91CF9100
S1130E800895AA1BBB1B51E107C0AA1FBB1FA617CD
S1130E90B70710F0A61BB70B881F991F5A95A9F71F
S1130EA080959095BC01CD01089597FB072E16F40B
S1130EB0009406D077FD08D0E4DF07FC05D03EF4AB
S1130EC0909581959F4F0895709561957F4F0895F2
S1130ED0EE0FFF1F0024001C0BBE0790F691E02DBF
S1090EE00994F894FFCF11
S1130EE610101010101001003030682030306D20C2
S1130EF630307300342E20416C61726D2020202026
S1130F0620202020202000332E2053746F70205779
S1130F1661746368202000322E2054696D65722046
S1130F26202020202020202000312E2053657420EC
S1130F362020202020202020003F065B4F666D7D68
S1130F46077F6F777C585E7971005F5F5F5F5F5FD5
S1130F5600312E20534554202020202020202020FC
S1130F662000306D2030302E3073202020202000C9
S1130F762020202020202020202020202020202067
S10B0F8620202020202000009F
S9030000FC
