:10000000B9C00000D4C00000D2C00000D0C00000C1
:10001000CEC00000CCC00000CAC00000C8C00000B4
:10002000C6C000001AC20000C2C00000C0C000006C
:10003000BEC00000BCC00000BAC00000B9C00000D3
:10004000B6C00000B4C00000B2C00000B0C00000E4
:10005000AEC00000ACC00000AAC00000A8C00000F4
:10006000A6C00000A4C00000A2C00000A0C0000004
:100070009EC000009CC000009AC0000098C0000014
:1000800096C0000094C0000092C000009604CF0308
:10009000A704C003A704A704A704B103A704A704E7
:1000A000A704A704A704A704A704A704A704FC03A4
:1000B000A704ED03A704A704A704DE03A704A7046D
:1000C000A704A704A704A704A704A704A704A704D8
:1000D000A704A704A704A704A704A704A704A704C8
:1000E000A704A704A704A704A704A7044504290498
:1000F000A7041A04A704A704A7040B04A704A704D1
:10010000A704A704A704A704A704A704A704A70497
:10011000A704A704A704A704A704A704A704A70487
:10012000A704A704A704A704A704A704A704A70477
:10013000A704A704A704A704A704A704A704A70467
:10014000A704A704A704A704A704A704A704A70457
:10015000A704A704A704A704A704A704A704A70447
:10016000A704A704A704A704A704A704A704A70437
:10017000A704380411241FBECFEFD0E1DEBFCDBFEE
:1001800011E0A0E0B1E0E4E9FDE000E00BBF02C057
:1001900007900D92A83AB107D9F721E0A8EAB1E09B
:1001A00001C01D92AD3CB207E1F70CD2F1C528CFDA
:1001B0001F920F920FB60F9211240BB60F922F932E
:1001C0008F939F93EF93FF9322B380E190E0009091
:1001D000A80102C0880F991F0A94E2F78095807FDA
:1001E000922F9F70892B82BBE091A801F091A90109
:1001F000EA5FFE4FE081F0E0E958FE4F8081809594
:100200008BBB8091A8019091A90101968430910542
:1002100029F09093A9018093A80104C01092A9012C
:100220001092A801FF91EF919F918F912F910F90C4
:100230000BBE0F900FBE0F901F9018958EEF8093FE
:100240006200000080B18095807F69F423E092E035
:10025000E2E6F0E0892F80958083000080B18095F0
:10026000807F21F001C091E0890F0895990F2150FE
:1002700089F7089580EF809362008FE0809361009A
:100280000895CF93DBDFC82F01C0C82F8FE39CE90F
:100290000197F1F700C000008FE39CE90197F1F7A7
:1002A00000C000008FE39CE90197F1F700C0000057
:1002B000C5DFC813EACF982F907F19F41092AA01D6
:1002C00009C09091AA01891721F08093AA01982F63
:1002D00001C090E0892FCF910895982F907F94606E
:1002E00095BB9B7F95BB20E18202C00111248460F5
:1002F00085BB8B7F85BB85E08A95F1F7000008956B
:10030000CF93C82F85E38A95F1F7000095E39A957E
:10031000F1F7000085E38A95F1F7000095E39A95DF
:10032000F1F7000085E38A95F1F700008C2FD5DF07
:10033000C150C23030F48FE39FE10197F1F700C064
:100340000000CF9108958FEF84BB8FE59AEE01975F
:10035000F1F700C0000080E3C0DF8FE19EE4019769
:10036000F1F700C0000080E3B8DF8FE99FE001975C
:10037000F1F700C0000082E3B0DF88E2C1DF88E06F
:10038000BFDF81E0BDDF86E0BBDF8CE0B9CF089541
:1003900025E32A95F1F7000095E39A95F1F700001F
:1003A00025E32A95F1F7000095E39A95F1F700000F
:1003B00025E32A95F1F70000982F907F956095BB73
:1003C0009B7F95BB20E18202C0011124856085BB23
:1003D0008B7F85BB0895CF93DF93EC0188818823C1
:1003E00029F02196D5DF89918111FCCFDF91CF9142
:1003F000089590E4899F600D1124862F806880CF36
:1004000008950F931F93CF93DF938B0128E082020F
:10041000C0011124806474DFE801085F1F4F8991D7
:10042000B7DFC017D107D9F7DF91CF911F910F9197
:1004300008951816190644F4EFE9FFE03197F1F733
:1004400000C000000197C1F7089585B5886085BD9B
:1004500084E683BD80E887BF08951F920F920FB690
:100460000F9211242F935F936F937F938F939F939A
:10047000AF93BF938091B1019091B2010196909397
:10048000B2018093B10180322EE4920771F4109290
:10049000B2011092B1018091AF019091B00101962B
:1004A0009093B0018093AF010EC060ED77E033D33D
:1004B000892B49F08091AD019091AE010196909306
:1004C000AE018093AD01BF91AF919F918F917F91CC
:1004D0006F915F912F910F900FBE0F901F90189505
:1004E0000F931F93CF93DF93CDB7DEB768970FB607
:1004F000F894DEBF0FBECDBF84E190E028D38C011D
:1005000088E0EFE5F1E0DE01119601900D928A9509
:10051000E1F788E0E7E6F1E0DE01199601900D923F
:100520008A95E1F788E0EFE6F1E0DE01519601906F
:100530000D928A95E1F7BE016F5F7F4F81E061DF29
:10054000BE01675F7F4F82E05CDFBE016F5E7F4F61
:1005500083E057DF81E0F801808382E0818383E0DC
:10056000828387E2838383E7848380E2858387E5D0
:10057000868381E6878384E7808783E6818788E6B0
:100580008287138660E080E034DFC80124DF03E067
:1005900010E08CE0B5DE84EF91E04BDF88E0B0DE68
:1005A00084EF91E046DF0150110999F7CCDE68969F
:1005B0000FB6F894DEBF0FBECDBFDF91CF911F9174
:1005C0000F910895C0DE56DE40DF8ADFD2D17894E5
:1005D00085B5826085BD8091AF019091B0012BD02F
:1005E0001092B0011092AF014CDED0D19093AC01CB
:1005F0008093AB01019749F48FEA91E08ED09093FC
:10060000AC018093AB010197B9F38091AB0190915C
:10061000AC01029701F782E073DE88E891E0DBDE4F
:100620008EE06EDE82E06CDE8091AB019091AC01D9
:10063000029789F3D0CFCF93DF932091B701309108
:10064000B801820F931F2CE330E0B90164D2FC01A2
:100650008091B5019091B601860F971FB9015BD2C9
:100660002091B3013091B401620F731FF093B80170
:10067000E093B7019093B6018093B501CB0168E197
:1006800070E049D29093B4018093B30160E080E0C0
:10069000B0DE8091B3019091B401CAE0D0E0BE0118
:1006A0003AD2CB01BE0137D2805D72DE8091B301B8
:1006B0009091B401BE012FD2805D6ADE64E080E0DB
:1006C00098DE8091B5019091B601BE0124D2CB0194
:1006D000BE0121D2805D5CDE8091B5019091B601B2
:1006E000BE0119D2805D54DE68E080E082DE809138
:1006F000B7019091B801BE010ED2CB01BE010BD261
:10070000805D46DE8091B7019091B801BE0103D2B1
:10071000805D3EDEDF91CF9108950F931F93CF93BD
:100720008C01AFDDC82F6091C50181E062DEC1118F
:100730000DC088E0E5DD84EF91E07BDE8CE0E0DD5C
:1007400084EF91E076DE81E090E00FC18C2F90E0A5
:10075000FC017197E437F10508F0F9C0EA5BFF4F3F
:10076000EDC181E315DEE091C501F091C601EE0F08
:10077000FF1FE754FE4F81E090E091838083EAC041
:1007800082E306DEE091C501F091C601EE0FFF1F86
:10079000E754FE4F82E090E091838083DBC083E3E7
:1007A000F7DDE091C501F091C601EE0FFF1FE754A0
:1007B000FE4F83E090E091838083CCC084E3E8DD4A
:1007C000E091C501F091C601EE0FFF1FE754FE4F07
:1007D00084E090E091838083BDC085E3D9DDE09122
:1007E000C501F091C601EE0FFF1FE754FE4F85E0F3
:1007F00090E091838083AEC086E3CADDE091C501BD
:10080000F091C601EE0FFF1FE754FE4F86E090E027
:10081000918380839FC087E3BBDDE091C501F091A8
:10082000C601EE0FFF1FE754FE4F87E090E0918373
:10083000808390C088E3ACDDE091C501F091C601F2
:10084000EE0FFF1FE754FE4F88E090E09183808316
:1008500081C089E39DDDE091C501F091C601EE0FF5
:10086000FF1FE754FE4F89E090E09183808372C0C0
:1008700080E38EDDE091C501F091C601EE0FFF1F10
:10088000E754FE4F1182108265C060E081E0B1DD67
:1008900086E991E0A0DD1092C6011092C501F80131
:1008A00011821082E9EBF1E0808191819C01220F9D
:1008B000331F880F991F880F991F880F991F820F68
:1008C000931F22813381820F931F9093B4018093F1
:1008D000B301848195819C01220F331F880F991FDA
:1008E000880F991F880F991F820F931F26813781C8
:1008F000820F931F9093B6018093B50180859185F7
:100900009C01220F331F880F991F880F991F880F92
:10091000991F820F931F22853385820F931F909317
:10092000B8018093B70180E090E01FC06091C501DD
:100930007091C601615071097093C6016093C50141
:1009400081E057DD8FE524DD81E090E00EC081E09D
:1009500090E00BC08091C5019091C60101969093E3
:10096000C6018093C50181E090E0CF911F910F9166
:10097000089560E080E03DDD8EE091E02CDD60E0F8
:1009800081E037DD8FE491E026CD0895CF93DF93AA
:10099000C82F60E081E02DDDC13209F452C0C134BE
:1009A00009F49AC0C13109F09CC08091C7019091AF
:1009B000C8018130910581F41092C8011092C701DD
:1009C0008FE491E008DD81E090E090930D01809349
:1009D0000C01C0E0D0E087C08230910591F481E045
:1009E00090E09093C8018093C7018DE391E0F3DC20
:1009F00082E090E090930D0180930C01C0E0D0E084
:100A000072C0039791F482E090E09093C8018093C4
:100A1000C7018DE291E0DFDC83E090E090930D016F
:100A200080930C01C0E0D0E05EC08FE491E0D3DCA5
:100A300081E090E090930D0180930C01C0E0D0E044
:100A400052C0C091C701D091C801209781F481E0C4
:100A500090E09093C8018093C7018DE391E0BBDCE7
:100A600082E090E090930D0180930C013CC0C13076
:100A7000D10591F482E090E09093C8018093C70182
:100A80008DE291E0A8DC83E090E090930D018093EB
:100A90000C01C0E0D0E027C0229791F483E090E001
:100AA0009093C8018093C7018AE191E094DC84E0CF
:100AB00090E090930D0180930C01C0E0D0E013C052
:100AC0008AE191E088DC84E090E090930D018093CE
:100AD0000C01C0E0D0E007C0C0910C01D0910D0125
:100AE00002C0C0E0D0E0CE01DF91CF910895AA1BF3
:100AF000BB1B51E107C0AA1FBB1FA617B70710F009
:100B0000A61BB70B881F991F5A95A9F7809590953A
:100B1000BC01CD01089597FB072E16F4009406D072
:100B200077FD08D0E4DF07FC05D03EF49095819571
:100B30009F4F0895709561957F4F0895EE0FFF1FA9
:100B40000024001C0BBE0790F691E02D09940F9332
:100B50001F93CF93DF938230910510F482E090E0F1
:100B6000E091CB01F091CC0120E030E0A0E0B0E0DA
:100B7000309719F14081518102811381481759073B
:100B8000C8F08417950769F4109731F012960C930A
:100B9000129713961C9327C00093CB011093CC019E
:100BA00022C02115310519F04217530718F49A0194
:100BB000BD01EF01DF01F801DBCF21153105F9F0AF
:100BC000281B390B2430310580F48A819B81611503
:100BD000710521F0FB019383828304C09093CC01C3
:100BE0008093CB01FE01329644C0FE01E20FF31F59
:100BF0008193919322503109398328833AC02091FF
:100C0000C9013091CA01232B41F420910201309196
:100C100003013093CA012093C90120910001309152
:100C200001012115310541F42DB73EB74091040172
:100C300050910501241B350BE091C901F091CA01C7
:100C4000E217F307A0F42E1B3F0B2817390778F0A3
:100C5000AC014E5F5F4F2417350748F04E0F5F1F02
:100C60005093CA014093C9018193919302C0E0E07F
:100C7000F0E0CF01DF91CF911F910F910895CF93B5
:100C8000DF93009709F481C0FC013297138212822E
:100C9000A091CB01B091CC01109781F420813181DA
:100CA000820F931F2091C9013091CA01281739077B
:100CB00051F5F093CA01E093C90167C0ED0120E04E
:100CC00030E0CE17DF0740F44A815B819E01411579
:100CD0005105F1F0EA01F5CFD383C2834081518100
:100CE000840F951FC817D90759F488819981840FFB
:100CF000951F0296918380838A819B81938382834F
:100D00002115310529F4F093CC01E093CB013DC0CE
:100D1000E901FB83EA8349915991C40FD51FEC1770
:100D2000FD0761F480819181840F951F0296E9018E
:100D300099838883828193819B838A83E0E0F0E0BA
:100D400012968D919C911397009719F0FD01DC018B
:100D5000F7CF8D919C9111979D012E5F3F4F820F90
:100D6000931F2091C9013091CA012817390769F4EE
:100D7000309729F41092CC011092CB0102C013825B
:100D80001282B093CA01A093C901DF91CF91089557
:040D9000F894FFCF05
:100D94000000CD01200010101010101001003030A0
:100DA400682030306D2030307300342E20416C6167
:100DB400726D2020202020202020202000332E208F
:100DC40053746F70205761746368202000322E20A2
:100DD40054696D65722020202020202020200031BD
:100DE4002E20536574202020202020202020000263
:100DF4001A1F1E021C040402021A0B0A0A02000231
:100E04001E0A0E080C120C3F065B4F666D7D077FB1
:100E14006F777C585E797100306D2030302E3073DE
:100E2400202020202000312E205345542020202033
:080E34002020202020200000F6
:00000001FF
